{
  "transactions": [
    {
      "hash": "0x790818490aa2e533032f8e1c3b8121da3b1fdb9b65967b78bd0c82cd86f9b67f",
      "transactionType": "CALL",
      "contractName": null,
      "contractAddress": "0x7e093d035552f39d78dd3691c1837191984064c5",
      "function": "setSigner(address)",
      "arguments": [
        "0x1ec3E56cbE71Db52A44ff2A635c468CAF1Bc77B7"
      ],
      "transaction": {
        "from": "0x00e3cc76da72cf673e4429e2d527388956af61ef",
        "to": "0x7e093d035552f39d78dd3691c1837191984064c5",
        "gas": "0xfddd",
        "value": "0x0",
        "input": "0x6c19e7830000000000000000000000001ec3e56cbe71db52a44ff2a635c468caf1bc77b7",
        "nonce": "0xe",
        "chainId": "0xaa37dc"
      },
      "additionalContracts": [],
      "isFixedGasLimit": false
    }
  ],
  "receipts": [
    {
      "status": "0x1",
      "cumulativeGasUsed": "0xb53fa",
      "logs": [
        {
          "address": "0x7e093d035552f39d78dd3691c1837191984064c5",
          "topics": [
            "0x9eaa897564d022fb8c5efaf0acdb5d9d27b440b2aad44400b6e1c702e65b9ed3"
          ],
          "data": "0x0000000000000000000000001ec3e56cbe71db52a44ff2a635c468caf1bc77b7",
          "blockHash": "0x6c2c0cf9cca5590ee62f95ad2cba9ac3a5115514be4ba60e5590efded1aca428",
          "blockNumber": "0xd5bcaa",
          "transactionHash": "0x790818490aa2e533032f8e1c3b8121da3b1fdb9b65967b78bd0c82cd86f9b67f",
          "transactionIndex": "0x3",
          "logIndex": "0x10",
          "removed": false
        }
      ],
      "logsBloom": "0x00000000000000400000000000000000000000000000000000000000000000000000000000000000000000000000000000000000000000000000000000000000000000000000000000000000000000000000000000000000000000000000000000000000000000000000000000000000000000000001000000000000000000000000000000000000000000000000000000000000000000000000000000000000000000000000000000000000010000000000000000000000000000000000000000000000000000000000000000000000000000000400000000000000000000000000000000000000000000000000040008000000000000000000000000000000",
      "type": "0x2",
      "transactionHash": "0x790818490aa2e533032f8e1c3b8121da3b1fdb9b65967b78bd0c82cd86f9b67f",
      "transactionIndex": "0x3",
      "blockHash": "0x6c2c0cf9cca5590ee62f95ad2cba9ac3a5115514be4ba60e5590efded1aca428",
      "blockNumber": "0xd5bcaa",
      "gasUsed": "0xb7cc",
      "effectiveGasPrice": "0x8729d7b",
      "from": "0x00e3cc76da72cf673e4429e2d527388956af61ef",
      "to": "0x7e093d035552f39d78dd3691c1837191984064c5",
      "contractAddress": null,
      "l1BaseFeeScalar": "0x1db0",
      "l1BlobBaseFee": "0x7c9fb5e",
      "l1BlobBaseFeeScalar": "0xd2730",
      "l1Fee": "0x849388eb2f",
      "l1GasPrice": "0xaafdd8d72",
      "l1GasUsed": "0x640"
    }
  ],
  "libraries": [],
  "pending": [],
  "returns": {},
  "timestamp": 1719817480,
  "chain": 11155420,
  "commit": "9753a12"
}