{
  "transactions": [
    {
      "hash": "0xd36387eee2add25531eb0e921ba5d2e5c4f35dfba36cdce053981c8d9533e0fc",
      "transactionType": "CALL",
      "contractName": null,
      "contractAddress": "0x00d44864a045ac6ea04bb6ec1b0b4161e7882445",
      "function": "mint(address,uint256)",
      "arguments": [
        "0xc314bBE792F2853a39a7B2EcaFbc472CCdE17158",
        "10000000000000000000"
      ],
      "transaction": {
        "from": "0xc314bbe792f2853a39a7b2ecafbc472ccde17158",
        "to": "0x00d44864a045ac6ea04bb6ec1b0b4161e7882445",
        "gas": "0xb6f7",
        "value": "0x0",
        "input": "0x40c10f19000000000000000000000000c314bbe792f2853a39a7b2ecafbc472ccde171580000000000000000000000000000000000000000000000008ac7230489e80000",
        "nonce": "0x2",
        "chainId": "0x13882"
      },
      "additionalContracts": [],
      "isFixedGasLimit": false
    },
    {
      "hash": "0x1218780808b74238782682507f91d6f1a08a0250e8d203890a68e2f1804cca4e",
      "transactionType": "CALL",
      "contractName": null,
      "contractAddress": "0x00d44864a045ac6ea04bb6ec1b0b4161e7882445",
      "function": "approve(address,uint256)",
      "arguments": [
        "0x2Fa5Ac9Be2b60cBE823EEab6D989da2832062601",
        "1000000000000000000000000"
      ],
      "transaction": {
        "from": "0xc314bbe792f2853a39a7b2ecafbc472ccde17158",
        "to": "0x00d44864a045ac6ea04bb6ec1b0b4161e7882445",
        "gas": "0xf80d",
        "value": "0x0",
        "input": "0x095ea7b30000000000000000000000002fa5ac9be2b60cbe823eeab6d989da283206260100000000000000000000000000000000000000000000d3c21bcecceda1000000",
        "nonce": "0x3",
        "chainId": "0x13882"
      },
      "additionalContracts": [],
      "isFixedGasLimit": false
    }
  ],
  "receipts": [
    {
      "status": "0x1",
      "cumulativeGasUsed": "0x8477",
      "logs": [
        {
          "address": "0x00d44864a045ac6ea04bb6ec1b0b4161e7882445",
          "topics": [
            "0xddf252ad1be2c89b69c2b068fc378daa952ba7f163c4a11628f55a4df523b3ef",
            "0x0000000000000000000000000000000000000000000000000000000000000000",
            "0x000000000000000000000000c314bbe792f2853a39a7b2ecafbc472ccde17158"
          ],
          "data": "0x0000000000000000000000000000000000000000000000008ac7230489e80000",
          "blockHash": "0xa817e19a044edeeb2254fabb6e2586f6f91904e2a92f9f02dc35e5291169e7b5",
          "blockNumber": "0x88d701",
          "transactionHash": "0xd36387eee2add25531eb0e921ba5d2e5c4f35dfba36cdce053981c8d9533e0fc",
          "transactionIndex": "0x0",
          "logIndex": "0x0",
          "removed": false
        },
        {
          "address": "0x0000000000000000000000000000000000001010",
          "topics": [
            "0x4dfe1bbbcf077ddc3e01291eea2d5c70c2b422b415d95645b9adcfd678cb1d63",
            "0x0000000000000000000000000000000000000000000000000000000000001010",
            "0x000000000000000000000000c314bbe792f2853a39a7b2ecafbc472ccde17158",
            "0x000000000000000000000000915a2284d28bd93de7d6f31173b981204bb666e6"
          ],
          "data": "0x000000000000000000000000000000000000000000000000003c3ceffa7d380000000000000000000000000000000000000000000000000045530e56ac050b00000000000000000000000000000000000000000000000239a9370237b93d94230000000000000000000000000000000000000000000000004516d166b187d300000000000000000000000000000000000000000000000239a9733f27b3bacc23",
          "blockHash": "0xa817e19a044edeeb2254fabb6e2586f6f91904e2a92f9f02dc35e5291169e7b5",
          "blockNumber": "0x88d701",
          "transactionHash": "0xd36387eee2add25531eb0e921ba5d2e5c4f35dfba36cdce053981c8d9533e0fc",
          "transactionIndex": "0x0",
          "logIndex": "0x1",
          "removed": false
        }
      ],
      "logsBloom": "0x00000000000000000010000000000000000000000000000000000000000000000000000000000000000000000000000000008000000000000000000000000000000000000000000000000008000000800000000000000000000100000000000000000000020000000000000000000800000000000000000080000010000000000000000000000000000000004200000000000000000000000000000000000000200000000000000000000000000000000000000000000000000000000000004000000002000400000001000000000000000002000000000000100010000020000000000008000000000000000000000000000000400000000002000000100000",
      "type": "0x2",
      "transactionHash": "0xd36387eee2add25531eb0e921ba5d2e5c4f35dfba36cdce053981c8d9533e0fc",
      "transactionIndex": "0x0",
      "blockHash": "0xa817e19a044edeeb2254fabb6e2586f6f91904e2a92f9f02dc35e5291169e7b5",
      "blockNumber": "0x88d701",
      "gasUsed": "0x8477",
      "effectiveGasPrice": "0x746a52880f",
      "from": "0xc314bbe792f2853a39a7b2ecafbc472ccde17158",
      "to": "0x00d44864a045ac6ea04bb6ec1b0b4161e7882445",
      "contractAddress": null
    },
    {
      "status": "0x1",
      "cumulativeGasUsed": "0x1059e",
      "logs": [
        {
          "address": "0x00d44864a045ac6ea04bb6ec1b0b4161e7882445",
          "topics": [
            "0x8c5be1e5ebec7d5bd14f71427d1e84f3dd0314c0f7b2291e5b200ac8c7c3b925",
            "0x000000000000000000000000c314bbe792f2853a39a7b2ecafbc472ccde17158",
            "0x0000000000000000000000002fa5ac9be2b60cbe823eeab6d989da2832062601"
          ],
          "data": "0x00000000000000000000000000000000000000000000d3c21bcecceda1000000",
          "blockHash": "0x2ee456891f6ad7c229445ff9c1f23c57183fe575003c8210c14c9abade573099",
          "blockNumber": "0x88d705",
          "transactionHash": "0x1218780808b74238782682507f91d6f1a08a0250e8d203890a68e2f1804cca4e",
          "transactionIndex": "0x1",
          "logIndex": "0x2",
          "removed": false
        },
        {
          "address": "0x0000000000000000000000000000000000001010",
          "topics": [
            "0x4dfe1bbbcf077ddc3e01291eea2d5c70c2b422b415d95645b9adcfd678cb1d63",
            "0x0000000000000000000000000000000000000000000000000000000000001010",
            "0x000000000000000000000000c314bbe792f2853a39a7b2ecafbc472ccde17158",
            "0x000000000000000000000000915a2284d28bd93de7d6f31173b981204bb666e6"
          ],
          "data": "0x0000000000000000000000000000000000000000000000000051aa8e0173b0000000000000000000000000000000000000000000000000004516d166b1801007000000000000000000000000000000000000000000000239aad16a22d911529b00000000000000000000000000000000000000000000000044c526d8b00c6007000000000000000000000000000000000000000000000239ab2314b0da85029b",
          "blockHash": "0x2ee456891f6ad7c229445ff9c1f23c57183fe575003c8210c14c9abade573099",
          "blockNumber": "0x88d705",
          "transactionHash": "0x1218780808b74238782682507f91d6f1a08a0250e8d203890a68e2f1804cca4e",
          "transactionIndex": "0x1",
          "logIndex": "0x3",
          "removed": false
        }
      ],
      "logsBloom": "0x00000000000000000010000000000000000000000000000000000000000000000000000000000000000200000000000000008000000000000000000000200000000000000000000000000000000000800000000000000000000100000000000000000000000000000000000000000000000000000000000080000000000000000000000000000000000000004200000000000000000000000000000000000000220000000000100000000000000000000000000000000000000000000000004000000000000400000001000000000000000002000000000000100010000000000010000008000000000000000000000000000000400000040002000000100000",
      "type": "0x2",
      "transactionHash": "0x1218780808b74238782682507f91d6f1a08a0250e8d203890a68e2f1804cca4e",
      "transactionIndex": "0x1",
      "blockHash": "0x2ee456891f6ad7c229445ff9c1f23c57183fe575003c8210c14c9abade573099",
      "blockNumber": "0x88d705",
      "gasUsed": "0xb396",
      "effectiveGasPrice": "0x746a52880f",
      "from": "0xc314bbe792f2853a39a7b2ecafbc472ccde17158",
      "to": "0x00d44864a045ac6ea04bb6ec1b0b4161e7882445",
      "contractAddress": null
    }
  ],
  "libraries": [],
  "pending": [],
  "returns": {},
  "timestamp": 1719894135,
  "chain": 80002,
  "commit": "9753a12"
}