{
  "transactions": [
    {
      "hash": "0x9d2d0f68388bd6c179133829b8e526d38679c7c7384fb95a4f1ba467cca826d3",
      "transactionType": "CALL",
      "contractName": null,
      "contractAddress": "0x00d44864a045ac6ea04bb6ec1b0b4161e7882445",
      "function": "mint(address,uint256)",
      "arguments": [
        "0xc314bBE792F2853a39a7B2EcaFbc472CCdE17158",
        "10000000000000000000"
      ],
      "transaction": {
        "from": "0xc314bbe792f2853a39a7b2ecafbc472ccde17158",
        "to": "0x00d44864a045ac6ea04bb6ec1b0b4161e7882445",
        "gas": "0x16f7d",
        "value": "0x0",
        "input": "0x40c10f19000000000000000000000000c314bbe792f2853a39a7b2ecafbc472ccde171580000000000000000000000000000000000000000000000008ac7230489e80000",
        "nonce": "0x0",
        "chainId": "0x13882"
      },
      "additionalContracts": [],
      "isFixedGasLimit": false
    },
    {
      "hash": "0xe430e1acd70c92291ad551b746540110017db4d0116c9d986a0ab4d049b8aaef",
      "transactionType": "CALL",
      "contractName": null,
      "contractAddress": "0x00d44864a045ac6ea04bb6ec1b0b4161e7882445",
      "function": "approve(address,uint256)",
      "arguments": [
        "0x172A014aAA772E7634E051d2f5ecC424d95Df920",
        "1000000000000000000000000"
      ],
      "transaction": {
        "from": "0xc314bbe792f2853a39a7b2ecafbc472ccde17158",
        "to": "0x00d44864a045ac6ea04bb6ec1b0b4161e7882445",
        "gas": "0xf80d",
        "value": "0x0",
        "input": "0x095ea7b3000000000000000000000000172a014aaa772e7634e051d2f5ecc424d95df92000000000000000000000000000000000000000000000d3c21bcecceda1000000",
        "nonce": "0x1",
        "chainId": "0x13882"
      },
      "additionalContracts": [],
      "isFixedGasLimit": false
    }
  ],
  "receipts": [
    {
      "status": "0x1",
      "cumulativeGasUsed": "0x10a0f",
      "logs": [
        {
          "address": "0x00d44864a045ac6ea04bb6ec1b0b4161e7882445",
          "topics": [
            "0xddf252ad1be2c89b69c2b068fc378daa952ba7f163c4a11628f55a4df523b3ef",
            "0x0000000000000000000000000000000000000000000000000000000000000000",
            "0x000000000000000000000000c314bbe792f2853a39a7b2ecafbc472ccde17158"
          ],
          "data": "0x0000000000000000000000000000000000000000000000008ac7230489e80000",
          "blockHash": "0x8fd2d1a870fa4d3d2c8c98a66124d060748dd8c2cfed5bf648271013c26997ab",
          "blockNumber": "0x885229",
          "transactionHash": "0x9d2d0f68388bd6c179133829b8e526d38679c7c7384fb95a4f1ba467cca826d3",
          "transactionIndex": "0x0",
          "logIndex": "0x0",
          "removed": false
        },
        {
          "address": "0x0000000000000000000000000000000000001010",
          "topics": [
            "0x4dfe1bbbcf077ddc3e01291eea2d5c70c2b422b415d95645b9adcfd678cb1d63",
            "0x0000000000000000000000000000000000000000000000000000000000001010",
            "0x000000000000000000000000c314bbe792f2853a39a7b2ecafbc472ccde17158",
            "0x0000000000000000000000004ca9ff871c7aa1e7b64e1eae110835f68d6a0bd4"
          ],
          "data": "0x0000000000000000000000000000000000000000000000000009dbb44800681f0000000000000000000000000000000000000000000000004563918244f40000000000000000000000000000000000000000000000000253f54835eed5a9742a0000000000000000000000000000000000000000000000004559b5cdfcf397e1000000000000000000000000000000000000000000000253f55211a31da9dc49",
          "blockHash": "0x8fd2d1a870fa4d3d2c8c98a66124d060748dd8c2cfed5bf648271013c26997ab",
          "blockNumber": "0x885229",
          "transactionHash": "0x9d2d0f68388bd6c179133829b8e526d38679c7c7384fb95a4f1ba467cca826d3",
          "transactionIndex": "0x0",
          "logIndex": "0x1",
          "removed": false
        }
      ],
      "logsBloom": "0x00000000000000000000000000000000000000000000000000000000000000000000000000000000000000000000000020008000000000000000000000000000000000000000000000000008000000800000000000000000000100000000000000000000020000000000000000000800000000000000000080000010000000000000000000000000000000004200000000008000000000000000000000000000200000000000040000000000000000000000000000000000000000000000004000000002000400000001000000000000000000000000000000100010000020000000000008000000000000000000000000000000000000000002000000100000",
      "type": "0x2",
      "transactionHash": "0x9d2d0f68388bd6c179133829b8e526d38679c7c7384fb95a4f1ba467cca826d3",
      "transactionIndex": "0x0",
      "blockHash": "0x8fd2d1a870fa4d3d2c8c98a66124d060748dd8c2cfed5bf648271013c26997ab",
      "blockNumber": "0x885229",
      "gasUsed": "0x10a0f",
      "effectiveGasPrice": "0x97c4b1100",
      "from": "0xc314bbe792f2853a39a7b2ecafbc472ccde17158",
      "to": "0x00d44864a045ac6ea04bb6ec1b0b4161e7882445",
      "contractAddress": null
    },
    {
      "status": "0x1",
      "cumulativeGasUsed": "0xb396",
      "logs": [
        {
          "address": "0x00d44864a045ac6ea04bb6ec1b0b4161e7882445",
          "topics": [
            "0x8c5be1e5ebec7d5bd14f71427d1e84f3dd0314c0f7b2291e5b200ac8c7c3b925",
            "0x000000000000000000000000c314bbe792f2853a39a7b2ecafbc472ccde17158",
            "0x000000000000000000000000172a014aaa772e7634e051d2f5ecc424d95df920"
          ],
          "data": "0x00000000000000000000000000000000000000000000d3c21bcecceda1000000",
          "blockHash": "0x28bcf7b078c65f38b2f177c9a3696f3bf838406fcaf8d160fb7096c01b5784af",
          "blockNumber": "0x88522d",
          "transactionHash": "0xe430e1acd70c92291ad551b746540110017db4d0116c9d986a0ab4d049b8aaef",
          "transactionIndex": "0x0",
          "logIndex": "0x0",
          "removed": false
        },
        {
          "address": "0x0000000000000000000000000000000000001010",
          "topics": [
            "0x4dfe1bbbcf077ddc3e01291eea2d5c70c2b422b415d95645b9adcfd678cb1d63",
            "0x0000000000000000000000000000000000000000000000000000000000001010",
            "0x000000000000000000000000c314bbe792f2853a39a7b2ecafbc472ccde17158",
            "0x0000000000000000000000004ca9ff871c7aa1e7b64e1eae110835f68d6a0bd4"
          ],
          "data": "0x0000000000000000000000000000000000000000000000000006a77750d470360000000000000000000000000000000000000000000000004559b5cdfce40100000000000000000000000000000000000000000000000253f567d05852991da500000000000000000000000000000000000000000000000045530e56ac0f90ca000000000000000000000000000000000000000000000253f56e77cfa36d8ddb",
          "blockHash": "0x28bcf7b078c65f38b2f177c9a3696f3bf838406fcaf8d160fb7096c01b5784af",
          "blockNumber": "0x88522d",
          "transactionHash": "0xe430e1acd70c92291ad551b746540110017db4d0116c9d986a0ab4d049b8aaef",
          "transactionIndex": "0x0",
          "logIndex": "0x1",
          "removed": false
        }
      ],
      "logsBloom": "0x00200000000000000000000000000000000000000000000000000800000000000000000000000000000000000000000020008000000000000000000000200000000000000000000000000000000000800000000000000000000100000000000000000000000000000000000000000000000000000000000080000000000000000000000000000000000000004200000000008000000000000000000000000000220000000000040000000000000000000000000000000000000000000000004000080000000400000001000000000000000000000000000000100010000000000010000008000000000000000000000000000000000000000002000000100000",
      "type": "0x2",
      "transactionHash": "0xe430e1acd70c92291ad551b746540110017db4d0116c9d986a0ab4d049b8aaef",
      "transactionIndex": "0x0",
      "blockHash": "0x28bcf7b078c65f38b2f177c9a3696f3bf838406fcaf8d160fb7096c01b5784af",
      "blockNumber": "0x88522d",
      "gasUsed": "0xb396",
      "effectiveGasPrice": "0x97c4b1100",
      "from": "0xc314bbe792f2853a39a7b2ecafbc472ccde17158",
      "to": "0x00d44864a045ac6ea04bb6ec1b0b4161e7882445",
      "contractAddress": null
    }
  ],
  "libraries": [],
  "pending": [],
  "returns": {},
  "timestamp": 1719815412,
  "chain": 80002,
  "commit": "9753a12"
}