{
  "transactions": [
    {
      "hash": "0x93601a3123e0dbd676f5f814c4264212723c12ce89e11dd346dd33d5eb5196f6",
      "transactionType": "CREATE",
      "contractName": "ExecutorRegistry",
      "contractAddress": "0x44bd74b62739de2412b617fd9b2ee85c998b1494",
      "function": null,
      "arguments": null,
      "transaction": {
        "from": "0x00e3cc76da72cf673e4429e2d527388956af61ef",
        "gas": "0x7bea3",
        "value": "0x0",
        "input": "0x608080604052346075573315605f5760008054336001600160a01b0319821681178355916001600160a01b03909116907f8be0079c531659141344cd1fd0a4f28419497f9722a3daafe3b4186f6b6457e09080a36105a7908161007b8239f35b631e4fbdf760e01b600052600060045260246000fd5b600080fdfe6080604052600436101561001257600080fd5b60003560e01c80631f5a0bbe1461044e578063207d1d2d1461035757806324788429146101c0578063715018a6146101675780638da5cb5b1461013e578063debfda30146100fb5763f2fde38b1461006957600080fd5b346100f65760203660031901126100f6576004356001600160a01b038116908190036100f657610097610548565b80156100e057600080546001600160a01b03198116831782556001600160a01b0316907f8be0079c531659141344cd1fd0a4f28419497f9722a3daafe3b4186f6b6457e09080a3005b631e4fbdf760e01b600052600060045260246000fd5b600080fd5b346100f65760203660031901126100f6576004356001600160a01b038116908190036100f6576000526001602052602060ff604060002054166040519015158152f35b346100f65760003660031901126100f6576000546040516001600160a01b039091168152602090f35b346100f65760003660031901126100f657610180610548565b600080546001600160a01b0319811682556001600160a01b03167f8be0079c531659141344cd1fd0a4f28419497f9722a3daafe3b4186f6b6457e08280a3005b346100f65760203660031901126100f6576004356001600160a01b038116908190036100f6576101ee610548565b80156103465780600052600160205260ff60406000205416156103355760025460005b81811061021a57005b8261022482610517565b905460039190911b1c6001600160a01b03161461024357600101610211565b600019820191821161031f5761027661025e61029a93610517565b905460039190911b1c6001600160a01b031691610517565b81546001600160a01b0393841660039290921b91821b9390911b1916919091179055565b6002548015610309577f4a2cf608bfb427f53279ec7f0eadf48913b9346ccefc3af138dbdec14ea0907d91602091600019016102d581610517565b81549060018060a01b039060031b1b191690556002558060005260018252604060002060ff198154169055604051908152a1005b634e487b7160e01b600052603160045260246000fd5b634e487b7160e01b600052601160045260246000fd5b635950530760e11b60005260046000fd5b63d92e233d60e01b60005260046000fd5b346100f65760003660031901126100f6576040518060206002549182815201809160026000527f405787fa12a823e0f2b7631cc41b3ba8828b3321ca811111fa75cd3aa3bb5ace9060005b81811061042f57505050829003601f01601f191682019167ffffffffffffffff83118184101761041957908291826040526020830190602084525180915260408301919060005b8181106103f7575050500390f35b82516001600160a01b03168452859450602093840193909201916001016103e9565b634e487b7160e01b600052604160045260246000fd5b82546001600160a01b03168452602090930192600192830192016103a2565b346100f65760203660031901126100f6576004356001600160a01b038116908181036100f65761047c610548565b81156103465781600052600160205260ff60406000205416610506578160005260016020526040600020600160ff198254161790556002549168010000000000000000831015610419576104fd6020926102768560017fae5b7c3b000f575c241001dc9bcb3d8778376889353b07121115574eceff78c59701600255610517565b604051908152a1005b63a0af6beb60e01b60005260046000fd5b60025481101561053257600260005260206000200190600090565b634e487b7160e01b600052603260045260246000fd5b6000546001600160a01b0316330361055c57565b63118cdaa760e01b6000523360045260246000fdfea2646970667358221220bfaaf5301a3cb5e3733f672ed373e5fae14bf4b7ab719c89ea7ee2f80dc7ef0f64736f6c634300081a0033",
        "nonce": "0x10",
        "chainId": "0x13882"
      },
      "additionalContracts": [],
      "isFixedGasLimit": false
    },
    {
      "hash": "0x4c5244bab1b50ecb832fadc009dc5802b9e87b41c6e9836c32adfe76c4231020",
      "transactionType": "CALL",
      "contractName": "ExecutorRegistry",
      "contractAddress": "0x44bd74b62739de2412b617fd9b2ee85c998b1494",
      "function": "addExecutor(address)",
      "arguments": [
        "0x00E3CC76DA72cF673E4429E2d527388956af61ef"
      ],
      "transaction": {
        "from": "0x00e3cc76da72cf673e4429e2d527388956af61ef",
        "to": "0x44bd74b62739de2412b617fd9b2ee85c998b1494",
        "gas": "0x20c17",
        "value": "0x0",
        "input": "0x1f5a0bbe00000000000000000000000000e3cc76da72cf673e4429e2d527388956af61ef",
        "nonce": "0x11",
        "chainId": "0x13882"
      },
      "additionalContracts": [],
      "isFixedGasLimit": false
    },
    {
      "hash": "0x0ab6837f7f7ecaa5c3e7b9962ee49113b0b3ca35e0743339dca02626908ecc72",
      "transactionType": "CREATE",
      "contractName": "SkateGateway",
      "contractAddress": "0x02856b036d41b4299ccbb7a9280c0b09a9988a21",
      "function": null,
      "arguments": null,
      "transaction": {
        "from": "0x00e3cc76da72cf673e4429e2d527388956af61ef",
        "gas": "0xca636",
        "value": "0x0",
        "input": "0x608080604052346075573315605f5760008054336001600160a01b0319821681178355916001600160a01b03909116907f8be0079c531659141344cd1fd0a4f28419497f9722a3daafe3b4186f6b6457e09080a3610a20908161007b8239f35b631e4fbdf760e01b600052600060045260246000fd5b600080fdfe608080604052600436101561001357600080fd5b60003560e01c908163238ac93314610715575080636be65f61146103785780636c19e78314610307578063715018a6146102ae5780638da5cb5b14610285578063a8d585c0146101f0578063b1cebbe0146101c7578063d8e4c8d11461014c578063f2fde38b146100c35763fb69bd191461008d57600080fd5b346100be5760203660031901126100be576004356000526003602052602060ff604060002054166040519015158152f35b600080fd5b346100be5760203660031901126100be576100dc610739565b6100e4610874565b6001600160a01b0316801561013657600080546001600160a01b03198116831782556001600160a01b0316907f8be0079c531659141344cd1fd0a4f28419497f9722a3daafe3b4186f6b6457e09080a3005b631e4fbdf760e01b600052600060045260246000fd5b346100be5760203660031901126100be57610165610739565b61016d610874565b6001600160a01b031680156101b6576001600160601b0360a01b60015416176001557ff41a32676cdfb585971e77972d6f5616110b40f1f99b0991ead5cc0bcad3791a600080a1005b63d92e233d60e01b60005260046000fd5b346100be5760003660031901126100be576001546040516001600160a01b039091168152602090f35b346100be5760a03660031901126100be576024356001600160a01b03811681036100be576044359067ffffffffffffffff82116100be57366023830112156100be5781600401359167ffffffffffffffff83116100be5736602484830101116100be576064356001600160a01b03811681036100be5760209361027d936024608435940190600435610813565b604051908152f35b346100be5760003660031901126100be576000546040516001600160a01b039091168152602090f35b346100be5760003660031901126100be576102c7610874565b600080546001600160a01b0319811682556001600160a01b03167f8be0079c531659141344cd1fd0a4f28419497f9722a3daafe3b4186f6b6457e08280a3005b346100be5760203660031901126100be57610320610739565b610328610874565b6001600160a01b031680156101b6576020817f9eaa897564d022fb8c5efaf0acdb5d9d27b440b2aad44400b6e1c702e65b9ed3926001600160601b0360a01b6002541617600255604051908152a1005b346100be5760203660031901126100be5760043567ffffffffffffffff81116100be5780600401606060031983360301126100be57600154604051630debfda360e41b815233600482015290602090829060249082906001600160a01b03165afa908115610709576000916106c7575b50156106b65780356024830192610459604461045161040f61040a888861079b565b6107b0565b61042661041c898961079b565b60208101906107c4565b61043b60406104358c8c61079b565b016107b0565b9160606104488c8c61079b565b01359389610813565b9201846107c4565b91610463836107f7565b906104716040519283610763565b83825236848401116100be5760006020856104a09661049796838701378401015261089d565b909291926108d9565b6002546001600160a01b039081169116036106a55780600052600360205260ff604060002054166106945760606104d7848461079b565b01354603610683578060005260036020526040600020600160ff1982541617905561055c60008061050b61040a878761079b565b8161051961041c898961079b565b9190826040519384928337810182815203925af1933d1561067b573d9361053f856107f7565b9461054d6040519687610763565b85523d6000602087013e61079b565b604080519283526020830152906001600160a01b0361057a8361074f565b1660408201526020820135601e19833603018112156100be578201916020833593019067ffffffffffffffff84116100be5783360382136100be5783606084927f08d6a38712c44625eade32110ef0f5f641ea140ed17be80e51fc6cc224e4d04d9660e0956080848701528160c08701528686013760008484018601526001600160a01b0361060b6040830161074f565b166080850152013560a0830152601f01601f19168101030190a16040519115158252604060208301528181519182604083015260005b8381106106635750508160006060809484010152601f80199101168101030190f35b60208282018101516060878401015285935001610641565b60609361079b565b63a971329360e01b60005260046000fd5b633b63faa360e21b60005260046000fd5b633cfc455b60e01b60005260046000fd5b630d07d87b60e21b60005260046000fd5b6020813d602011610701575b816106e060209383610763565b810103126106fd57519081151582036106fa5750836103e8565b80fd5b5080fd5b3d91506106d3565b6040513d6000823e3d90fd5b346100be5760003660031901126100be576002546001600160a01b03168152602090f35b600435906001600160a01b03821682036100be57565b35906001600160a01b03821682036100be57565b90601f8019910116810190811067ffffffffffffffff82111761078557604052565b634e487b7160e01b600052604160045260246000fd5b903590607e19813603018212156100be570190565b356001600160a01b03811681036100be5790565b903590601e19813603018212156100be570180359067ffffffffffffffff82116100be576020019181360383136100be57565b67ffffffffffffffff811161078557601f01601f191660200190565b94906034929460549261086e9580604051988995602087019b8c526001600160601b03199060601b166040870152868601378301916001600160601b03199060601b1684830152606882015203016014810184520182610763565b51902090565b6000546001600160a01b0316330361088857565b63118cdaa760e01b6000523360045260246000fd5b81519190604183036108ce576108c792506020820151906060604084015193015160001a90610961565b9192909190565b505060009160029190565b919091600481101561094b57806108ef57509050565b60006001820361090a5763f645eedf60e01b60005260046000fd5b5060028103610928578263fce698f760e01b60005260045260246000fd5b9091600360009214610938575050565b6335e2f38360e21b825260045260249150fd5b634e487b7160e01b600052602160045260246000fd5b91907f7fffffffffffffffffffffffffffffff5d576e7357a4501ddfe92f46681b20a084116109de579160209360809260ff60009560405194855216868401526040830152606082015282805260015afa15610709576000516001600160a01b038116156109d25790600090600090565b50600090600190600090565b5050506000916003919056fea2646970667358221220a98e7f284839a33e315113d07d9a585968600e640af106a4931edf7b05d34e2664736f6c634300081a0033",
        "nonce": "0x12",
        "chainId": "0x13882"
      },
      "additionalContracts": [],
      "isFixedGasLimit": false
    },
    {
      "hash": "0xde5427399990ad1889f52b7ea0dc3b3d109a841e66c6338986786eba7ad7d6be",
      "transactionType": "CALL",
      "contractName": "SkateGateway",
      "contractAddress": "0x02856b036d41b4299ccbb7a9280c0b09a9988a21",
      "function": "setExecutorRegistry(address)",
      "arguments": [
        "0x44bD74B62739de2412b617FD9B2Ee85C998B1494"
      ],
      "transaction": {
        "from": "0x00e3cc76da72cf673e4429e2d527388956af61ef",
        "to": "0x02856b036d41b4299ccbb7a9280c0b09a9988a21",
        "gas": "0x10bd4",
        "value": "0x0",
        "input": "0xd8e4c8d100000000000000000000000044bd74b62739de2412b617fd9b2ee85c998b1494",
        "nonce": "0x13",
        "chainId": "0x13882"
      },
      "additionalContracts": [],
      "isFixedGasLimit": false
    },
    {
      "hash": "0x099401e272efa77361daa02ff58cfd0e1f6c07f46e5182d462ade5752597a920",
      "transactionType": "CREATE",
      "contractName": "SkateNFTPeriphery",
      "contractAddress": "0x637ca48d54370b192709cbcc12ef9dc58bc51326",
      "function": null,
      "arguments": null,
      "transaction": {
        "from": "0x00e3cc76da72cf673e4429e2d527388956af61ef",
        "gas": "0x14cde3",
        "value": "0x0",
        "input": "0x60a080604052346100ea57306080527ff0c57e16840df040f15088dc2f81fe391c3923bec73e23a9662efc9c229c6a005460ff8160401c166100d9576002600160401b03196001600160401b03821601610073575b60405161118f90816100f0823960805181818161031c01526103c20152f35b6001600160401b0319166001600160401b039081177ff0c57e16840df040f15088dc2f81fe391c3923bec73e23a9662efc9c229c6a005581527fc7f505b2f371ae2175ee4913f4499e1f2633a7b5936321eed1cdaeb6115181d290602090a13880610054565b63f92ee8a960e01b60005260046000fd5b600080fdfe6080604052600436101561001257600080fd5b60003560e01c806306fdde0314610dbc578063077f224a1461089b5780630e89341c146107f3578063116191b6146107ca57806340c10f19146106f35780634281db0d146105885780634f1ef2861461037357806352d1902d146103095780636352211e146102d557806370a082311461029b578063715018a6146102315780638da5cb5b146101fb57806395d89b4114610134578063ad3cb1cc146100f15763f2fde38b146100c157600080fd5b346100ec5760203660031901126100ec576100ea6100dd610f2e565b6100e5610ff4565b610f7e565b005b600080fd5b346100ec5760003660031901126100ec5761013060408051906101148183610e9b565b60058252640352e302e360dc1b60208301525191829182610e52565b0390f35b346100ec5760003660031901126100ec57604051600060025461015681610f44565b80845290600181169081156101d7575060011461018a575b6101308361017e81850382610e9b565b60405191829182610e52565b600260009081526000805160206110ba833981519152939250905b8082106101bd5750909150810160200161017e61016e565b9192600181602092548385880101520191019092916101a5565b60ff191660208086019190915291151560051b8401909101915061017e905061016e565b346100ec5760003660031901126100ec576000805160206110da833981519152546040516001600160a01b039091168152602090f35b346100ec5760003660031901126100ec5761024a610ff4565b6000805160206110da83398151915280546001600160a01b031981169091556000906001600160a01b03167f8be0079c531659141344cd1fd0a4f28419497f9722a3daafe3b4186f6b6457e08280a3005b346100ec5760203660031901126100ec576001600160a01b036102bc610f2e565b1660005260036020526020604060002054604051908152f35b346100ec5760203660031901126100ec576004356000526004602052602060018060a01b0360406000205416604051908152f35b346100ec5760003660031901126100ec577f00000000000000000000000000000000000000000000000000000000000000006001600160a01b031630036103625760206040516000805160206110fa8339815191528152f35b63703e46dd60e11b60005260046000fd5b60403660031901126100ec57610387610f2e565b60243567ffffffffffffffff81116100ec57366023820112156100ec576103b8903690602481600401359101610ed9565b6001600160a01b037f000000000000000000000000000000000000000000000000000000000000000016308114908115610565575b50610362576103fa610ff4565b6040516352d1902d60e01b81526001600160a01b0383169290602081600481875afa60009181610531575b5061043f5783634c9c8ce360e01b60005260045260246000fd5b806000805160206110fa83398151915285920361051d5750813b15610509576000805160206110fa83398151915280546001600160a01b031916821790557fbc7cd75a20ee27fd9adebab32041f755214dbc6bffa90cc0225b39da2e5c2d3b600080a28151156104ef576000808360206100ea95519101845af43d156104e7573d916104ca83610ebd565b926104d86040519485610e9b565b83523d6000602085013e611058565b606091611058565b5050346104f857005b63b398979f60e01b60005260046000fd5b634c9c8ce360e01b60005260045260246000fd5b632a87526960e21b60005260045260246000fd5b9091506020813d60201161055d575b8161054d60209383610e9b565b810103126100ec57519085610425565b3d9150610540565b6000805160206110fa833981519152546001600160a01b031614159050836103ed565b346100ec5760203660031901126100ec576105a1610f2e565b60008051602061113a833981519152549060ff8260401c16159167ffffffffffffffff8116801590816106eb575b60011490816106e1575b1590816106d8575b506106c75767ffffffffffffffff19811660011760008051602061113a833981519152558261069a575b5061061461102a565b61061c61102a565b61062533610f7e565b60018060a01b03166001600160601b0360a01b600054161760005561064657005b60ff60401b1960008051602061113a833981519152541660008051602061113a833981519152557fc7f505b2f371ae2175ee4913f4499e1f2633a7b5936321eed1cdaeb6115181d2602060405160018152a1005b68ffffffffffffffffff1916680100000000000000011760008051602061113a833981519152558261060b565b63f92ee8a960e01b60005260046000fd5b905015846105e1565b303b1591506105d9565b8491506105cf565b346100ec5760403660031901126100ec5761070c610f2e565b60005460243591906001600160a01b031633036107b95760018060a01b0316806000526003602052604060002090815492600184018094116107a3577fddf252ad1be2c89b69c2b068fc378daa952ba7f163c4a11628f55a4df523b3ef93606093558060005260046020526040600020826001600160601b0360a01b825416179055604051916000835260208301526040820152a1005b634e487b7160e01b600052601160045260246000fd5b6311380f4d60e11b60005260046000fd5b346100ec5760003660031901126100ec576000546040516001600160a01b039091168152602090f35b346100ec5760203660031901126100ec57604051600060055461081581610f44565b80845290600181169081156101d7575060011461083c576101308361017e81850382610e9b565b600560009081527f036b6384b5eca791c62761152d0c79bb0604c104a5fb6f4eb0703f3154bb3db0939250905b8082106108815750909150810160200161017e61016e565b919260018160209254838588010152019101909291610869565b346100ec5760603660031901126100ec5760043567ffffffffffffffff81116100ec576108cc903690600401610f10565b60243567ffffffffffffffff81116100ec576108ec903690600401610f10565b6044356001600160a01b038116908190036100ec5760008051602061113a833981519152549060ff8260401c16159167ffffffffffffffff811680159081610db4575b6001149081610daa575b159081610da1575b506106c75767ffffffffffffffff19811660011760008051602061113a8339815191525582610d74575b5061097461102a565b61097c61102a565b60017f9b779b17422d0df92223018b32b4d1fa46e071723d6817e2486d003becc55f005560008051602061113a833981519152549060ff8260401c16159167ffffffffffffffff811680159081610d6c575b6001149081610d62575b159081610d59575b506106c75767ffffffffffffffff19811660011760008051602061113a8339815191525582610d2c575b50610a1361102a565b610a1b61102a565b610a2433610f7e565b6001600160601b0360a01b6000541617600055610cd5575b825167ffffffffffffffff8111610bd557610a58600154610f44565b601f8111610c68575b506020601f8211600114610bf65781929394600092610beb575b50508160011b916000199060031b1c1916176001555b815167ffffffffffffffff8111610bd557610aad600254610f44565b601f8111610b68575b50602092601f8211600114610af85792819293600092610aed575b50508160011b916000199060031b1c1916176002555b61064657005b015190508380610ad1565b601f1982169360026000526000805160206110ba8339815191529160005b868110610b505750836001959610610b37575b505050811b01600255610ae7565b015160001960f88460031b161c19169055838080610b29565b91926020600181928685015181550194019201610b16565b6002600052601f820160051c6000805160206110ba833981519152019060208310610bbf575b601f0160051c6000805160206110ba83398151915201905b818110610bb35750610ab6565b60008155600101610ba6565b6000805160206110ba8339815191529150610b8e565b634e487b7160e01b600052604160045260246000fd5b015190508480610a7b565b601f19821690600160005260008051602061111a8339815191529160005b818110610c5057509583600195969710610c37575b505050811b01600155610a91565b015160001960f88460031b161c19169055848080610c29565b9192602060018192868b015181550194019201610c14565b6001600052601f820160051c60008051602061111a833981519152019060208310610cbf575b601f0160051c60008051602061111a83398151915201905b818110610cb35750610a61565b60008155600101610ca6565b60008051602061111a8339815191529150610c8e565b60ff60401b1960008051602061113a833981519152541660008051602061113a833981519152557fc7f505b2f371ae2175ee4913f4499e1f2633a7b5936321eed1cdaeb6115181d2602060405160018152a1610a3c565b68ffffffffffffffffff1916680100000000000000011760008051602061113a8339815191525585610a0a565b905015876109e0565b303b1591506109d8565b8491506109ce565b68ffffffffffffffffff1916680100000000000000011760008051602061113a833981519152558461096b565b90501586610941565b303b159150610939565b84915061092f565b346100ec5760003660031901126100ec576040516000600154610dde81610f44565b80845290600181169081156101d75750600114610e05576101308361017e81850382610e9b565b6001600090815260008051602061111a833981519152939250905b808210610e385750909150810160200161017e61016e565b919260018160209254838588010152019101909291610e20565b91909160208152825180602083015260005b818110610e85575060409293506000838284010152601f8019910116010190565b8060208092870101516040828601015201610e64565b90601f8019910116810190811067ffffffffffffffff821117610bd557604052565b67ffffffffffffffff8111610bd557601f01601f191660200190565b929192610ee582610ebd565b91610ef36040519384610e9b565b8294818452818301116100ec578281602093846000960137010152565b9080601f830112156100ec57816020610f2b93359101610ed9565b90565b600435906001600160a01b03821682036100ec57565b90600182811c92168015610f74575b6020831014610f5e57565b634e487b7160e01b600052602260045260246000fd5b91607f1691610f53565b6001600160a01b03168015610fde576000805160206110da83398151915280546001600160a01b0319811683179091556001600160a01b03167f8be0079c531659141344cd1fd0a4f28419497f9722a3daafe3b4186f6b6457e0600080a3565b631e4fbdf760e01b600052600060045260246000fd5b6000805160206110da833981519152546001600160a01b0316330361101557565b63118cdaa760e01b6000523360045260246000fd5b60ff60008051602061113a8339815191525460401c161561104757565b631afcd79f60e31b60005260046000fd5b9061107e575080511561106d57805190602001fd5b630a12f52160e11b60005260046000fd5b815115806110b0575b61108f575090565b639996b31560e01b60009081526001600160a01b0391909116600452602490fd5b50803b1561108756fe405787fa12a823e0f2b7631cc41b3ba8828b3321ca811111fa75cd3aa3bb5ace9016d09d72d40fdae2fd8ceac6b6234c7706214fd39c1cd1e609a0528c199300360894a13ba1a3210667c828492db98dca3e2076cc3735a920a3ca505d382bbcb10e2d527612073b26eecdfd717e6a320cf44b4afac2b0732d9fcbe2b7fa0cf6f0c57e16840df040f15088dc2f81fe391c3923bec73e23a9662efc9c229c6a00a264697066735822122099c97d32016dbaa1a8bb3cd71fda66afbd2590abffda9dfac91ab276ab144b2764736f6c634300081a0033",
        "nonce": "0x14",
        "chainId": "0x13882"
      },
      "additionalContracts": [],
      "isFixedGasLimit": false
    },
    {
      "hash": "0x792359b7333f100ab6efc54b01c4ec377aa9a18d6fadaeae4fc5159c57853802",
      "transactionType": "CREATE",
      "contractName": "ERC1967Proxy",
      "contractAddress": "0x591b7bceed907142f3b6e3be7cd81df48ac322a4",
      "function": null,
      "arguments": [
        "0x637ca48d54370b192709CBcc12Ef9Dc58Bc51326",
        "0x077f224a000000000000000000000000000000000000000000000000000000000000006000000000000000000000000000000000000000000000000000000000000000a000000000000000000000000002856b036d41b4299ccbb7a9280c0b09a9988a210000000000000000000000000000000000000000000000000000000000000013536b617465204e465420506572697068657279000000000000000000000000000000000000000000000000000000000000000000000000000000000000000003534e500000000000000000000000000000000000000000000000000000000000"
      ],
      "transaction": {
        "from": "0x00e3cc76da72cf673e4429e2d527388956af61ef",
        "gas": "0x5279c",
        "value": "0x0",
        "input": "0x60806040526102c68038038061001481610188565b928339810190604081830312610183578051906001600160a01b03821690818303610183576020810151906001600160401b038211610183570183601f820112156101835780519061006d610068836101c3565b610188565b94828652602083830101116101835760005b82811061016e575050602060009185010152813b1561015a577f360894a13ba1a3210667c828492db98dca3e2076cc3735a920a3ca505d382bbc80546001600160a01b031916821790557fbc7cd75a20ee27fd9adebab32041f755214dbc6bffa90cc0225b39da2e5c2d3b600080a28151156101415760008083602061012995519101845af43d15610139573d91610119610068846101c3565b9283523d6000602085013e6101de565b505b604051608690816102408239f35b6060916101de565b5050341561012b5763b398979f60e01b60005260046000fd5b634c9c8ce360e01b60005260045260246000fd5b8060208092840101518282890101520161007f565b600080fd5b6040519190601f01601f191682016001600160401b038111838210176101ad57604052565b634e487b7160e01b600052604160045260246000fd5b6001600160401b0381116101ad57601f01601f191660200190565b9061020457508051156101f357805190602001fd5b630a12f52160e11b60005260046000fd5b81511580610236575b610215575090565b639996b31560e01b60009081526001600160a01b0391909116600452602490fd5b50803b1561020d56fe60806040527f360894a13ba1a3210667c828492db98dca3e2076cc3735a920a3ca505d382bbc5460009081906001600160a01b0316368280378136915af43d6000803e15604b573d6000f35b3d6000fdfea2646970667358221220dad857d4a283395cbc02d2d3d9570e5beebbe88634930cd3a091dbf19365c2bd64736f6c634300081a0033000000000000000000000000637ca48d54370b192709cbcc12ef9dc58bc51326000000000000000000000000000000000000000000000000000000000000004000000000000000000000000000000000000000000000000000000000000000e4077f224a000000000000000000000000000000000000000000000000000000000000006000000000000000000000000000000000000000000000000000000000000000a000000000000000000000000002856b036d41b4299ccbb7a9280c0b09a9988a210000000000000000000000000000000000000000000000000000000000000013536b617465204e465420506572697068657279000000000000000000000000000000000000000000000000000000000000000000000000000000000000000003534e50000000000000000000000000000000000000000000000000000000000000000000000000000000000000000000000000000000000000000000",
        "nonce": "0x15",
        "chainId": "0x13882"
      },
      "additionalContracts": [],
      "isFixedGasLimit": false
    }
  ],
  "receipts": [
    {
      "status": "0x1",
      "cumulativeGasUsed": "0x772f0",
      "logs": [
        {
          "address": "0x44bd74b62739de2412b617fd9b2ee85c998b1494",
          "topics": [
            "0x8be0079c531659141344cd1fd0a4f28419497f9722a3daafe3b4186f6b6457e0",
            "0x0000000000000000000000000000000000000000000000000000000000000000",
            "0x00000000000000000000000000e3cc76da72cf673e4429e2d527388956af61ef"
          ],
          "data": "0x",
          "blockHash": "0x2e846d57a2306a2732b6e5177008f3827ecf6d7647b514733548ac888e30f9c1",
          "blockNumber": "0x85e2eb",
          "transactionHash": "0x93601a3123e0dbd676f5f814c4264212723c12ce89e11dd346dd33d5eb5196f6",
          "transactionIndex": "0x2",
          "logIndex": "0x4",
          "removed": false
        },
        {
          "address": "0x0000000000000000000000000000000000001010",
          "topics": [
            "0x4dfe1bbbcf077ddc3e01291eea2d5c70c2b422b415d95645b9adcfd678cb1d63",
            "0x0000000000000000000000000000000000000000000000000000000000001010",
            "0x00000000000000000000000000e3cc76da72cf673e4429e2d527388956af61ef",
            "0x00000000000000000000000009207a6efee346cb3e4a54ac18523e3715d38b3f"
          ],
          "data": "0x000000000000000000000000000000000000000000000000002b02a63c6a8a000000000000000000000000000000000000000000000000011310b2308792010f000000000000000000000000000000000000000000000141a61aa0ffeb9e197700000000000000000000000000000000000000000000000112e5af8a4b27770f000000000000000000000000000000000000000000000141a645a3a62808a377",
          "blockHash": "0x2e846d57a2306a2732b6e5177008f3827ecf6d7647b514733548ac888e30f9c1",
          "blockNumber": "0x85e2eb",
          "transactionHash": "0x93601a3123e0dbd676f5f814c4264212723c12ce89e11dd346dd33d5eb5196f6",
          "transactionIndex": "0x2",
          "logIndex": "0x5",
          "removed": false
        }
      ],
      "logsBloom": "0x00000000000008000000000000000000000000000000000000800000000000000000000000000000000000000000000000008000000000000000010000000000000000000000000000000000000000900001400000000000000100000000000000000000020000000000000000000800000000000000000080000000000000400000000000000000000000000000000000004000000000000080000000000000200000000000000000000000000000000000000000000000000000000002004000000000000000000001000000000000000000000000000000100000000020000000000000000010000000010000000000000000000000000000000000100000",
      "type": "0x2",
      "transactionHash": "0x93601a3123e0dbd676f5f814c4264212723c12ce89e11dd346dd33d5eb5196f6",
      "transactionIndex": "0x2",
      "blockHash": "0x2e846d57a2306a2732b6e5177008f3827ecf6d7647b514733548ac888e30f9c1",
      "blockNumber": "0x85e2eb",
      "gasUsed": "0x5f57f",
      "effectiveGasPrice": "0x737be760f",
      "from": "0x00e3cc76da72cf673e4429e2d527388956af61ef",
      "to": null,
      "contractAddress": "0x44bd74b62739de2412b617fd9b2ee85c998b1494"
    },
    {
      "status": "0x1",
      "cumulativeGasUsed": "0x8d94b",
      "logs": [
        {
          "address": "0x44bd74b62739de2412b617fd9b2ee85c998b1494",
          "topics": [
            "0xae5b7c3b000f575c241001dc9bcb3d8778376889353b07121115574eceff78c5"
          ],
          "data": "0x00000000000000000000000000e3cc76da72cf673e4429e2d527388956af61ef",
          "blockHash": "0x2e846d57a2306a2732b6e5177008f3827ecf6d7647b514733548ac888e30f9c1",
          "blockNumber": "0x85e2eb",
          "transactionHash": "0x4c5244bab1b50ecb832fadc009dc5802b9e87b41c6e9836c32adfe76c4231020",
          "transactionIndex": "0x3",
          "logIndex": "0x6",
          "removed": false
        },
        {
          "address": "0x0000000000000000000000000000000000001010",
          "topics": [
            "0x4dfe1bbbcf077ddc3e01291eea2d5c70c2b422b415d95645b9adcfd678cb1d63",
            "0x0000000000000000000000000000000000000000000000000000000000001010",
            "0x00000000000000000000000000e3cc76da72cf673e4429e2d527388956af61ef",
            "0x00000000000000000000000009207a6efee346cb3e4a54ac18523e3715d38b3f"
          ],
          "data": "0x000000000000000000000000000000000000000000000000000a1a8529b7f20000000000000000000000000000000000000000000000000112e5af8a4ace149e000000000000000000000000000000000000000000000141a645a3a62808a37700000000000000000000000000000000000000000000000112db95052116229e000000000000000000000000000000000000000000000141a64fbe2b51c09577",
          "blockHash": "0x2e846d57a2306a2732b6e5177008f3827ecf6d7647b514733548ac888e30f9c1",
          "blockNumber": "0x85e2eb",
          "transactionHash": "0x4c5244bab1b50ecb832fadc009dc5802b9e87b41c6e9836c32adfe76c4231020",
          "transactionIndex": "0x3",
          "logIndex": "0x7",
          "removed": false
        }
      ],
      "logsBloom": "0x00000000000008000000000000000000000000000000000000000000000000000000000000000000000000000000000000008000000000000000010000002000000000000000000004000000000000900000400000000000000100000000000000000000000000000000000000000000000000000000000080000000000000000000000000000000000000000000000000004000000000000080000000000000200000000000000000000000000000000000000000000000000000000002004000000000000000000001000000000000000000000000000000100000000000000000000200000010000000010000000000000000000000000000000000100000",
      "type": "0x2",
      "transactionHash": "0x4c5244bab1b50ecb832fadc009dc5802b9e87b41c6e9836c32adfe76c4231020",
      "transactionIndex": "0x3",
      "blockHash": "0x2e846d57a2306a2732b6e5177008f3827ecf6d7647b514733548ac888e30f9c1",
      "blockNumber": "0x85e2eb",
      "gasUsed": "0x1665b",
      "effectiveGasPrice": "0x737be760f",
      "from": "0x00e3cc76da72cf673e4429e2d527388956af61ef",
      "to": "0x44bd74b62739de2412b617fd9b2ee85c998b1494",
      "contractAddress": null
    },
    {
      "status": "0x1",
      "cumulativeGasUsed": "0x1294e4",
      "logs": [
        {
          "address": "0x02856b036d41b4299ccbb7a9280c0b09a9988a21",
          "topics": [
            "0x8be0079c531659141344cd1fd0a4f28419497f9722a3daafe3b4186f6b6457e0",
            "0x0000000000000000000000000000000000000000000000000000000000000000",
            "0x00000000000000000000000000e3cc76da72cf673e4429e2d527388956af61ef"
          ],
          "data": "0x",
          "blockHash": "0x2e846d57a2306a2732b6e5177008f3827ecf6d7647b514733548ac888e30f9c1",
          "blockNumber": "0x85e2eb",
          "transactionHash": "0x0ab6837f7f7ecaa5c3e7b9962ee49113b0b3ca35e0743339dca02626908ecc72",
          "transactionIndex": "0x4",
          "logIndex": "0x8",
          "removed": false
        },
        {
          "address": "0x0000000000000000000000000000000000001010",
          "topics": [
            "0x4dfe1bbbcf077ddc3e01291eea2d5c70c2b422b415d95645b9adcfd678cb1d63",
            "0x0000000000000000000000000000000000000000000000000000000000001010",
            "0x00000000000000000000000000e3cc76da72cf673e4429e2d527388956af61ef",
            "0x00000000000000000000000009207a6efee346cb3e4a54ac18523e3715d38b3f"
          ],
          "data": "0x00000000000000000000000000000000000000000000000000463fba9706860000000000000000000000000000000000000000000000000112db950521012349000000000000000000000000000000000000000000000141a64fbe2b51c095770000000000000000000000000000000000000000000000011295554a89fa9d49000000000000000000000000000000000000000000000141a695fde5e8c71b77",
          "blockHash": "0x2e846d57a2306a2732b6e5177008f3827ecf6d7647b514733548ac888e30f9c1",
          "blockNumber": "0x85e2eb",
          "transactionHash": "0x0ab6837f7f7ecaa5c3e7b9962ee49113b0b3ca35e0743339dca02626908ecc72",
          "transactionIndex": "0x4",
          "logIndex": "0x9",
          "removed": false
        }
      ],
      "logsBloom": "0x00000000000000000000000000000000000000000000000000800000000000000000000000000000000000000000000000008000000000000000010000000000000000000000000000000000000000900001400000000000000100000000000000000020020000000000000000000800000000000000000080000000000000400000000000000000000000000000000000004000000000000000000000000000200000000000000000000000000000000000000000000000000000000000004000000000000000000001000000000000010000000000000000100000000020000000000000000010000000010000000000000000000001000000000000100000",
      "type": "0x2",
      "transactionHash": "0x0ab6837f7f7ecaa5c3e7b9962ee49113b0b3ca35e0743339dca02626908ecc72",
      "transactionIndex": "0x4",
      "blockHash": "0x2e846d57a2306a2732b6e5177008f3827ecf6d7647b514733548ac888e30f9c1",
      "blockNumber": "0x85e2eb",
      "gasUsed": "0x9bb99",
      "effectiveGasPrice": "0x737be760f",
      "from": "0x00e3cc76da72cf673e4429e2d527388956af61ef",
      "to": null,
      "contractAddress": "0x02856b036d41b4299ccbb7a9280c0b09a9988a21"
    },
    {
      "status": "0x1",
      "cumulativeGasUsed": "0xb722",
      "logs": [
        {
          "address": "0x02856b036d41b4299ccbb7a9280c0b09a9988a21",
          "topics": [
            "0xf41a32676cdfb585971e77972d6f5616110b40f1f99b0991ead5cc0bcad3791a"
          ],
          "data": "0x",
          "blockHash": "0x93f2a09a519149935d0ba8283dec1a95fdf55998a2aaf05138406377e4073ece",
          "blockNumber": "0x85e2ec",
          "transactionHash": "0xde5427399990ad1889f52b7ea0dc3b3d109a841e66c6338986786eba7ad7d6be",
          "transactionIndex": "0x0",
          "logIndex": "0x0",
          "removed": false
        },
        {
          "address": "0x0000000000000000000000000000000000001010",
          "topics": [
            "0x4dfe1bbbcf077ddc3e01291eea2d5c70c2b422b415d95645b9adcfd678cb1d63",
            "0x0000000000000000000000000000000000000000000000000000000000001010",
            "0x00000000000000000000000000e3cc76da72cf673e4429e2d527388956af61ef",
            "0x00000000000000000000000009207a6efee346cb3e4a54ac18523e3715d38b3f"
          ],
          "data": "0x000000000000000000000000000000000000000000000000000529ce8da5ac000000000000000000000000000000000000000000000000011295554a89689f52000000000000000000000000000000000000000000000141a695fde5e8c71b7700000000000000000000000000000000000000000000000112902b7bfbc2f352000000000000000000000000000000000000000000000141a69b27b4766cc777",
          "blockHash": "0x93f2a09a519149935d0ba8283dec1a95fdf55998a2aaf05138406377e4073ece",
          "blockNumber": "0x85e2ec",
          "transactionHash": "0xde5427399990ad1889f52b7ea0dc3b3d109a841e66c6338986786eba7ad7d6be",
          "transactionIndex": "0x0",
          "logIndex": "0x1",
          "removed": false
        }
      ],
      "logsBloom": "0x00000000000000000000000000000000000000000000000000000000000000000000000000100000000000000000000001008000000000000000010000000000000000000000000000000000000000900000400000000000000100000000000000000020000000000000000000000000000000000000000080000000000000000000000000000000000000000000000000004000000000000000000000000000200000000000000000000000000000000000000000000000000000000000004000000000000000000101000000000000010000000000000000100000000000000000000000000010000000010000000000000000000001000000000000100000",
      "type": "0x2",
      "transactionHash": "0xde5427399990ad1889f52b7ea0dc3b3d109a841e66c6338986786eba7ad7d6be",
      "transactionIndex": "0x0",
      "blockHash": "0x93f2a09a519149935d0ba8283dec1a95fdf55998a2aaf05138406377e4073ece",
      "blockNumber": "0x85e2ec",
      "gasUsed": "0xb722",
      "effectiveGasPrice": "0x737be760f",
      "from": "0x00e3cc76da72cf673e4429e2d527388956af61ef",
      "to": "0x02856b036d41b4299ccbb7a9280c0b09a9988a21",
      "contractAddress": null
    },
    {
      "status": "0x1",
      "cumulativeGasUsed": "0x10b920",
      "logs": [
        {
          "address": "0x637ca48d54370b192709cbcc12ef9dc58bc51326",
          "topics": [
            "0xc7f505b2f371ae2175ee4913f4499e1f2633a7b5936321eed1cdaeb6115181d2"
          ],
          "data": "0x000000000000000000000000000000000000000000000000ffffffffffffffff",
          "blockHash": "0x93f2a09a519149935d0ba8283dec1a95fdf55998a2aaf05138406377e4073ece",
          "blockNumber": "0x85e2ec",
          "transactionHash": "0x099401e272efa77361daa02ff58cfd0e1f6c07f46e5182d462ade5752597a920",
          "transactionIndex": "0x1",
          "logIndex": "0x2",
          "removed": false
        },
        {
          "address": "0x0000000000000000000000000000000000001010",
          "topics": [
            "0x4dfe1bbbcf077ddc3e01291eea2d5c70c2b422b415d95645b9adcfd678cb1d63",
            "0x0000000000000000000000000000000000000000000000000000000000001010",
            "0x00000000000000000000000000e3cc76da72cf673e4429e2d527388956af61ef",
            "0x00000000000000000000000009207a6efee346cb3e4a54ac18523e3715d38b3f"
          ],
          "data": "0x00000000000000000000000000000000000000000000000000738a486d6f140000000000000000000000000000000000000000000000000112902b7bfbb83854000000000000000000000000000000000000000000000141a69b27b4766cc777000000000000000000000000000000000000000000000001121ca1338e492454000000000000000000000000000000000000000000000141a70eb1fce3dbdb77",
          "blockHash": "0x93f2a09a519149935d0ba8283dec1a95fdf55998a2aaf05138406377e4073ece",
          "blockNumber": "0x85e2ec",
          "transactionHash": "0x099401e272efa77361daa02ff58cfd0e1f6c07f46e5182d462ade5752597a920",
          "transactionIndex": "0x1",
          "logIndex": "0x3",
          "removed": false
        }
      ],
      "logsBloom": "0x00000000000000000000000000000000000000000000000000000000000000000800000000000000000000000000000000008000000000000000010000000000000000000000000000000000000000900000400000002000000100000000000000000000000000000000000000000000000000000000000080000000000000000000000000000000000800000000000000004000000080000000000000000000200000000000000000000000000000000000000000000000000000000000004000000000000000000001000000000000000000000004020000100000000000000000000000000010000000010000000000000000000000000000000000100000",
      "type": "0x2",
      "transactionHash": "0x099401e272efa77361daa02ff58cfd0e1f6c07f46e5182d462ade5752597a920",
      "transactionIndex": "0x1",
      "blockHash": "0x93f2a09a519149935d0ba8283dec1a95fdf55998a2aaf05138406377e4073ece",
      "blockNumber": "0x85e2ec",
      "gasUsed": "0x1001fe",
      "effectiveGasPrice": "0x737be760f",
      "from": "0x00e3cc76da72cf673e4429e2d527388956af61ef",
      "to": null,
      "contractAddress": "0x637ca48d54370b192709cbcc12ef9dc58bc51326"
    },
    {
      "status": "0x1",
      "cumulativeGasUsed": "0x14b07a",
      "logs": [
        {
          "address": "0x591b7bceed907142f3b6e3be7cd81df48ac322a4",
          "topics": [
            "0xbc7cd75a20ee27fd9adebab32041f755214dbc6bffa90cc0225b39da2e5c2d3b",
            "0x000000000000000000000000637ca48d54370b192709cbcc12ef9dc58bc51326"
          ],
          "data": "0x",
          "blockHash": "0x93f2a09a519149935d0ba8283dec1a95fdf55998a2aaf05138406377e4073ece",
          "blockNumber": "0x85e2ec",
          "transactionHash": "0x792359b7333f100ab6efc54b01c4ec377aa9a18d6fadaeae4fc5159c57853802",
          "transactionIndex": "0x2",
          "logIndex": "0x4",
          "removed": false
        },
        {
          "address": "0x591b7bceed907142f3b6e3be7cd81df48ac322a4",
          "topics": [
            "0x8be0079c531659141344cd1fd0a4f28419497f9722a3daafe3b4186f6b6457e0",
            "0x0000000000000000000000000000000000000000000000000000000000000000",
            "0x00000000000000000000000000e3cc76da72cf673e4429e2d527388956af61ef"
          ],
          "data": "0x",
          "blockHash": "0x93f2a09a519149935d0ba8283dec1a95fdf55998a2aaf05138406377e4073ece",
          "blockNumber": "0x85e2ec",
          "transactionHash": "0x792359b7333f100ab6efc54b01c4ec377aa9a18d6fadaeae4fc5159c57853802",
          "transactionIndex": "0x2",
          "logIndex": "0x5",
          "removed": false
        },
        {
          "address": "0x591b7bceed907142f3b6e3be7cd81df48ac322a4",
          "topics": [
            "0xc7f505b2f371ae2175ee4913f4499e1f2633a7b5936321eed1cdaeb6115181d2"
          ],
          "data": "0x0000000000000000000000000000000000000000000000000000000000000001",
          "blockHash": "0x93f2a09a519149935d0ba8283dec1a95fdf55998a2aaf05138406377e4073ece",
          "blockNumber": "0x85e2ec",
          "transactionHash": "0x792359b7333f100ab6efc54b01c4ec377aa9a18d6fadaeae4fc5159c57853802",
          "transactionIndex": "0x2",
          "logIndex": "0x6",
          "removed": false
        },
        {
          "address": "0x0000000000000000000000000000000000001010",
          "topics": [
            "0x4dfe1bbbcf077ddc3e01291eea2d5c70c2b422b415d95645b9adcfd678cb1d63",
            "0x0000000000000000000000000000000000000000000000000000000000001010",
            "0x00000000000000000000000000e3cc76da72cf673e4429e2d527388956af61ef",
            "0x00000000000000000000000009207a6efee346cb3e4a54ac18523e3715d38b3f"
          ],
          "data": "0x000000000000000000000000000000000000000000000000001ca08dbecf7c00000000000000000000000000000000000000000000000001121ca1338d590672000000000000000000000000000000000000000000000141a70eb1fce3dbdb77000000000000000000000000000000000000000000000001120000a5ce898a72000000000000000000000000000000000000000000000141a72b528aa2ab5777",
          "blockHash": "0x93f2a09a519149935d0ba8283dec1a95fdf55998a2aaf05138406377e4073ece",
          "blockNumber": "0x85e2ec",
          "transactionHash": "0x792359b7333f100ab6efc54b01c4ec377aa9a18d6fadaeae4fc5159c57853802",
          "transactionIndex": "0x2",
          "logIndex": "0x7",
          "removed": false
        }
      ],
      "logsBloom": "0x04000000000000000000000000000000400000000000000000800000000000000000000000000000000000000000000000008000000000000000010000000000000080000000000000000000000002900001400000000000000100000000000000000000020000000000000000100800000000000000000080000000000000400000000000000000000800000000000000004000080080000000000000000000200000000000000000000000000000000000000000000000000000000000004000000020000000000001080000000000000000000004000000100000000020000000000000000010000000010000000000000000008000000000000000100000",
      "type": "0x2",
      "transactionHash": "0x792359b7333f100ab6efc54b01c4ec377aa9a18d6fadaeae4fc5159c57853802",
      "transactionIndex": "0x2",
      "blockHash": "0x93f2a09a519149935d0ba8283dec1a95fdf55998a2aaf05138406377e4073ece",
      "blockNumber": "0x85e2ec",
      "gasUsed": "0x3f75a",
      "effectiveGasPrice": "0x737be760f",
      "from": "0x00e3cc76da72cf673e4429e2d527388956af61ef",
      "to": null,
      "contractAddress": "0x591b7bceed907142f3b6e3be7cd81df48ac322a4"
    }
  ],
  "libraries": [],
  "pending": [],
  "returns": {},
  "timestamp": 1719470664,
  "chain": 80002,
  "commit": "9753a12"
}