{
  "transactions": [
    {
      "hash": "0x47024ea3d38485c409e553f809045586c1925ed248651b1e4277af3ac8abe1a4",
      "transactionType": "CALL",
      "contractName": null,
      "contractAddress": "0xf2660c5fcb08b02888f32f89a94baf0169fdfb01",
      "function": "setSigner(address)",
      "arguments": [
        "0x1ec3E56cbE71Db52A44ff2A635c468CAF1Bc77B7"
      ],
      "transaction": {
        "from": "0x00e3cc76da72cf673e4429e2d527388956af61ef",
        "to": "0xf2660c5fcb08b02888f32f89a94baf0169fdfb01",
        "gas": "0xfddd",
        "value": "0x0",
        "input": "0x6c19e7830000000000000000000000001ec3e56cbe71db52a44ff2a635c468caf1bc77b7",
        "nonce": "0x10",
        "chainId": "0x14a34"
      },
      "additionalContracts": [],
      "isFixedGasLimit": false
    }
  ],
  "receipts": [
    {
      "status": "0x1",
      "cumulativeGasUsed": "0x4ddcc1",
      "logs": [
        {
          "address": "0xf2660c5fcb08b02888f32f89a94baf0169fdfb01",
          "topics": [
            "0x9eaa897564d022fb8c5efaf0acdb5d9d27b440b2aad44400b6e1c702e65b9ed3"
          ],
          "data": "0x0000000000000000000000001ec3e56cbe71db52a44ff2a635c468caf1bc77b7",
          "blockHash": "0x716a4a7935f70fae79649694c05f340959afb9cbb1dd56135b8055da02f6d753",
          "blockNumber": "0xb59398",
          "transactionHash": "0x47024ea3d38485c409e553f809045586c1925ed248651b1e4277af3ac8abe1a4",
          "transactionIndex": "0x8",
          "logIndex": "0x6b",
          "removed": false
        }
      ],
      "logsBloom": "0x00000000000000400000000000000000000000000000000000000000000000000000000000000000000000000000000000000000000000000000000000000000000000000000000000000000000000000000000000000000000000000000000000000000000000000004000000080000000000000000000000000000000000000000000000000000000000000000000000000000000000000000000000400000000000000000000000000000000000000000000000000000000000000000000000000000000000000000000000000000000000000400000000000000000000000000000000000000000000000000040000000000000000000000000000000000",
      "type": "0x2",
      "transactionHash": "0x47024ea3d38485c409e553f809045586c1925ed248651b1e4277af3ac8abe1a4",
      "transactionIndex": "0x8",
      "blockHash": "0x716a4a7935f70fae79649694c05f340959afb9cbb1dd56135b8055da02f6d753",
      "blockNumber": "0xb59398",
      "gasUsed": "0xb7cc",
      "effectiveGasPrice": "0x10cdf4",
      "from": "0x00e3cc76da72cf673e4429e2d527388956af61ef",
      "to": "0xf2660c5fcb08b02888f32f89a94baf0169fdfb01",
      "contractAddress": null,
      "l1BaseFeeScalar": "0x44d",
      "l1BlobBaseFee": "0x1",
      "l1BlobBaseFeeScalar": "0xa118b",
      "l1Fee": "0x1b95d1872e",
      "l1GasPrice": "0xfa8c0a61c",
      "l1GasUsed": "0x640"
    }
  ],
  "libraries": [],
  "pending": [],
  "returns": {},
  "timestamp": 1719567894,
  "chain": 84532,
  "commit": "9753a12"
}