{
  "transactions": [
    {
      "hash": "0x0087cd1a401496a1716324d200a17e00657f0a106e8873670d830e2010224894",
      "transactionType": "CALL",
      "contractName": null,
      "contractAddress": "0x07a83dcfdb26aab3fd2214c827d2508edca32a8a",
      "function": "setSigner(address)",
      "arguments": [
        "0x1ec3E56cbE71Db52A44ff2A635c468CAF1Bc77B7"
      ],
      "transaction": {
        "from": "0x00e3cc76da72cf673e4429e2d527388956af61ef",
        "to": "0x07a83dcfdb26aab3fd2214c827d2508edca32a8a",
        "gas": "0xfddd",
        "value": "0x0",
        "input": "0x6c19e7830000000000000000000000001ec3e56cbe71db52a44ff2a635c468caf1bc77b7",
        "nonce": "0x21",
        "chainId": "0x14a34"
      },
      "additionalContracts": [],
      "isFixedGasLimit": false
    }
  ],
  "receipts": [
    {
      "status": "0x1",
      "cumulativeGasUsed": "0x30a945",
      "logs": [
        {
          "address": "0x07a83dcfdb26aab3fd2214c827d2508edca32a8a",
          "topics": [
            "0x9eaa897564d022fb8c5efaf0acdb5d9d27b440b2aad44400b6e1c702e65b9ed3"
          ],
          "data": "0x0000000000000000000000001ec3e56cbe71db52a44ff2a635c468caf1bc77b7",
          "blockHash": "0xda136b6d15fdb94fb18ad200be2f6c7d9865ddbf1bc4c077ae608eaa7eac2007",
          "blockNumber": "0xb7909c",
          "transactionHash": "0x0087cd1a401496a1716324d200a17e00657f0a106e8873670d830e2010224894",
          "transactionIndex": "0x8",
          "logIndex": "0x3e",
          "removed": false
        }
      ],
      "logsBloom": "0x00000000000000400000000000000000000000000000000000000000000000000000000000000000000000000000000000000000000000000001000000000000000000000000000000000000000000000000000000000000000000000000000000000000000000000000000000000000000000400000000000000000000000000000000000000000000000000000000000000000000000000010000000000000000000000000000000000000000000000000000000000000000000000000000000000000000000000000000000000000000000000400000000000000000000000000000000000000000000000000040000000000000000000000000000000000",
      "type": "0x2",
      "transactionHash": "0x0087cd1a401496a1716324d200a17e00657f0a106e8873670d830e2010224894",
      "transactionIndex": "0x8",
      "blockHash": "0xda136b6d15fdb94fb18ad200be2f6c7d9865ddbf1bc4c077ae608eaa7eac2007",
      "blockNumber": "0xb7909c",
      "gasUsed": "0xb7cc",
      "effectiveGasPrice": "0xf444c",
      "from": "0x00e3cc76da72cf673e4429e2d527388956af61ef",
      "to": "0x07a83dcfdb26aab3fd2214c827d2508edca32a8a",
      "contractAddress": null,
      "l1BaseFeeScalar": "0x44d",
      "l1BlobBaseFee": "0x242",
      "l1BlobBaseFeeScalar": "0xa118b",
      "l1Fee": "0xaedd1daee",
      "l1GasPrice": "0x63439a544",
      "l1GasUsed": "0x640"
    }
  ],
  "libraries": [],
  "pending": [],
  "returns": {},
  "timestamp": 1719828510,
  "chain": 84532,
  "commit": "9753a12"
}