{
  "transactions": [
    {
      "hash": "0x84e7f50c305b57441aa326dd56f6456e1a20118aca23d65f48fc7b4370b40636",
      "transactionType": "CALL",
      "contractName": null,
      "contractAddress": "0xd456dbcbf79ed12f34bc59b8c38677acac59818c",
      "function": "setChainToPeripheryContract(uint256,address)",
      "arguments": [
        "97",
        "0x474db0ce37c079b05f8D38F0046581206E38a604"
      ],
      "transaction": {
        "from": "0x00e3cc76da72cf673e4429e2d527388956af61ef",
        "to": "0xd456dbcbf79ed12f34bc59b8c38677acac59818c",
        "gas": "0x20ea1",
        "value": "0x0",
        "input": "0x5e0b30db0000000000000000000000000000000000000000000000000000000000000061000000000000000000000000474db0ce37c079b05f8d38f0046581206e38a604",
        "nonce": "0x102",
        "chainId": "0x13bb"
      },
      "additionalContracts": [],
      "isFixedGasLimit": false
    },
    {
      "hash": "0x737854de9539cf28cac1c8fda7fe2ad90b76d77c52fe2d592fa8fa536dae1aa9",
      "transactionType": "CALL",
      "contractName": null,
      "contractAddress": "0xd456dbcbf79ed12f34bc59b8c38677acac59818c",
      "function": "processIntent(((address,bytes),address,bytes))",
      "arguments": [
        "((0xd456DbCBF79Ed12F34Bc59B8C38677acAC59818c, 0x04717aca000000000000000000000000f4e5780b44147365743d8c6d978adcd15838bbd00000000000000000000000000000000000000000000002c68af0bb14000000000000000000000000000000000000000000000000000000000000000000014a34), 0xf4e5780b44147365743D8C6D978adcd15838BBd0, 0x046faf192c8b8eb270c6b7c981a3dacf2c09a4fdd970cda9417a9ab489df1f4c11b23b4cbef002a6f79f21b33bf9d4537a4e51707cc741d69ec3039a69cd223c1b)"
      ],
      "transaction": {
        "from": "0x00e3cc76da72cf673e4429e2d527388956af61ef",
        "to": "0xd456dbcbf79ed12f34bc59b8c38677acac59818c",
        "gas": "0x34e57",
        "value": "0x0",
        "input": "0x57d79fcd00000000000000000000000000000000000000000000000000000000000000200000000000000000000000000000000000000000000000000000000000000060000000000000000000000000f4e5780b44147365743d8c6d978adcd15838bbd00000000000000000000000000000000000000000000000000000000000000140000000000000000000000000d456dbcbf79ed12f34bc59b8c38677acac59818c0000000000000000000000000000000000000000000000000000000000000040000000000000000000000000000000000000000000000000000000000000006404717aca000000000000000000000000f4e5780b44147365743d8c6d978adcd15838bbd00000000000000000000000000000000000000000000002c68af0bb14000000000000000000000000000000000000000000000000000000000000000000014a34000000000000000000000000000000000000000000000000000000000000000000000000000000000000000000000000000000000000000000000041046faf192c8b8eb270c6b7c981a3dacf2c09a4fdd970cda9417a9ab489df1f4c11b23b4cbef002a6f79f21b33bf9d4537a4e51707cc741d69ec3039a69cd223c1b00000000000000000000000000000000000000000000000000000000000000",
        "nonce": "0x103",
        "chainId": "0x13bb"
      },
      "additionalContracts": [],
      "isFixedGasLimit": false
    }
  ],
  "receipts": [
    {
      "status": "0x1",
      "cumulativeGasUsed": "0x2347b",
      "logs": [
        {
          "address": "0xd456dbcbf79ed12f34bc59b8c38677acac59818c",
          "topics": [
            "0x767785ec8a0326548b9a53e8e065f90615a014cda2b32d3d39845f234a37f8e4"
          ],
          "data": "0x000000000000000000000000474db0ce37c079b05f8d38f0046581206e38a6040000000000000000000000000000000000000000000000000000000000000061",
          "blockHash": "0x340e4a087aca3b67193a86d797e17ba9f5ee16597a7d1ae6fed7c42a65ea2684",
          "blockNumber": "0x3b165f",
          "transactionHash": "0x84e7f50c305b57441aa326dd56f6456e1a20118aca23d65f48fc7b4370b40636",
          "transactionIndex": "0x1",
          "logIndex": "0x0",
          "removed": false
        }
      ],
      "logsBloom": "0x00000000000000000000000080000000000000000000000000000000000000000000000000000000000000000000000000000000000000000000000000000000000000000004000000000000000000000000000000000000080000000000000000000000000000000000000000000000000000000000000000000000000000000000000000000000000000000000000000000000000000000000000000000000000000000000000000000000000000010000000010000000000000000000000000000000000000000000000000000000000000000000000000000000000000000000000000000200000000000000000000000000000000000000000000000000",
      "type": "0x2",
      "transactionHash": "0x84e7f50c305b57441aa326dd56f6456e1a20118aca23d65f48fc7b4370b40636",
      "transactionIndex": "0x1",
      "blockHash": "0x340e4a087aca3b67193a86d797e17ba9f5ee16597a7d1ae6fed7c42a65ea2684",
      "blockNumber": "0x3b165f",
      "gasUsed": "0x17d46",
      "effectiveGasPrice": "0xfd",
      "from": "0x00e3cc76da72cf673e4429e2d527388956af61ef",
      "to": "0xd456dbcbf79ed12f34bc59b8c38677acac59818c",
      "contractAddress": null,
      "l1Fee": "0xc0cca54b2280",
      "l1FeeScalar": "1",
      "l1GasPrice": "0xb2d413c02",
      "l1GasUsed": "0x1140"
    },
    {
      "status": "0x1",
      "cumulativeGasUsed": "0x2f9e7",
      "logs": [],
      "logsBloom": "0x00000000000000000000000000000000000000000000000000000000000000000000000000000000000000000000000000000000000000000000000000000000000000000000000000000000000000000000000000000000000000000000000000000000000000000000000000000000000000000000000000000000000000000000000000000000000000000000000000000000000000000000000000000000000000000000000000000000000000000000000000000000000000000000000000000000000000000000000000000000000000000000000000000000000000000000000000000000000000000000000000000000000000000000000000000000",
      "type": "0x2",
      "transactionHash": "0x737854de9539cf28cac1c8fda7fe2ad90b76d77c52fe2d592fa8fa536dae1aa9",
      "transactionIndex": "0x1",
      "blockHash": "0xf95bb5e94ba5425f0dc689af0becb964944267ac2018b687cf87266a440cd391",
      "blockNumber": "0x3b1660",
      "gasUsed": "0x242b2",
      "effectiveGasPrice": "0xfd",
      "from": "0x00e3cc76da72cf673e4429e2d527388956af61ef",
      "to": "0xd456dbcbf79ed12f34bc59b8c38677acac59818c",
      "contractAddress": null,
      "l1Fee": "0x14b496196ab48",
      "l1FeeScalar": "1",
      "l1GasPrice": "0xb2d413c02",
      "l1GasUsed": "0x1da4"
    }
  ],
  "libraries": [],
  "pending": [],
  "returns": {},
  "timestamp": 1719569955,
  "chain": 5051,
  "commit": "9753a12"
}