{
  "transactions": [
    {
      "hash": "0x8d8f2cbeae93f5955c0fc6c5cf8867f755aa1f7ad3af257484649ffb7dbde3e4",
      "transactionType": "CALL",
      "contractName": null,
      "contractAddress": "0x59ec62ced14a0ebe75e7b48b65da4a0db3f777c5",
      "function": "setChainToPeripheryContract(uint256,address)",
      "arguments": [
        "97",
        "0x4c45F7c05ddbdab48EC2797F31C4c13ef48E0054"
      ],
      "transaction": {
        "from": "0x00e3cc76da72cf673e4429e2d527388956af61ef",
        "to": "0x59ec62ced14a0ebe75e7b48b65da4a0db3f777c5",
        "gas": "0xbe0c",
        "value": "0x0",
        "input": "0x5e0b30db00000000000000000000000000000000000000000000000000000000000000610000000000000000000000004c45f7c05ddbdab48ec2797f31c4c13ef48e0054",
        "nonce": "0x1de",
        "chainId": "0x13bb"
      },
      "additionalContracts": [],
      "isFixedGasLimit": false
    },
    {
      "hash": null,
      "transactionType": "CALL",
      "contractName": null,
      "contractAddress": "0x59ec62ced14a0ebe75e7b48b65da4a0db3f777c5",
      "function": "processIntent(((address,bytes),address,bytes))",
      "arguments": [
        "((0x59EC62CED14a0ebE75E7b48b65dA4a0db3F777C5, 0x04717aca000000000000000000000000f4e5780b44147365743d8c6d978adcd15838bbd00000000000000000000000000000000000000000000000003782dace9d9000000000000000000000000000000000000000000000000000000000000000000061), 0xf4e5780b44147365743D8C6D978adcd15838BBd0, 0xe0fb81d54c1501fffd8fc3ea66882ecc2d918a6b6fc88c8d7d588890ee6af58e5f2e6dce3078225f666dff41c47c6b16b16b0726a8a0db8f2bdb1d2f50800b111c)"
      ],
      "transaction": {
        "from": "0x00e3cc76da72cf673e4429e2d527388956af61ef",
        "to": "0x59ec62ced14a0ebe75e7b48b65da4a0db3f777c5",
        "gas": "0x2f5da",
        "value": "0x0",
        "input": "0x57d79fcd00000000000000000000000000000000000000000000000000000000000000200000000000000000000000000000000000000000000000000000000000000060000000000000000000000000f4e5780b44147365743d8c6d978adcd15838bbd0000000000000000000000000000000000000000000000000000000000000014000000000000000000000000059ec62ced14a0ebe75e7b48b65da4a0db3f777c50000000000000000000000000000000000000000000000000000000000000040000000000000000000000000000000000000000000000000000000000000006404717aca000000000000000000000000f4e5780b44147365743d8c6d978adcd15838bbd00000000000000000000000000000000000000000000000003782dace9d9000000000000000000000000000000000000000000000000000000000000000000061000000000000000000000000000000000000000000000000000000000000000000000000000000000000000000000000000000000000000000000041e0fb81d54c1501fffd8fc3ea66882ecc2d918a6b6fc88c8d7d588890ee6af58e5f2e6dce3078225f666dff41c47c6b16b16b0726a8a0db8f2bdb1d2f50800b111c00000000000000000000000000000000000000000000000000000000000000",
        "nonce": "0x1df",
        "chainId": "0x13bb"
      },
      "additionalContracts": [],
      "isFixedGasLimit": false
    }
  ],
  "receipts": [],
  "libraries": [],
  "pending": [
    "0x8d8f2cbeae93f5955c0fc6c5cf8867f755aa1f7ad3af257484649ffb7dbde3e4"
  ],
  "returns": {},
  "timestamp": 1719894355,
  "chain": 5051,
  "commit": "9753a12"
}