{
  "transactions": [
    {
      "hash": "0xf8401083574075ac3d44b4e9d4574deb0b6d416756f1d81fbd9c23bdfd72a8a8",
      "transactionType": "CALL",
      "contractName": null,
      "contractAddress": "0xe4c65569df195bdcbc81f519eb2c824796f4eabf",
      "function": "setChainToPeripheryContract(uint256,address)",
      "arguments": [
        "97",
        "0x474db0ce37c079b05f8D38F0046581206E38a604"
      ],
      "transaction": {
        "from": "0x00e3cc76da72cf673e4429e2d527388956af61ef",
        "to": "0xe4c65569df195bdcbc81f519eb2c824796f4eabf",
        "gas": "0x1cbeb",
        "value": "0x0",
        "input": "0x5e0b30db0000000000000000000000000000000000000000000000000000000000000061000000000000000000000000474db0ce37c079b05f8d38f0046581206e38a604",
        "nonce": "0x165",
        "chainId": "0x13bb"
      },
      "additionalContracts": [],
      "isFixedGasLimit": false
    },
    {
      "hash": "0x2504778b0d3a5dc0049ed284eafbc829da17ac7a8267414fae8f3ca44c7bfe97",
      "transactionType": "CALL",
      "contractName": null,
      "contractAddress": "0xe4c65569df195bdcbc81f519eb2c824796f4eabf",
      "function": "processIntent(((address,bytes),address,bytes))",
      "arguments": [
        "((0xE4c65569df195BDcBC81f519eb2c824796F4EaBf, 0x04717aca000000000000000000000000f4e5780b44147365743d8c6d978adcd15838bbd0000000000000000000000000000000000000000000000000058d15e1762800000000000000000000000000000000000000000000000000000000000000000061), 0xf4e5780b44147365743D8C6D978adcd15838BBd0, 0x7c6aede10966f250019820917c4a5113567f54dac3ad08cfdd260a6046ddf7861e0bfa07b1f817e470967d66830cf999652342daaa80dff8dde12f2b38cacf651c)"
      ],
      "transaction": {
        "from": "0x00e3cc76da72cf673e4429e2d527388956af61ef",
        "to": "0xe4c65569df195bdcbc81f519eb2c824796f4eabf",
        "gas": "0x2f5da",
        "value": "0x0",
        "input": "0x57d79fcd00000000000000000000000000000000000000000000000000000000000000200000000000000000000000000000000000000000000000000000000000000060000000000000000000000000f4e5780b44147365743d8c6d978adcd15838bbd00000000000000000000000000000000000000000000000000000000000000140000000000000000000000000e4c65569df195bdcbc81f519eb2c824796f4eabf0000000000000000000000000000000000000000000000000000000000000040000000000000000000000000000000000000000000000000000000000000006404717aca000000000000000000000000f4e5780b44147365743d8c6d978adcd15838bbd0000000000000000000000000000000000000000000000000058d15e17628000000000000000000000000000000000000000000000000000000000000000000610000000000000000000000000000000000000000000000000000000000000000000000000000000000000000000000000000000000000000000000417c6aede10966f250019820917c4a5113567f54dac3ad08cfdd260a6046ddf7861e0bfa07b1f817e470967d66830cf999652342daaa80dff8dde12f2b38cacf651c00000000000000000000000000000000000000000000000000000000000000",
        "nonce": "0x166",
        "chainId": "0x13bb"
      },
      "additionalContracts": [],
      "isFixedGasLimit": false
    }
  ],
  "receipts": [
    {
      "status": "0x1",
      "cumulativeGasUsed": "0x1f1af",
      "logs": [
        {
          "address": "0xe4c65569df195bdcbc81f519eb2c824796f4eabf",
          "topics": [
            "0x767785ec8a0326548b9a53e8e065f90615a014cda2b32d3d39845f234a37f8e4"
          ],
          "data": "0x000000000000000000000000474db0ce37c079b05f8d38f0046581206e38a6040000000000000000000000000000000000000000000000000000000000000061",
          "blockHash": "0x37d6c1a5c91dfa24d92f899e11806640cfae0a40a1dcc8e6df2840b9d687c526",
          "blockNumber": "0x3d3ea4",
          "transactionHash": "0xf8401083574075ac3d44b4e9d4574deb0b6d416756f1d81fbd9c23bdfd72a8a8",
          "transactionIndex": "0x1",
          "logIndex": "0x0",
          "removed": false
        }
      ],
      "logsBloom": "0x00000000000000000000000080000000000000000000000000000000000000000000000000000000000000000000000000000000000000000000000000000000000000000000000000000000000000000000000000000000000000000000000000000000000000000000000000000000000000000000000000000000000000000000000000000000000000000000000000000000000000000000000000000000000810000000000000000000000000000000000010000000000000000000000000000000000000000000000040000000000000000000000000000000000000000000000000000200000000000000000000000000000000000000000000000000",
      "type": "0x2",
      "transactionHash": "0xf8401083574075ac3d44b4e9d4574deb0b6d416756f1d81fbd9c23bdfd72a8a8",
      "transactionIndex": "0x1",
      "blockHash": "0x37d6c1a5c91dfa24d92f899e11806640cfae0a40a1dcc8e6df2840b9d687c526",
      "blockNumber": "0x3d3ea4",
      "gasUsed": "0x13a7a",
      "effectiveGasPrice": "0xfd",
      "from": "0x00e3cc76da72cf673e4429e2d527388956af61ef",
      "to": "0xe4c65569df195bdcbc81f519eb2c824796f4eabf",
      "contractAddress": null,
      "l1Fee": "0x50001aa3d0c0",
      "l1FeeScalar": "1",
      "l1GasPrice": "0x4a3409de7",
      "l1GasUsed": "0x1140"
    },
    {
      "status": "0x1",
      "cumulativeGasUsed": "0x3f7e0",
      "logs": [
        {
          "address": "0xe4c65569df195bdcbc81f519eb2c824796f4eabf",
          "topics": [
            "0xdf8644c0a4c21ed214ce69f395675b3a5fcd1039083daea5058898de40ea3149"
          ],
          "data": "0x000000000000000000000000f4e5780b44147365743d8c6d978adcd15838bbd0000000000000000000000000000000000000000000000000058d15e1762800000000000000000000000000000000000000000000000000000000000000000061",
          "blockHash": "0x37d6c1a5c91dfa24d92f899e11806640cfae0a40a1dcc8e6df2840b9d687c526",
          "blockNumber": "0x3d3ea4",
          "transactionHash": "0x2504778b0d3a5dc0049ed284eafbc829da17ac7a8267414fae8f3ca44c7bfe97",
          "transactionIndex": "0x2",
          "logIndex": "0x1",
          "removed": false
        }
      ],
      "logsBloom": "0x00000000000000000000000000000000000000000000000000000000000000000000000000001000000000000000000000000000000000000000000000000000000000000000000000000000000000000000000000000000000000000000000000000000000000000000000000000000000000000000000100000000000000000000000080000000000000000000000000000000000000000000000000000000000810000000000000000000000000000000000000000000000000000000000000000000000000000000000040000000000000000000000000000000000000000000000000000000000000000000000000000000000000000000000000000000",
      "type": "0x2",
      "transactionHash": "0x2504778b0d3a5dc0049ed284eafbc829da17ac7a8267414fae8f3ca44c7bfe97",
      "transactionIndex": "0x2",
      "blockHash": "0x37d6c1a5c91dfa24d92f899e11806640cfae0a40a1dcc8e6df2840b9d687c526",
      "blockNumber": "0x3d3ea4",
      "gasUsed": "0x20631",
      "effectiveGasPrice": "0xfd",
      "from": "0x00e3cc76da72cf673e4429e2d527388956af61ef",
      "to": "0xe4c65569df195bdcbc81f519eb2c824796f4eabf",
      "contractAddress": null,
      "l1Fee": "0x893f4040ec28",
      "l1FeeScalar": "1",
      "l1GasPrice": "0x4a3409de7",
      "l1GasUsed": "0x1d98"
    }
  ],
  "libraries": [],
  "pending": [],
  "returns": {},
  "timestamp": 1719852715,
  "chain": 5051,
  "commit": "9753a12"
}