{
  "transactions": [
    {
      "hash": "0x32331f2a17ccd27b1c7b7c631032344f4173edfb7d28b0030833c257935e4870",
      "transactionType": "CALL",
      "contractName": null,
      "contractAddress": "0x59ec62ced14a0ebe75e7b48b65da4a0db3f777c5",
      "function": "setChainToPeripheryContract(uint256,address)",
      "arguments": [
        "97",
        "0x4c45F7c05ddbdab48EC2797F31C4c13ef48E0054"
      ],
      "transaction": {
        "from": "0x00e3cc76da72cf673e4429e2d527388956af61ef",
        "to": "0x59ec62ced14a0ebe75e7b48b65da4a0db3f777c5",
        "gas": "0xbe0c",
        "value": "0x0",
        "input": "0x5e0b30db00000000000000000000000000000000000000000000000000000000000000610000000000000000000000004c45f7c05ddbdab48ec2797f31c4c13ef48e0054",
        "nonce": "0x2b5",
        "chainId": "0x13bb"
      },
      "additionalContracts": [],
      "isFixedGasLimit": false
    },
    {
      "hash": "0x1d851db26e50b76963e8f778cb9a79ddb2906d9269fcdf71b46a8a4f4c283a1c",
      "transactionType": "CALL",
      "contractName": null,
      "contractAddress": "0x59ec62ced14a0ebe75e7b48b65da4a0db3f777c5",
      "function": "processIntent(((address,bytes),address,bytes))",
      "arguments": [
        "((0x59EC62CED14a0ebE75E7b48b65dA4a0db3F777C5, 0x04717aca000000000000000000000000f4e5780b44147365743d8c6d978adcd15838bbd00000000000000000000000000000000000000000000000003782dace9d9000000000000000000000000000000000000000000000000000000000000000000061), 0xf4e5780b44147365743D8C6D978adcd15838BBd0, 0xe0fb81d54c1501fffd8fc3ea66882ecc2d918a6b6fc88c8d7d588890ee6af58e5f2e6dce3078225f666dff41c47c6b16b16b0726a8a0db8f2bdb1d2f50800b111c)"
      ],
      "transaction": {
        "from": "0x00e3cc76da72cf673e4429e2d527388956af61ef",
        "to": "0x59ec62ced14a0ebe75e7b48b65da4a0db3f777c5",
        "gas": "0x2f5da",
        "value": "0x0",
        "input": "0x57d79fcd00000000000000000000000000000000000000000000000000000000000000200000000000000000000000000000000000000000000000000000000000000060000000000000000000000000f4e5780b44147365743d8c6d978adcd15838bbd0000000000000000000000000000000000000000000000000000000000000014000000000000000000000000059ec62ced14a0ebe75e7b48b65da4a0db3f777c50000000000000000000000000000000000000000000000000000000000000040000000000000000000000000000000000000000000000000000000000000006404717aca000000000000000000000000f4e5780b44147365743d8c6d978adcd15838bbd00000000000000000000000000000000000000000000000003782dace9d9000000000000000000000000000000000000000000000000000000000000000000061000000000000000000000000000000000000000000000000000000000000000000000000000000000000000000000000000000000000000000000041e0fb81d54c1501fffd8fc3ea66882ecc2d918a6b6fc88c8d7d588890ee6af58e5f2e6dce3078225f666dff41c47c6b16b16b0726a8a0db8f2bdb1d2f50800b111c00000000000000000000000000000000000000000000000000000000000000",
        "nonce": "0x2b6",
        "chainId": "0x13bb"
      },
      "additionalContracts": [],
      "isFixedGasLimit": false
    }
  ],
  "receipts": [
    {
      "status": "0x1",
      "cumulativeGasUsed": "0x1391c",
      "logs": [
        {
          "address": "0x59ec62ced14a0ebe75e7b48b65da4a0db3f777c5",
          "topics": [
            "0x767785ec8a0326548b9a53e8e065f90615a014cda2b32d3d39845f234a37f8e4"
          ],
          "data": "0x0000000000000000000000004c45f7c05ddbdab48ec2797f31c4c13ef48e00540000000000000000000000000000000000000000000000000000000000000061",
          "blockHash": "0xf24d22b57058b9708caa194c234d44b7a5b31284a82a249a8624f1b5df08f5a6",
          "blockNumber": "0x3d9075",
          "transactionHash": "0x32331f2a17ccd27b1c7b7c631032344f4173edfb7d28b0030833c257935e4870",
          "transactionIndex": "0x1",
          "logIndex": "0x0",
          "removed": false
        }
      ],
      "logsBloom": "0x00000000000000000000000080000000000000000200000000000000000000000000000000000000000000000000000000000000000000000000000000000000000000000100000000000000000000000000000000000000000000000000000000000000000000000000000000000000000000000000000000000000000000000000000000000000000000000000000000000000000000000000000000000000000000000000000000000000000000000400000010000000000000000000000000000000000000000000000000000000000000000000000000000000000000000000000000000200000000000000000000000000000000000000000000000000",
      "type": "0x2",
      "transactionHash": "0x32331f2a17ccd27b1c7b7c631032344f4173edfb7d28b0030833c257935e4870",
      "transactionIndex": "0x1",
      "blockHash": "0xf24d22b57058b9708caa194c234d44b7a5b31284a82a249a8624f1b5df08f5a6",
      "blockNumber": "0x3d9075",
      "gasUsed": "0x81f3",
      "effectiveGasPrice": "0xfd",
      "from": "0x00e3cc76da72cf673e4429e2d527388956af61ef",
      "to": "0x59ec62ced14a0ebe75e7b48b65da4a0db3f777c5",
      "contractAddress": null,
      "l1Fee": "0xbcafe3ca97e0",
      "l1FeeScalar": "1",
      "l1GasPrice": "0xb02180638",
      "l1GasUsed": "0x1124"
    },
    {
      "status": "0x1",
      "cumulativeGasUsed": "0x33f4d",
      "logs": [
        {
          "address": "0x59ec62ced14a0ebe75e7b48b65da4a0db3f777c5",
          "topics": [
            "0xdf8644c0a4c21ed214ce69f395675b3a5fcd1039083daea5058898de40ea3149"
          ],
          "data": "0x000000000000000000000000f4e5780b44147365743d8c6d978adcd15838bbd00000000000000000000000000000000000000000000000003782dace9d9000000000000000000000000000000000000000000000000000000000000000000061",
          "blockHash": "0xf24d22b57058b9708caa194c234d44b7a5b31284a82a249a8624f1b5df08f5a6",
          "blockNumber": "0x3d9075",
          "transactionHash": "0x1d851db26e50b76963e8f778cb9a79ddb2906d9269fcdf71b46a8a4f4c283a1c",
          "transactionIndex": "0x2",
          "logIndex": "0x1",
          "removed": false
        }
      ],
      "logsBloom": "0x00000000000000000000000000000000000000000200000000000000000000000000000000001000000000000000000000000000000000000000000000000000000000000100000000000000000000000000000000000000000000000000000000000000000000000000000000000000000000000000000100000000000000000000000080000000000000000000000000000000000000000000000000000000000000000000000000000000000000000400000000000000000000000000000000000000000000000000000000000000000000000000000000000000000000000000000000000000000000000000000000000000000000000000000000000000",
      "type": "0x2",
      "transactionHash": "0x1d851db26e50b76963e8f778cb9a79ddb2906d9269fcdf71b46a8a4f4c283a1c",
      "transactionIndex": "0x2",
      "blockHash": "0xf24d22b57058b9708caa194c234d44b7a5b31284a82a249a8624f1b5df08f5a6",
      "blockNumber": "0x3d9075",
      "gasUsed": "0x20631",
      "effectiveGasPrice": "0xfd",
      "from": "0x00e3cc76da72cf673e4429e2d527388956af61ef",
      "to": "0x59ec62ced14a0ebe75e7b48b65da4a0db3f777c5",
      "contractAddress": null,
      "l1Fee": "0x145c5f6f80940",
      "l1FeeScalar": "1",
      "l1GasPrice": "0xb02180638",
      "l1GasUsed": "0x1d98"
    }
  ],
  "libraries": [],
  "pending": [],
  "returns": {},
  "timestamp": 1719894606,
  "chain": 5051,
  "commit": "9753a12"
}