{
  "transactions": [
    {
      "hash": "0xa4c42fbe7a7270ccf1685e8cc2c391b6974fbc0cba41a34315ace1439634edc5",
      "transactionType": "CALL",
      "contractName": null,
      "contractAddress": "0x4dc64bcf2e5b50ef9c45f17b32acf559602cb07c",
      "function": "setChainToPeripheryContract(uint256,address)",
      "arguments": [
        "97",
        "0x637ca48d54370b192709CBcc12Ef9Dc58Bc51326"
      ],
      "transaction": {
        "from": "0x00e3cc76da72cf673e4429e2d527388956af61ef",
        "to": "0x4dc64bcf2e5b50ef9c45f17b32acf559602cb07c",
        "gas": "0x1cbeb",
        "value": "0x0",
        "input": "0x5e0b30db0000000000000000000000000000000000000000000000000000000000000061000000000000000000000000637ca48d54370b192709cbcc12ef9dc58bc51326",
        "nonce": "0x176",
        "chainId": "0x13bb"
      },
      "additionalContracts": [],
      "isFixedGasLimit": false
    },
    {
      "hash": "0x5cf47b00edf854e5e4eca3f37e132528f70844e26bd5ea6f093084cf6e0590b4",
      "transactionType": "CALL",
      "contractName": null,
      "contractAddress": "0x4dc64bcf2e5b50ef9c45f17b32acf559602cb07c",
      "function": "processIntent(((address,bytes),address,bytes))",
      "arguments": [
        "((0x4Dc64BcF2e5b50eF9C45f17b32acf559602CB07c, 0x04717aca000000000000000000000000f4e5780b44147365743d8c6d978adcd15838bbd00000000000000000000000000000000000000000000000003782dace9d9000000000000000000000000000000000000000000000000000000000000000000061), 0xf4e5780b44147365743D8C6D978adcd15838BBd0, 0x23ad7a809db2c541abdfa50f38f1063fdca866c551d0b4cd10a21ce88da6131f03f13ec452f4fec93c47080b57f97c2485cb083cc50801bcb34c7f2fb0992a251c)"
      ],
      "transaction": {
        "from": "0x00e3cc76da72cf673e4429e2d527388956af61ef",
        "to": "0x4dc64bcf2e5b50ef9c45f17b32acf559602cb07c",
        "gas": "0x2f5da",
        "value": "0x0",
        "input": "0x57d79fcd00000000000000000000000000000000000000000000000000000000000000200000000000000000000000000000000000000000000000000000000000000060000000000000000000000000f4e5780b44147365743d8c6d978adcd15838bbd000000000000000000000000000000000000000000000000000000000000001400000000000000000000000004dc64bcf2e5b50ef9c45f17b32acf559602cb07c0000000000000000000000000000000000000000000000000000000000000040000000000000000000000000000000000000000000000000000000000000006404717aca000000000000000000000000f4e5780b44147365743d8c6d978adcd15838bbd00000000000000000000000000000000000000000000000003782dace9d900000000000000000000000000000000000000000000000000000000000000000006100000000000000000000000000000000000000000000000000000000000000000000000000000000000000000000000000000000000000000000004123ad7a809db2c541abdfa50f38f1063fdca866c551d0b4cd10a21ce88da6131f03f13ec452f4fec93c47080b57f97c2485cb083cc50801bcb34c7f2fb0992a251c00000000000000000000000000000000000000000000000000000000000000",
        "nonce": "0x177",
        "chainId": "0x13bb"
      },
      "additionalContracts": [],
      "isFixedGasLimit": false
    }
  ],
  "receipts": [
    {
      "status": "0x1",
      "cumulativeGasUsed": "0x1f1af",
      "logs": [
        {
          "address": "0x4dc64bcf2e5b50ef9c45f17b32acf559602cb07c",
          "topics": [
            "0x767785ec8a0326548b9a53e8e065f90615a014cda2b32d3d39845f234a37f8e4"
          ],
          "data": "0x000000000000000000000000637ca48d54370b192709cbcc12ef9dc58bc513260000000000000000000000000000000000000000000000000000000000000061",
          "blockHash": "0xe476d52432c08d4d68aa50b3da2a547019908fbe419fa2d23f39e92c93c2d307",
          "blockNumber": "0x3d8c5a",
          "transactionHash": "0xa4c42fbe7a7270ccf1685e8cc2c391b6974fbc0cba41a34315ace1439634edc5",
          "transactionIndex": "0x1",
          "logIndex": "0x0",
          "removed": false
        }
      ],
      "logsBloom": "0x00000000000000000000000080000000000000000000000000000000000000000000000000000000000000000000000000000000020000000000000000000000000000000000000000000000000000000000000000000000000000000000000000000000000000000000000040000000000000000000000000000000000000002000000000000000000000000000000000000000000000000000000000000000000000000000000000000000000000000000000010000000000000000000000000000000000000000000000000000000000000000000000000000000000000000000000000000200000000000000000000000000000000000000000000000000",
      "type": "0x2",
      "transactionHash": "0xa4c42fbe7a7270ccf1685e8cc2c391b6974fbc0cba41a34315ace1439634edc5",
      "transactionIndex": "0x1",
      "blockHash": "0xe476d52432c08d4d68aa50b3da2a547019908fbe419fa2d23f39e92c93c2d307",
      "blockNumber": "0x3d8c5a",
      "gasUsed": "0x13a7a",
      "effectiveGasPrice": "0xfd",
      "from": "0x00e3cc76da72cf673e4429e2d527388956af61ef",
      "to": "0x4dc64bcf2e5b50ef9c45f17b32acf559602cb07c",
      "contractAddress": null,
      "l1Fee": "0x39dc3235b2c0",
      "l1FeeScalar": "1",
      "l1GasPrice": "0x35aad93cf",
      "l1GasUsed": "0x1140"
    },
    {
      "status": "0x1",
      "cumulativeGasUsed": "0x3f7e0",
      "logs": [
        {
          "address": "0x4dc64bcf2e5b50ef9c45f17b32acf559602cb07c",
          "topics": [
            "0xdf8644c0a4c21ed214ce69f395675b3a5fcd1039083daea5058898de40ea3149"
          ],
          "data": "0x000000000000000000000000f4e5780b44147365743d8c6d978adcd15838bbd00000000000000000000000000000000000000000000000003782dace9d9000000000000000000000000000000000000000000000000000000000000000000061",
          "blockHash": "0xe476d52432c08d4d68aa50b3da2a547019908fbe419fa2d23f39e92c93c2d307",
          "blockNumber": "0x3d8c5a",
          "transactionHash": "0x5cf47b00edf854e5e4eca3f37e132528f70844e26bd5ea6f093084cf6e0590b4",
          "transactionIndex": "0x2",
          "logIndex": "0x1",
          "removed": false
        }
      ],
      "logsBloom": "0x00000000000000000000000000000000000000000000000000000000000000000000000000001000000000000000000000000000020000000000000000000000000000000000000000000000000000000000000000000000000000000000000000000000000000000000000040000000000000000000000100000000000000002000000080000000000000000000000000000000000000000000000000000000000000000000000000000000000000000000000000000000000000000000000000000000000000000000000000000000000000000000000000000000000000000000000000000000000000000000000000000000000000000000000000000000",
      "type": "0x2",
      "transactionHash": "0x5cf47b00edf854e5e4eca3f37e132528f70844e26bd5ea6f093084cf6e0590b4",
      "transactionIndex": "0x2",
      "blockHash": "0xe476d52432c08d4d68aa50b3da2a547019908fbe419fa2d23f39e92c93c2d307",
      "blockNumber": "0x3d8c5a",
      "gasUsed": "0x20631",
      "effectiveGasPrice": "0xfd",
      "from": "0x00e3cc76da72cf673e4429e2d527388956af61ef",
      "to": "0x4dc64bcf2e5b50ef9c45f17b32acf559602cb07c",
      "contractAddress": null,
      "l1Fee": "0x634380ce35e8",
      "l1FeeScalar": "1",
      "l1GasPrice": "0x35aad93cf",
      "l1GasUsed": "0x1d98"
    }
  ],
  "libraries": [],
  "pending": [],
  "returns": {},
  "timestamp": 1719892504,
  "chain": 5051,
  "commit": "9753a12"
}