{
  "transactions": [
    {
      "hash": "0x437aa9142103fb6e1fc6703e49c0742ff6af2c4a2bc8e50d4c4187c56b6932ce",
      "transactionType": "CALL",
      "contractName": null,
      "contractAddress": "0x6bd1a2c15ecb4901208dcc4133d10836f0cde927",
      "function": "approve(address,uint256)",
      "arguments": [
        "0x00E3CC76DA72cF673E4429E2d527388956af61ef",
        "1000000000000000000000000"
      ],
      "transaction": {
        "from": "0xfa87a9fab7f0222f7d6d190a7c7ce6e48547aef4",
        "to": "0x6bd1a2c15ecb4901208dcc4133d10836f0cde927",
        "gas": "0x10693",
        "value": "0x0",
        "input": "0x095ea7b300000000000000000000000000e3cc76da72cf673e4429e2d527388956af61ef00000000000000000000000000000000000000000000d3c21bcecceda1000000",
        "nonce": "0x5",
        "chainId": "0x14a34"
      },
      "additionalContracts": [],
      "isFixedGasLimit": false
    }
  ],
  "receipts": [
    {
      "status": "0x1",
      "cumulativeGasUsed": "0x6dac7f",
      "logs": [
        {
          "address": "0x6bd1a2c15ecb4901208dcc4133d10836f0cde927",
          "topics": [
            "0x8c5be1e5ebec7d5bd14f71427d1e84f3dd0314c0f7b2291e5b200ac8c7c3b925",
            "0x000000000000000000000000fa87a9fab7f0222f7d6d190a7c7ce6e48547aef4",
            "0x00000000000000000000000000e3cc76da72cf673e4429e2d527388956af61ef"
          ],
          "data": "0x00000000000000000000000000000000000000000000d3c21bcecceda1000000",
          "blockHash": "0xd213d32707a6875c1102123dbb04769a3bdf74765fb0171b6d9dddd89d02e53f",
          "blockNumber": "0xb78a84",
          "transactionHash": "0x437aa9142103fb6e1fc6703e49c0742ff6af2c4a2bc8e50d4c4187c56b6932ce",
          "transactionIndex": "0xb",
          "logIndex": "0x78",
          "removed": false
        }
      ],
      "logsBloom": "0x00000000000000000000000000000100000000000000000000000000000000000000000000000000000000000000000000000000000000000000000000200000000000000000000000000000000000100000400000000000000000000000000000000000000000000000000000000000000000000000200000000000000000000000000000000000000000000000000000000000000000400000000000000000022000000000000000000000000000000000000000200000000000000000000000000000000000000000000000000001000000000000000000000000000000000010000000000010000000000000000000000000000000000000000000000000",
      "type": "0x2",
      "transactionHash": "0x437aa9142103fb6e1fc6703e49c0742ff6af2c4a2bc8e50d4c4187c56b6932ce",
      "transactionIndex": "0xb",
      "blockHash": "0xd213d32707a6875c1102123dbb04769a3bdf74765fb0171b6d9dddd89d02e53f",
      "blockNumber": "0xb78a84",
      "gasUsed": "0xb38a",
      "effectiveGasPrice": "0x92af6",
      "from": "0xfa87a9fab7f0222f7d6d190a7c7ce6e48547aef4",
      "to": "0x6bd1a2c15ecb4901208dcc4133d10836f0cde927",
      "contractAddress": null,
      "l1BaseFeeScalar": "0x44d",
      "l1BlobBaseFee": "0x92",
      "l1BlobBaseFeeScalar": "0xa118b",
      "l1Fee": "0x1e451254be",
      "l1GasPrice": "0x112ee1dd5c",
      "l1GasUsed": "0x640"
    }
  ],
  "libraries": [],
  "pending": [],
  "returns": {},
  "timestamp": 1719825389,
  "chain": 84532,
  "commit": "9753a12"
}