{
  "transactions": [
    {
      "hash": "0xb825c69c85870dc38837ba8966f0e75f87276143a6a4128a7a19e5de7c4fdf4c",
      "transactionType": "CALL",
      "contractName": null,
      "contractAddress": "0x00d44864a045ac6ea04bb6ec1b0b4161e7882445",
      "function": "mint(address,uint256)",
      "arguments": [
        "0xFa87a9fab7F0222f7d6D190A7C7ce6E48547aef4",
        "1000000000000000000000"
      ],
      "transaction": {
        "from": "0xfa87a9fab7f0222f7d6d190a7c7ce6e48547aef4",
        "to": "0x00d44864a045ac6ea04bb6ec1b0b4161e7882445",
        "gas": "0x1852d",
        "value": "0x0",
        "input": "0x40c10f19000000000000000000000000fa87a9fab7f0222f7d6d190a7c7ce6e48547aef400000000000000000000000000000000000000000000003635c9adc5dea00000",
        "nonce": "0x6",
        "chainId": "0x14a34"
      },
      "additionalContracts": [],
      "isFixedGasLimit": false
    },
    {
      "hash": "0xeb0017c01eb107bf067873fba9c9ede2ba6a383acd7a4389eb510d2f4b9cbae4",
      "transactionType": "CALL",
      "contractName": null,
      "contractAddress": "0x00d44864a045ac6ea04bb6ec1b0b4161e7882445",
      "function": "approve(address,uint256)",
      "arguments": [
        "0x172A014aAA772E7634E051d2f5ecC424d95Df920",
        "1000000000000000000000000"
      ],
      "transaction": {
        "from": "0xfa87a9fab7f0222f7d6d190a7c7ce6e48547aef4",
        "to": "0x00d44864a045ac6ea04bb6ec1b0b4161e7882445",
        "gas": "0xf80d",
        "value": "0x0",
        "input": "0x095ea7b3000000000000000000000000172a014aaa772e7634e051d2f5ecc424d95df92000000000000000000000000000000000000000000000d3c21bcecceda1000000",
        "nonce": "0x7",
        "chainId": "0x14a34"
      },
      "additionalContracts": [],
      "isFixedGasLimit": false
    }
  ],
  "receipts": [
    {
      "status": "0x1",
      "cumulativeGasUsed": "0x1adfd6",
      "logs": [
        {
          "address": "0x00d44864a045ac6ea04bb6ec1b0b4161e7882445",
          "topics": [
            "0xddf252ad1be2c89b69c2b068fc378daa952ba7f163c4a11628f55a4df523b3ef",
            "0x0000000000000000000000000000000000000000000000000000000000000000",
            "0x000000000000000000000000fa87a9fab7f0222f7d6d190a7c7ce6e48547aef4"
          ],
          "data": "0x00000000000000000000000000000000000000000000003635c9adc5dea00000",
          "blockHash": "0x2d6a4a94698291737d2cea8691bf3b9005a9089bd4d95ae052cb35b387ebb50b",
          "blockNumber": "0xb7911f",
          "transactionHash": "0xb825c69c85870dc38837ba8966f0e75f87276143a6a4128a7a19e5de7c4fdf4c",
          "transactionIndex": "0x11",
          "logIndex": "0x10",
          "removed": false
        }
      ],
      "logsBloom": "0x00000000000000000000000000000000000000000000000000000000000000000000000000000000000000000000000000000000000000000000000000000000000000000000000000000008000000000000000000000000000000000000000000000000020000000000000000000800000000000000000000000010000000000000000000000000000000000200000000000000000000400000000000000000002000000000000000000000000000000000000000000000000000000000000000000002000400000000000000000001000000000000000000000000000020000000000008000000000000000000000000000000000000000000000000000000",
      "type": "0x2",
      "transactionHash": "0xb825c69c85870dc38837ba8966f0e75f87276143a6a4128a7a19e5de7c4fdf4c",
      "transactionIndex": "0x11",
      "blockHash": "0x2d6a4a94698291737d2cea8691bf3b9005a9089bd4d95ae052cb35b387ebb50b",
      "blockNumber": "0xb7911f",
      "gasUsed": "0x10a1b",
      "effectiveGasPrice": "0x8f012",
      "from": "0xfa87a9fab7f0222f7d6d190a7c7ce6e48547aef4",
      "to": "0x00d44864a045ac6ea04bb6ec1b0b4161e7882445",
      "contractAddress": null,
      "l1BaseFeeScalar": "0x44d",
      "l1BlobBaseFee": "0x271",
      "l1BlobBaseFeeScalar": "0xa118b",
      "l1Fee": "0x7c6ef9f88",
      "l1GasPrice": "0x46a2f5007",
      "l1GasUsed": "0x640"
    },
    {
      "status": "0x1",
      "cumulativeGasUsed": "0x23ad05",
      "logs": [
        {
          "address": "0x00d44864a045ac6ea04bb6ec1b0b4161e7882445",
          "topics": [
            "0x8c5be1e5ebec7d5bd14f71427d1e84f3dd0314c0f7b2291e5b200ac8c7c3b925",
            "0x000000000000000000000000fa87a9fab7f0222f7d6d190a7c7ce6e48547aef4",
            "0x000000000000000000000000172a014aaa772e7634e051d2f5ecc424d95df920"
          ],
          "data": "0x00000000000000000000000000000000000000000000d3c21bcecceda1000000",
          "blockHash": "0x20b81a6a9ab483dfcc75520c4ac056814215f5fd6b52e56eb3812df7bbae0735",
          "blockNumber": "0xb79123",
          "transactionHash": "0xeb0017c01eb107bf067873fba9c9ede2ba6a383acd7a4389eb510d2f4b9cbae4",
          "transactionIndex": "0xe",
          "logIndex": "0x2b",
          "removed": false
        }
      ],
      "logsBloom": "0x00200000000000000000000000000000000000000000000000000800000000000000000000000000000000000000000000000000000000000000000000200000000000000000000000000000000000000000000000000000000000000000000000000000000000000000000000000000000000000000000000000000000000000000000000000000000000000200000000000000000000400000000000000000022000000000000000000000000000000000000000000000000000000000000000080000000400000000000000000001000000000000000000000000000000000010000008000000000000000000000000000000000000000000000000000000",
      "type": "0x2",
      "transactionHash": "0xeb0017c01eb107bf067873fba9c9ede2ba6a383acd7a4389eb510d2f4b9cbae4",
      "transactionIndex": "0xe",
      "blockHash": "0x20b81a6a9ab483dfcc75520c4ac056814215f5fd6b52e56eb3812df7bbae0735",
      "blockNumber": "0xb79123",
      "gasUsed": "0xb396",
      "effectiveGasPrice": "0x8f012",
      "from": "0xfa87a9fab7f0222f7d6d190a7c7ce6e48547aef4",
      "to": "0x00d44864a045ac6ea04bb6ec1b0b4161e7882445",
      "contractAddress": null,
      "l1BaseFeeScalar": "0x44d",
      "l1BlobBaseFee": "0x242",
      "l1BlobBaseFeeScalar": "0xa118b",
      "l1Fee": "0x808e09d95",
      "l1GasPrice": "0x48f9e19cf",
      "l1GasUsed": "0x640"
    }
  ],
  "libraries": [],
  "pending": [],
  "returns": {},
  "timestamp": 1719828780,
  "chain": 84532,
  "commit": "9753a12"
}