{
  "transactions": [
    {
      "hash": "0xc4aca821c25a6b9518a6a240250c8a22917ed7e8554fdfaf3d734e593ab18a0a",
      "transactionType": "CALL",
      "contractName": null,
      "contractAddress": "0x6bd1a2c15ecb4901208dcc4133d10836f0cde927",
      "function": "mint(address,uint256)",
      "arguments": [
        "0xFa87a9fab7F0222f7d6D190A7C7ce6E48547aef4",
        "1000000000000000000000"
      ],
      "transaction": {
        "from": "0xfa87a9fab7f0222f7d6d190a7c7ce6e48547aef4",
        "to": "0x6bd1a2c15ecb4901208dcc4133d10836f0cde927",
        "gas": "0xc1cb",
        "value": "0x0",
        "input": "0x40c10f19000000000000000000000000fa87a9fab7f0222f7d6d190a7c7ce6e48547aef400000000000000000000000000000000000000000000003635c9adc5dea00000",
        "nonce": "0x2",
        "chainId": "0x14a34"
      },
      "additionalContracts": [],
      "isFixedGasLimit": false
    },
    {
      "hash": "0xa866101d2b80864cc9b640c1ca16dc92aeef8ce52ceee00043b654dc33b8c754",
      "transactionType": "CALL",
      "contractName": null,
      "contractAddress": "0x6bd1a2c15ecb4901208dcc4133d10836f0cde927",
      "function": "approve(address,uint256)",
      "arguments": [
        "0x474db0ce37c079b05f8D38F0046581206E38a604",
        "1000000000000000000000000"
      ],
      "transaction": {
        "from": "0xfa87a9fab7f0222f7d6d190a7c7ce6e48547aef4",
        "to": "0x6bd1a2c15ecb4901208dcc4133d10836f0cde927",
        "gas": "0x94f4",
        "value": "0x0",
        "input": "0x095ea7b3000000000000000000000000474db0ce37c079b05f8d38f0046581206e38a60400000000000000000000000000000000000000000000d3c21bcecceda1000000",
        "nonce": "0x3",
        "chainId": "0x14a34"
      },
      "additionalContracts": [],
      "isFixedGasLimit": false
    },
    {
      "hash": "0xbebadf5d09c82b83a5a17406a2042a223ab554c86b17a15ceef057d7dd7a33b6",
      "transactionType": "CALL",
      "contractName": null,
      "contractAddress": "0x6bd1a2c15ecb4901208dcc4133d10836f0cde927",
      "function": "approve(address,uint256)",
      "arguments": [
        "0xf2660C5fCb08b02888f32f89a94BAf0169fdFb01",
        "1000000000000000000000000"
      ],
      "transaction": {
        "from": "0xfa87a9fab7f0222f7d6d190a7c7ce6e48547aef4",
        "to": "0x6bd1a2c15ecb4901208dcc4133d10836f0cde927",
        "gas": "0xf80d",
        "value": "0x0",
        "input": "0x095ea7b3000000000000000000000000f2660c5fcb08b02888f32f89a94baf0169fdfb0100000000000000000000000000000000000000000000d3c21bcecceda1000000",
        "nonce": "0x4",
        "chainId": "0x14a34"
      },
      "additionalContracts": [],
      "isFixedGasLimit": false
    }
  ],
  "receipts": [
    {
      "status": "0x1",
      "cumulativeGasUsed": "0x20b9ff",
      "logs": [
        {
          "address": "0x6bd1a2c15ecb4901208dcc4133d10836f0cde927",
          "topics": [
            "0xddf252ad1be2c89b69c2b068fc378daa952ba7f163c4a11628f55a4df523b3ef",
            "0x0000000000000000000000000000000000000000000000000000000000000000",
            "0x000000000000000000000000fa87a9fab7f0222f7d6d190a7c7ce6e48547aef4"
          ],
          "data": "0x00000000000000000000000000000000000000000000003635c9adc5dea00000",
          "blockHash": "0x482933484efad8deb1e77513e869f1996f863e9d22b6ae5379ade5c283238b85",
          "blockNumber": "0xb789e3",
          "transactionHash": "0xc4aca821c25a6b9518a6a240250c8a22917ed7e8554fdfaf3d734e593ab18a0a",
          "transactionIndex": "0xb",
          "logIndex": "0x28",
          "removed": false
        }
      ],
      "logsBloom": "0x00000000000000000000000000000100000000000000000000000000000000000000000000000000000000000000000000000000000000000000000000000000000000000000000000000008000000000000000000000000000000000000000000000000020000000000000000000800000000000000200000000010000000000000000000000000000000000000000000000000000000400000000000000000002000000000000000000000000000000000000000200000000000000000000000000002000000000000000000000001000000000000000000000000000020000000000000000000000000000000000000000000000000000000000000000000",
      "type": "0x2",
      "transactionHash": "0xc4aca821c25a6b9518a6a240250c8a22917ed7e8554fdfaf3d734e593ab18a0a",
      "transactionIndex": "0xb",
      "blockHash": "0x482933484efad8deb1e77513e869f1996f863e9d22b6ae5379ade5c283238b85",
      "blockNumber": "0xb789e3",
      "gasUsed": "0x8483",
      "effectiveGasPrice": "0x310a8",
      "from": "0xfa87a9fab7f0222f7d6d190a7c7ce6e48547aef4",
      "to": "0x6bd1a2c15ecb4901208dcc4133d10836f0cde927",
      "contractAddress": null,
      "l1BaseFeeScalar": "0x44d",
      "l1BlobBaseFee": "0xea",
      "l1BlobBaseFeeScalar": "0xa118b",
      "l1Fee": "0x22a48f5cc7",
      "l1GasPrice": "0x13aa609820",
      "l1GasUsed": "0x640"
    },
    {
      "status": "0x1",
      "cumulativeGasUsed": "0x18a715",
      "logs": [
        {
          "address": "0x6bd1a2c15ecb4901208dcc4133d10836f0cde927",
          "topics": [
            "0x8c5be1e5ebec7d5bd14f71427d1e84f3dd0314c0f7b2291e5b200ac8c7c3b925",
            "0x000000000000000000000000fa87a9fab7f0222f7d6d190a7c7ce6e48547aef4",
            "0x000000000000000000000000474db0ce37c079b05f8d38f0046581206e38a604"
          ],
          "data": "0x00000000000000000000000000000000000000000000d3c21bcecceda1000000",
          "blockHash": "0x1bc4b896e92de3594bbc98526ebdda14d212ad86e096304ddc8866d0fce39057",
          "blockNumber": "0xb789e7",
          "transactionHash": "0xa866101d2b80864cc9b640c1ca16dc92aeef8ce52ceee00043b654dc33b8c754",
          "transactionIndex": "0x3",
          "logIndex": "0x1f",
          "removed": false
        }
      ],
      "logsBloom": "0x00000000000000000000000000000100000000000000000000000000000000000000000000000000000000000000000000000000000000000000000000200000000000000000000000000000000000000000000000000000000000000000000000000000000000000000000000000000000000000000200000000000000000000000000000000000000000000000000000000000000002400000000000000000022000000000000004000000000000000000000000200000000000000000000000000000000000000000000000400001000000000000000000000000000000000010000000000000000000000000000000000000000000000000000000000000",
      "type": "0x2",
      "transactionHash": "0xa866101d2b80864cc9b640c1ca16dc92aeef8ce52ceee00043b654dc33b8c754",
      "transactionIndex": "0x3",
      "blockHash": "0x1bc4b896e92de3594bbc98526ebdda14d212ad86e096304ddc8866d0fce39057",
      "blockNumber": "0xb789e7",
      "gasUsed": "0x65da",
      "effectiveGasPrice": "0x310a4",
      "from": "0xfa87a9fab7f0222f7d6d190a7c7ce6e48547aef4",
      "to": "0x6bd1a2c15ecb4901208dcc4133d10836f0cde927",
      "contractAddress": null,
      "l1BaseFeeScalar": "0x44d",
      "l1BlobBaseFee": "0xea",
      "l1BlobBaseFeeScalar": "0xa118b",
      "l1Fee": "0x2101dea100",
      "l1GasPrice": "0x12bcb37dc0",
      "l1GasUsed": "0x640"
    },
    {
      "status": "0x1",
      "cumulativeGasUsed": "0x2c9b48",
      "logs": [
        {
          "address": "0x6bd1a2c15ecb4901208dcc4133d10836f0cde927",
          "topics": [
            "0x8c5be1e5ebec7d5bd14f71427d1e84f3dd0314c0f7b2291e5b200ac8c7c3b925",
            "0x000000000000000000000000fa87a9fab7f0222f7d6d190a7c7ce6e48547aef4",
            "0x000000000000000000000000f2660c5fcb08b02888f32f89a94baf0169fdfb01"
          ],
          "data": "0x00000000000000000000000000000000000000000000d3c21bcecceda1000000",
          "blockHash": "0xaa1930adf220073e744a307ad7b3df957e4a61fcbdb8f9b39422ad55a89a2c76",
          "blockNumber": "0xb789eb",
          "transactionHash": "0xbebadf5d09c82b83a5a17406a2042a223ab554c86b17a15ceef057d7dd7a33b6",
          "transactionIndex": "0x6",
          "logIndex": "0x3a",
          "removed": false
        }
      ],
      "logsBloom": "0x00000000000000000000001000000100000000000000000000000000000000000000000000000000000000000000000000000000000000000000000000200000000000000000000000000000000000000000000000000000000000000000000800000000000000000000000000000000000000000000200000000000000000000000000000000000000000000000000000000000000000400000000000000000022000000000000000000000000000000000000000200000000000000000000000000000000008000000000000000001000000000000000000000000000000000010000000000000000000000000000000000000000000000000000000000000",
      "type": "0x2",
      "transactionHash": "0xbebadf5d09c82b83a5a17406a2042a223ab554c86b17a15ceef057d7dd7a33b6",
      "transactionIndex": "0x6",
      "blockHash": "0xaa1930adf220073e744a307ad7b3df957e4a61fcbdb8f9b39422ad55a89a2c76",
      "blockNumber": "0xb789eb",
      "gasUsed": "0xb396",
      "effectiveGasPrice": "0x3109e",
      "from": "0xfa87a9fab7f0222f7d6d190a7c7ce6e48547aef4",
      "to": "0x6bd1a2c15ecb4901208dcc4133d10836f0cde927",
      "contractAddress": null,
      "l1BaseFeeScalar": "0x44d",
      "l1BlobBaseFee": "0xd8",
      "l1BlobBaseFeeScalar": "0xa118b",
      "l1Fee": "0x20af0b9d46",
      "l1GasPrice": "0x128daf46b2",
      "l1GasUsed": "0x640"
    }
  ],
  "libraries": [],
  "pending": [],
  "returns": {},
  "timestamp": 1719825084,
  "chain": 84532,
  "commit": "9753a12"
}