{
  "transactions": [
    {
      "hash": "0xbf9ca7d4681d7b69ab338a5144cd3daf292cccc605ae6337f95fff7f948edf6b",
      "transactionType": "CALL",
      "contractName": null,
      "contractAddress": "0x4dc64bcf2e5b50ef9c45f17b32acf559602cb07c",
      "function": "setChainToPeripheryContract(uint256,address)",
      "arguments": [
        "80002",
        "0xC61bD2bfc2e0e0E7e6dCa632f9c1C5CA7AaFA4BD"
      ],
      "transaction": {
        "from": "0x00e3cc76da72cf673e4429e2d527388956af61ef",
        "to": "0x4dc64bcf2e5b50ef9c45f17b32acf559602cb07c",
        "gas": "0x1cc0e",
        "value": "0x0",
        "input": "0x5e0b30db0000000000000000000000000000000000000000000000000000000000013882000000000000000000000000c61bd2bfc2e0e0e7e6dca632f9c1c5ca7aafa4bd",
        "nonce": "0x178",
        "chainId": "0x13bb"
      },
      "additionalContracts": [],
      "isFixedGasLimit": false
    },
    {
      "hash": "0x92cb11eb948edebbdc28abe5dc5557950614d07841107dccf103a567f7bb4060",
      "transactionType": "CALL",
      "contractName": null,
      "contractAddress": "0x4dc64bcf2e5b50ef9c45f17b32acf559602cb07c",
      "function": "processIntent(((address,bytes),address,bytes))",
      "arguments": [
        "((0x4Dc64BcF2e5b50eF9C45f17b32acf559602CB07c, 0x04717aca000000000000000000000000c314bbe792f2853a39a7b2ecafbc472ccde1715800000000000000000000000000000000000000000000000029a2241af62c00000000000000000000000000000000000000000000000000000000000000013882), 0xc314bBE792F2853a39a7B2EcaFbc472CCdE17158, 0xa03a570837eb54460939e19110f419f29be81933b0cfdbbbae1be4715f8b3f141967d9af1e22979e98a7f6e325e0f63213e8f2e002c59f6e1dd08329d5b513681b)"
      ],
      "transaction": {
        "from": "0x00e3cc76da72cf673e4429e2d527388956af61ef",
        "to": "0x4dc64bcf2e5b50ef9c45f17b32acf559602cb07c",
        "gas": "0x2f5fd",
        "value": "0x0",
        "input": "0x57d79fcd00000000000000000000000000000000000000000000000000000000000000200000000000000000000000000000000000000000000000000000000000000060000000000000000000000000c314bbe792f2853a39a7b2ecafbc472ccde1715800000000000000000000000000000000000000000000000000000000000001400000000000000000000000004dc64bcf2e5b50ef9c45f17b32acf559602cb07c0000000000000000000000000000000000000000000000000000000000000040000000000000000000000000000000000000000000000000000000000000006404717aca000000000000000000000000c314bbe792f2853a39a7b2ecafbc472ccde1715800000000000000000000000000000000000000000000000029a2241af62c00000000000000000000000000000000000000000000000000000000000000013882000000000000000000000000000000000000000000000000000000000000000000000000000000000000000000000000000000000000000000000041a03a570837eb54460939e19110f419f29be81933b0cfdbbbae1be4715f8b3f141967d9af1e22979e98a7f6e325e0f63213e8f2e002c59f6e1dd08329d5b513681b00000000000000000000000000000000000000000000000000000000000000",
        "nonce": "0x179",
        "chainId": "0x13bb"
      },
      "additionalContracts": [],
      "isFixedGasLimit": false
    }
  ],
  "receipts": [
    {
      "status": "0x1",
      "cumulativeGasUsed": "0x1f1c7",
      "logs": [
        {
          "address": "0x4dc64bcf2e5b50ef9c45f17b32acf559602cb07c",
          "topics": [
            "0x767785ec8a0326548b9a53e8e065f90615a014cda2b32d3d39845f234a37f8e4"
          ],
          "data": "0x000000000000000000000000c61bd2bfc2e0e0e7e6dca632f9c1c5ca7aafa4bd0000000000000000000000000000000000000000000000000000000000013882",
          "blockHash": "0x574809b0b3cfae0142320eba02a0679a6ae8d7543c149cc2ac9de038e45ede1b",
          "blockNumber": "0x3d8c71",
          "transactionHash": "0xbf9ca7d4681d7b69ab338a5144cd3daf292cccc605ae6337f95fff7f948edf6b",
          "transactionIndex": "0x1",
          "logIndex": "0x0",
          "removed": false
        }
      ],
      "logsBloom": "0x00000000000000000000000080000000000000000000000000000000000000000000000000000000000000000000000000000000020000000000000000000000000000000000000000000000000000000000000000000000000000000000000000000000000000000000000040000000000000000000000000000000000000002000000000000000000000000000000000000000000000000000000000000000000000000000000000000000000000000000000010000000000000000000000000000000000000000000000000000000000000000000000000000000000000000000000000000200000000000000000000000000000000000000000000000000",
      "type": "0x2",
      "transactionHash": "0xbf9ca7d4681d7b69ab338a5144cd3daf292cccc605ae6337f95fff7f948edf6b",
      "transactionIndex": "0x1",
      "blockHash": "0x574809b0b3cfae0142320eba02a0679a6ae8d7543c149cc2ac9de038e45ede1b",
      "blockNumber": "0x3d8c71",
      "gasUsed": "0x13a92",
      "effectiveGasPrice": "0xfd",
      "from": "0x00e3cc76da72cf673e4429e2d527388956af61ef",
      "to": "0x4dc64bcf2e5b50ef9c45f17b32acf559602cb07c",
      "contractAddress": null,
      "l1Fee": "0x3a40788ede90",
      "l1FeeScalar": "1",
      "l1GasPrice": "0x35e25f54c",
      "l1GasUsed": "0x114c"
    },
    {
      "status": "0x1",
      "cumulativeGasUsed": "0x3f810",
      "logs": [
        {
          "address": "0x4dc64bcf2e5b50ef9c45f17b32acf559602cb07c",
          "topics": [
            "0xdf8644c0a4c21ed214ce69f395675b3a5fcd1039083daea5058898de40ea3149"
          ],
          "data": "0x000000000000000000000000c314bbe792f2853a39a7b2ecafbc472ccde1715800000000000000000000000000000000000000000000000029a2241af62c00000000000000000000000000000000000000000000000000000000000000013882",
          "blockHash": "0x574809b0b3cfae0142320eba02a0679a6ae8d7543c149cc2ac9de038e45ede1b",
          "blockNumber": "0x3d8c71",
          "transactionHash": "0x92cb11eb948edebbdc28abe5dc5557950614d07841107dccf103a567f7bb4060",
          "transactionIndex": "0x2",
          "logIndex": "0x1",
          "removed": false
        }
      ],
      "logsBloom": "0x00000000000000000000000000000000000000000000000000000000000000000000000000001000000000000000000000000000020000000000000000000000000000000000000000000000000000000000000000000000000000000000000000000000000000000000000040000000000000000000000100000000000000002000000080000000000000000000000000000000000000000000000000000000000000000000000000000000000000000000000000000000000000000000000000000000000000000000000000000000000000000000000000000000000000000000000000000000000000000000000000000000000000000000000000000000",
      "type": "0x2",
      "transactionHash": "0x92cb11eb948edebbdc28abe5dc5557950614d07841107dccf103a567f7bb4060",
      "transactionIndex": "0x2",
      "blockHash": "0x574809b0b3cfae0142320eba02a0679a6ae8d7543c149cc2ac9de038e45ede1b",
      "blockNumber": "0x3d8c71",
      "gasUsed": "0x20649",
      "effectiveGasPrice": "0xfd",
      "from": "0x00e3cc76da72cf673e4429e2d527388956af61ef",
      "to": "0x4dc64bcf2e5b50ef9c45f17b32acf559602cb07c",
      "contractAddress": null,
      "l1Fee": "0x63fb06e24040",
      "l1FeeScalar": "1",
      "l1GasPrice": "0x35e25f54c",
      "l1GasUsed": "0x1db0"
    }
  ],
  "libraries": [],
  "pending": [],
  "returns": {},
  "timestamp": 1719892550,
  "chain": 5051,
  "commit": "9753a12"
}