{
  "transactions": [
    {
      "hash": "0x97a248b8953b4d3b669cc0c329940a9172158e29de90e5445f192008508e6c4e",
      "transactionType": "CALL",
      "contractName": null,
      "contractAddress": "0xe4c65569df195bdcbc81f519eb2c824796f4eabf",
      "function": "setChainToPeripheryContract(uint256,address)",
      "arguments": [
        "80002",
        "0x172A014aAA772E7634E051d2f5ecC424d95Df920"
      ],
      "transaction": {
        "from": "0x00e3cc76da72cf673e4429e2d527388956af61ef",
        "to": "0xe4c65569df195bdcbc81f519eb2c824796f4eabf",
        "gas": "0x1cc0e",
        "value": "0x0",
        "input": "0x5e0b30db0000000000000000000000000000000000000000000000000000000000013882000000000000000000000000172a014aaa772e7634e051d2f5ecc424d95df920",
        "nonce": "0x167",
        "chainId": "0x13bb"
      },
      "additionalContracts": [],
      "isFixedGasLimit": false
    },
    {
      "hash": "0x59c22b42530cd977da4d6b6ee0e8c4eec17a3978acac531ef6d2e2ed99206510",
      "transactionType": "CALL",
      "contractName": null,
      "contractAddress": "0xe4c65569df195bdcbc81f519eb2c824796f4eabf",
      "function": "processIntent(((address,bytes),address,bytes))",
      "arguments": [
        "((0xE4c65569df195BDcBC81f519eb2c824796F4EaBf, 0x04717aca000000000000000000000000c314bbe792f2853a39a7b2ecafbc472ccde171580000000000000000000000000000000000000000000000000429d069189e00000000000000000000000000000000000000000000000000000000000000013882), 0xc314bBE792F2853a39a7B2EcaFbc472CCdE17158, 0x4a4f2cea5d8ce278930c1c5f030a5617adc7f7ae6dfe46bb396969de2d70445e252cfa09077f1c1b0e29fcc44a7d79b341ef5b485cdfca6ae63c1fba9156d9641b)"
      ],
      "transaction": {
        "from": "0x00e3cc76da72cf673e4429e2d527388956af61ef",
        "to": "0xe4c65569df195bdcbc81f519eb2c824796f4eabf",
        "gas": "0x32824",
        "value": "0x0",
        "input": "0x57d79fcd00000000000000000000000000000000000000000000000000000000000000200000000000000000000000000000000000000000000000000000000000000060000000000000000000000000c314bbe792f2853a39a7b2ecafbc472ccde171580000000000000000000000000000000000000000000000000000000000000140000000000000000000000000e4c65569df195bdcbc81f519eb2c824796f4eabf0000000000000000000000000000000000000000000000000000000000000040000000000000000000000000000000000000000000000000000000000000006404717aca000000000000000000000000c314bbe792f2853a39a7b2ecafbc472ccde171580000000000000000000000000000000000000000000000000429d069189e000000000000000000000000000000000000000000000000000000000000000138820000000000000000000000000000000000000000000000000000000000000000000000000000000000000000000000000000000000000000000000414a4f2cea5d8ce278930c1c5f030a5617adc7f7ae6dfe46bb396969de2d70445e252cfa09077f1c1b0e29fcc44a7d79b341ef5b485cdfca6ae63c1fba9156d9641b00000000000000000000000000000000000000000000000000000000000000",
        "nonce": "0x168",
        "chainId": "0x13bb"
      },
      "additionalContracts": [],
      "isFixedGasLimit": false
    }
  ],
  "receipts": [
    {
      "status": "0x1",
      "cumulativeGasUsed": "0x1f1c7",
      "logs": [
        {
          "address": "0xe4c65569df195bdcbc81f519eb2c824796f4eabf",
          "topics": [
            "0x767785ec8a0326548b9a53e8e065f90615a014cda2b32d3d39845f234a37f8e4"
          ],
          "data": "0x000000000000000000000000172a014aaa772e7634e051d2f5ecc424d95df9200000000000000000000000000000000000000000000000000000000000013882",
          "blockHash": "0xc8f7b4e0e34f90601f51fbead111450546feecceb7bbe666c85f89e51d36b9f5",
          "blockNumber": "0x3d3eb4",
          "transactionHash": "0x97a248b8953b4d3b669cc0c329940a9172158e29de90e5445f192008508e6c4e",
          "transactionIndex": "0x1",
          "logIndex": "0x0",
          "removed": false
        }
      ],
      "logsBloom": "0x00000000000000000000000080000000000000000000000000000000000000000000000000000000000000000000000000000000000000000000000000000000000000000000000000000000000000000000000000000000000000000000000000000000000000000000000000000000000000000000000000000000000000000000000000000000000000000000000000000000000000000000000000000000000810000000000000000000000000000000000010000000000000000000000000000000000000000000000040000000000000000000000000000000000000000000000000000200000000000000000000000000000000000000000000000000",
      "type": "0x2",
      "transactionHash": "0x97a248b8953b4d3b669cc0c329940a9172158e29de90e5445f192008508e6c4e",
      "transactionIndex": "0x1",
      "blockHash": "0xc8f7b4e0e34f90601f51fbead111450546feecceb7bbe666c85f89e51d36b9f5",
      "blockNumber": "0x3d3eb4",
      "gasUsed": "0x13a92",
      "effectiveGasPrice": "0xfd",
      "from": "0x00e3cc76da72cf673e4429e2d527388956af61ef",
      "to": "0xe4c65569df195bdcbc81f519eb2c824796f4eabf",
      "contractAddress": null,
      "l1Fee": "0x4e5754243e58",
      "l1FeeScalar": "1",
      "l1GasPrice": "0x48457e0e1",
      "l1GasUsed": "0x1158"
    },
    {
      "status": "0x1",
      "cumulativeGasUsed": "0x43adc",
      "logs": [
        {
          "address": "0xe4c65569df195bdcbc81f519eb2c824796f4eabf",
          "topics": [
            "0xdf8644c0a4c21ed214ce69f395675b3a5fcd1039083daea5058898de40ea3149"
          ],
          "data": "0x000000000000000000000000c314bbe792f2853a39a7b2ecafbc472ccde171580000000000000000000000000000000000000000000000000429d069189e00000000000000000000000000000000000000000000000000000000000000013882",
          "blockHash": "0xc8f7b4e0e34f90601f51fbead111450546feecceb7bbe666c85f89e51d36b9f5",
          "blockNumber": "0x3d3eb4",
          "transactionHash": "0x59c22b42530cd977da4d6b6ee0e8c4eec17a3978acac531ef6d2e2ed99206510",
          "transactionIndex": "0x2",
          "logIndex": "0x1",
          "removed": false
        }
      ],
      "logsBloom": "0x00000000000000000000000000000000000000000000000000000000000000000000000000001000000000000000000000000000000000000000000000000000000000000000000000000000000000000000000000000000000000000000000000000000000000000000000000000000000000000000000100000000000000000000000080000000000000000000000000000000000000000000000000000000000810000000000000000000000000000000000000000000000000000000000000000000000000000000000040000000000000000000000000000000000000000000000000000000000000000000000000000000000000000000000000000000",
      "type": "0x2",
      "transactionHash": "0x59c22b42530cd977da4d6b6ee0e8c4eec17a3978acac531ef6d2e2ed99206510",
      "transactionIndex": "0x2",
      "blockHash": "0xc8f7b4e0e34f90601f51fbead111450546feecceb7bbe666c85f89e51d36b9f5",
      "blockNumber": "0x3d3eb4",
      "gasUsed": "0x24915",
      "effectiveGasPrice": "0xfd",
      "from": "0x00e3cc76da72cf673e4429e2d527388956af61ef",
      "to": "0xe4c65569df195bdcbc81f519eb2c824796f4eabf",
      "contractAddress": null,
      "l1Fee": "0x8618f0e417b0",
      "l1FeeScalar": "1",
      "l1GasPrice": "0x48457e0e1",
      "l1GasUsed": "0x1db0"
    }
  ],
  "libraries": [],
  "pending": [],
  "returns": {},
  "timestamp": 1719852748,
  "chain": 5051,
  "commit": "9753a12"
}