{
  "transactions": [
    {
      "hash": "0xd4e868cc275c0ea01b99f65428c03214c33a6a267698718526c44ef3e372b8c8",
      "transactionType": "CALL",
      "contractName": null,
      "contractAddress": "0x59ec62ced14a0ebe75e7b48b65da4a0db3f777c5",
      "function": "setChainToPeripheryContract(uint256,address)",
      "arguments": [
        "80002",
        "0x2Fa5Ac9Be2b60cBE823EEab6D989da2832062601"
      ],
      "transaction": {
        "from": "0x00e3cc76da72cf673e4429e2d527388956af61ef",
        "to": "0x59ec62ced14a0ebe75e7b48b65da4a0db3f777c5",
        "gas": "0x1cc0e",
        "value": "0x0",
        "input": "0x5e0b30db00000000000000000000000000000000000000000000000000000000000138820000000000000000000000002fa5ac9be2b60cbe823eeab6d989da2832062601",
        "nonce": "0x2b7",
        "chainId": "0x13bb"
      },
      "additionalContracts": [],
      "isFixedGasLimit": false
    },
    {
      "hash": "0xe5dfb7730a9299803198da9deceba5b0a934125dc7cc2806a061741d8f5b82fc",
      "transactionType": "CALL",
      "contractName": null,
      "contractAddress": "0x59ec62ced14a0ebe75e7b48b65da4a0db3f777c5",
      "function": "processIntent(((address,bytes),address,bytes))",
      "arguments": [
        "((0x59EC62CED14a0ebE75E7b48b65dA4a0db3F777C5, 0x04717aca000000000000000000000000c314bbe792f2853a39a7b2ecafbc472ccde1715800000000000000000000000000000000000000000000000029a2241af62c00000000000000000000000000000000000000000000000000000000000000013882), 0xc314bBE792F2853a39a7B2EcaFbc472CCdE17158, 0xa41df34f445f9dfcf1af04869b9d63e04ce15beabe1cd5ed0df977ea07e0ee932d1d738ef1ee0538beccf1e937134acb039fd8592fe07a1a973a785d499f953f1c)"
      ],
      "transaction": {
        "from": "0x00e3cc76da72cf673e4429e2d527388956af61ef",
        "to": "0x59ec62ced14a0ebe75e7b48b65da4a0db3f777c5",
        "gas": "0x2f5fd",
        "value": "0x0",
        "input": "0x57d79fcd00000000000000000000000000000000000000000000000000000000000000200000000000000000000000000000000000000000000000000000000000000060000000000000000000000000c314bbe792f2853a39a7b2ecafbc472ccde17158000000000000000000000000000000000000000000000000000000000000014000000000000000000000000059ec62ced14a0ebe75e7b48b65da4a0db3f777c50000000000000000000000000000000000000000000000000000000000000040000000000000000000000000000000000000000000000000000000000000006404717aca000000000000000000000000c314bbe792f2853a39a7b2ecafbc472ccde1715800000000000000000000000000000000000000000000000029a2241af62c00000000000000000000000000000000000000000000000000000000000000013882000000000000000000000000000000000000000000000000000000000000000000000000000000000000000000000000000000000000000000000041a41df34f445f9dfcf1af04869b9d63e04ce15beabe1cd5ed0df977ea07e0ee932d1d738ef1ee0538beccf1e937134acb039fd8592fe07a1a973a785d499f953f1c00000000000000000000000000000000000000000000000000000000000000",
        "nonce": "0x2b8",
        "chainId": "0x13bb"
      },
      "additionalContracts": [],
      "isFixedGasLimit": false
    }
  ],
  "receipts": [
    {
      "status": "0x1",
      "cumulativeGasUsed": "0x23493",
      "logs": [
        {
          "address": "0x59ec62ced14a0ebe75e7b48b65da4a0db3f777c5",
          "topics": [
            "0x767785ec8a0326548b9a53e8e065f90615a014cda2b32d3d39845f234a37f8e4"
          ],
          "data": "0x0000000000000000000000002fa5ac9be2b60cbe823eeab6d989da28320626010000000000000000000000000000000000000000000000000000000000013882",
          "blockHash": "0xbe2ac146b95e56b2f22ee9c0bc500e59542a13dcc0373a2ed1396e13515553eb",
          "blockNumber": "0x3d9091",
          "transactionHash": "0xd4e868cc275c0ea01b99f65428c03214c33a6a267698718526c44ef3e372b8c8",
          "transactionIndex": "0x1",
          "logIndex": "0x0",
          "removed": false
        }
      ],
      "logsBloom": "0x00000000000000000000000080000000000000000200000000000000000000000000000000000000000000000000000000000000000000000000000000000000000000000100000000000000000000000000000000000000000000000000000000000000000000000000000000000000000000000000000000000000000000000000000000000000000000000000000000000000000000000000000000000000000000000000000000000000000000000400000010000000000000000000000000000000000000000000000000000000000000000000000000000000000000000000000000000200000000000000000000000000000000000000000000000000",
      "type": "0x2",
      "transactionHash": "0xd4e868cc275c0ea01b99f65428c03214c33a6a267698718526c44ef3e372b8c8",
      "transactionIndex": "0x1",
      "blockHash": "0xbe2ac146b95e56b2f22ee9c0bc500e59542a13dcc0373a2ed1396e13515553eb",
      "blockNumber": "0x3d9091",
      "gasUsed": "0x13a92",
      "effectiveGasPrice": "0xfd",
      "from": "0x00e3cc76da72cf673e4429e2d527388956af61ef",
      "to": "0x59ec62ced14a0ebe75e7b48b65da4a0db3f777c5",
      "contractAddress": null,
      "l1Fee": "0xb48875daa428",
      "l1FeeScalar": "1",
      "l1GasPrice": "0xa68bb9c0f",
      "l1GasUsed": "0x1158"
    },
    {
      "status": "0x1",
      "cumulativeGasUsed": "0x43adc",
      "logs": [
        {
          "address": "0x59ec62ced14a0ebe75e7b48b65da4a0db3f777c5",
          "topics": [
            "0xdf8644c0a4c21ed214ce69f395675b3a5fcd1039083daea5058898de40ea3149"
          ],
          "data": "0x000000000000000000000000c314bbe792f2853a39a7b2ecafbc472ccde1715800000000000000000000000000000000000000000000000029a2241af62c00000000000000000000000000000000000000000000000000000000000000013882",
          "blockHash": "0xbe2ac146b95e56b2f22ee9c0bc500e59542a13dcc0373a2ed1396e13515553eb",
          "blockNumber": "0x3d9091",
          "transactionHash": "0xe5dfb7730a9299803198da9deceba5b0a934125dc7cc2806a061741d8f5b82fc",
          "transactionIndex": "0x2",
          "logIndex": "0x1",
          "removed": false
        }
      ],
      "logsBloom": "0x00000000000000000000000000000000000000000200000000000000000000000000000000001000000000000000000000000000000000000000000000000000000000000100000000000000000000000000000000000000000000000000000000000000000000000000000000000000000000000000000100000000000000000000000080000000000000000000000000000000000000000000000000000000000000000000000000000000000000000400000000000000000000000000000000000000000000000000000000000000000000000000000000000000000000000000000000000000000000000000000000000000000000000000000000000000",
      "type": "0x2",
      "transactionHash": "0xe5dfb7730a9299803198da9deceba5b0a934125dc7cc2806a061741d8f5b82fc",
      "transactionIndex": "0x2",
      "blockHash": "0xbe2ac146b95e56b2f22ee9c0bc500e59542a13dcc0373a2ed1396e13515553eb",
      "blockNumber": "0x3d9091",
      "gasUsed": "0x20649",
      "effectiveGasPrice": "0xfd",
      "from": "0x00e3cc76da72cf673e4429e2d527388956af61ef",
      "to": "0x59ec62ced14a0ebe75e7b48b65da4a0db3f777c5",
      "contractAddress": null,
      "l1Fee": "0x1350541a8fd50",
      "l1FeeScalar": "1",
      "l1GasPrice": "0xa68bb9c0f",
      "l1GasUsed": "0x1db0"
    }
  ],
  "libraries": [],
  "pending": [],
  "returns": {},
  "timestamp": 1719894661,
  "chain": 5051,
  "commit": "9753a12"
}