{
  "transactions": [
    {
      "hash": "0xfc391a8a531b441803a7719e97073b59f750acde667c652c35fad464d221b52c",
      "transactionType": "CALL",
      "contractName": null,
      "contractAddress": "0x6bd1a2c15ecb4901208dcc4133d10836f0cde927",
      "function": "setSigner(address)",
      "arguments": [
        "0x1ec3E56cbE71Db52A44ff2A635c468CAF1Bc77B7"
      ],
      "transaction": {
        "from": "0x00e3cc76da72cf673e4429e2d527388956af61ef",
        "to": "0x6bd1a2c15ecb4901208dcc4133d10836f0cde927",
        "gas": "0xf0e2",
        "value": "0x0",
        "input": "0x6c19e7830000000000000000000000001ec3e56cbe71db52a44ff2a635c468caf1bc77b7",
        "nonce": "0x11",
        "chainId": "0x66eee"
      },
      "additionalContracts": [],
      "isFixedGasLimit": false
    }
  ],
  "receipts": [
    {
      "status": "0x1",
      "cumulativeGasUsed": "0xb7cc",
      "logs": [
        {
          "address": "0x6bd1a2c15ecb4901208dcc4133d10836f0cde927",
          "topics": [
            "0x9eaa897564d022fb8c5efaf0acdb5d9d27b440b2aad44400b6e1c702e65b9ed3"
          ],
          "data": "0x0000000000000000000000001ec3e56cbe71db52a44ff2a635c468caf1bc77b7",
          "blockHash": "0xe4028b9739799aa9614acb1dda30512399dcca90e37d5ad41ec3f1704c3758f5",
          "blockNumber": "0x393e483",
          "transactionHash": "0xfc391a8a531b441803a7719e97073b59f750acde667c652c35fad464d221b52c",
          "transactionIndex": "0x1",
          "logIndex": "0x0",
          "removed": false
        }
      ],
      "logsBloom": "0x00000000000000400000000000000100000000000000000000000000000000000000000000000000000000000000000000000000000000000000000000000000000000000000000000000000000000000000000000000000000000000000000000000000000000000000000000000000000000000000200000000000000000000000000000000000000000000000000000000000000000000000000000000000000000000000000000000000000000000000000000200000000000000000000000000000000000000000000000000000000000000400000000000000000000000000000000000000000000000000040000000000000000000000000000000000",
      "type": "0x2",
      "transactionHash": "0xfc391a8a531b441803a7719e97073b59f750acde667c652c35fad464d221b52c",
      "transactionIndex": "0x1",
      "blockHash": "0xe4028b9739799aa9614acb1dda30512399dcca90e37d5ad41ec3f1704c3758f5",
      "blockNumber": "0x393e483",
      "gasUsed": "0xb7cc",
      "effectiveGasPrice": "0x5f5e100",
      "from": "0x00e3cc76da72cf673e4429e2d527388956af61ef",
      "to": "0x6bd1a2c15ecb4901208dcc4133d10836f0cde927",
      "contractAddress": null,
      "gasUsedForL1": "0x0",
      "l1BlockNumber": "0x5ef7da"
    }
  ],
  "libraries": [],
  "pending": [],
  "returns": {},
  "timestamp": 1719817562,
  "chain": 421614,
  "commit": "9753a12"
}