{
  "transactions": [
    {
      "hash": "0xfe59124dd9339e83fd4a933004ea282c78b05e14c5bf2745de08a6a524ba31f5",
      "transactionType": "CALL",
      "contractName": null,
      "contractAddress": "0x02856b036d41b4299ccbb7a9280c0b09a9988a21",
      "function": "setSigner(address)",
      "arguments": [
        "0x1ec3E56cbE71Db52A44ff2A635c468CAF1Bc77B7"
      ],
      "transaction": {
        "from": "0x00e3cc76da72cf673e4429e2d527388956af61ef",
        "to": "0x02856b036d41b4299ccbb7a9280c0b09a9988a21",
        "gas": "0xfddd",
        "value": "0x0",
        "input": "0x6c19e7830000000000000000000000001ec3e56cbe71db52a44ff2a635c468caf1bc77b7",
        "nonce": "0x22",
        "chainId": "0x13882"
      },
      "additionalContracts": [],
      "isFixedGasLimit": false
    }
  ],
  "receipts": [
    {
      "status": "0x1",
      "cumulativeGasUsed": "0xb7cc",
      "logs": [
        {
          "address": "0x02856b036d41b4299ccbb7a9280c0b09a9988a21",
          "topics": [
            "0x9eaa897564d022fb8c5efaf0acdb5d9d27b440b2aad44400b6e1c702e65b9ed3"
          ],
          "data": "0x0000000000000000000000001ec3e56cbe71db52a44ff2a635c468caf1bc77b7",
          "blockHash": "0xa60ffdf7bf59398a5008973d7433153aa4dba6c381c0bc54f153a1f9d3b5cba0",
          "blockNumber": "0x88556b",
          "transactionHash": "0xfe59124dd9339e83fd4a933004ea282c78b05e14c5bf2745de08a6a524ba31f5",
          "transactionIndex": "0x0",
          "logIndex": "0x0",
          "removed": false
        },
        {
          "address": "0x0000000000000000000000000000000000001010",
          "topics": [
            "0x4dfe1bbbcf077ddc3e01291eea2d5c70c2b422b415d95645b9adcfd678cb1d63",
            "0x0000000000000000000000000000000000000000000000000000000000001010",
            "0x00000000000000000000000000e3cc76da72cf673e4429e2d527388956af61ef",
            "0x0000000000000000000000004ad84f7014b7b44f723f284a85b1662337971439"
          ],
          "data": "0x00000000000000000000000000000000000000000000000000075aea7cd357cc000000000000000000000000000000000000000000000000c9b9cf0643a61d460000000000000000000000000000000000000000000001557c8ee268b7bdec87000000000000000000000000000000000000000000000000c9b2741bc6d2c57a0000000000000000000000000000000000000000000001557c963d5334914453",
          "blockHash": "0xa60ffdf7bf59398a5008973d7433153aa4dba6c381c0bc54f153a1f9d3b5cba0",
          "blockNumber": "0x88556b",
          "transactionHash": "0xfe59124dd9339e83fd4a933004ea282c78b05e14c5bf2745de08a6a524ba31f5",
          "transactionIndex": "0x0",
          "logIndex": "0x1",
          "removed": false
        }
      ],
      "logsBloom": "0x00000000000000400000000000000000000000000000000000000000000000000000000000000000000000000000000000008000000000000000000000400000000000000000000000000000000000900000400000000000000100001000000000000020000000000000000000000000000000000000000080000000000000000000000000000000000000000000000000000000000000000000000000000000200000000000000000000000000000000000000000000000000000000000004000000000000000000001000000000000010000000400000000100000000000000000000000000010000000000000048000000000000001000000000000100000",
      "type": "0x2",
      "transactionHash": "0xfe59124dd9339e83fd4a933004ea282c78b05e14c5bf2745de08a6a524ba31f5",
      "transactionIndex": "0x0",
      "blockHash": "0xa60ffdf7bf59398a5008973d7433153aa4dba6c381c0bc54f153a1f9d3b5cba0",
      "blockNumber": "0x88556b",
      "gasUsed": "0xb7cc",
      "effectiveGasPrice": "0xa3e9ab810",
      "from": "0x00e3cc76da72cf673e4429e2d527388956af61ef",
      "to": "0x02856b036d41b4299ccbb7a9280c0b09a9988a21",
      "contractAddress": null
    }
  ],
  "libraries": [],
  "pending": [],
  "returns": {},
  "timestamp": 1719817336,
  "chain": 80002,
  "commit": "9753a12"
}