{
  "transactions": [
    {
      "hash": "0x046344e2d13e440e6edcab977c58ae2bfe86543322a9cf118d7668d31e541152",
      "transactionType": "CALL",
      "contractName": null,
      "contractAddress": "0x9e63ddd095a4306d9f509fa8e04a270fd847069b",
      "function": "mint(address,uint256)",
      "arguments": [
        "0x5833fd26FB0d30386e6e8eA80cf82C7B8cC82370",
        "10000000000000000000"
      ],
      "transaction": {
        "from": "0x5833fd26fb0d30386e6e8ea80cf82c7b8cc82370",
        "to": "0x9e63ddd095a4306d9f509fa8e04a270fd847069b",
        "gas": "0x15e35",
        "value": "0x0",
        "input": "0x40c10f190000000000000000000000005833fd26fb0d30386e6e8ea80cf82c7b8cc823700000000000000000000000000000000000000000000000008ac7230489e80000",
        "nonce": "0x0",
        "chainId": "0x66eee"
      },
      "additionalContracts": [],
      "isFixedGasLimit": false
    },
    {
      "hash": "0x31daa9b3e4e108bbb32e7377e75eb9398566cfdeffec7d77fded4cfa110a4880",
      "transactionType": "CALL",
      "contractName": null,
      "contractAddress": "0x9e63ddd095a4306d9f509fa8e04a270fd847069b",
      "function": "approve(address,uint256)",
      "arguments": [
        "0x44bD74B62739de2412b617FD9B2Ee85C998B1494",
        "1000000000000000000000000"
      ],
      "transaction": {
        "from": "0x5833fd26fb0d30386e6e8ea80cf82c7b8cc82370",
        "to": "0x9e63ddd095a4306d9f509fa8e04a270fd847069b",
        "gas": "0xeb66",
        "value": "0x0",
        "input": "0x095ea7b300000000000000000000000044bd74b62739de2412b617fd9b2ee85c998b149400000000000000000000000000000000000000000000d3c21bcecceda1000000",
        "nonce": "0x1",
        "chainId": "0x66eee"
      },
      "additionalContracts": [],
      "isFixedGasLimit": false
    }
  ],
  "receipts": [
    {
      "status": "0x1",
      "cumulativeGasUsed": "0x10a0f",
      "logs": [
        {
          "address": "0x9e63ddd095a4306d9f509fa8e04a270fd847069b",
          "topics": [
            "0xddf252ad1be2c89b69c2b068fc378daa952ba7f163c4a11628f55a4df523b3ef",
            "0x0000000000000000000000000000000000000000000000000000000000000000",
            "0x0000000000000000000000005833fd26fb0d30386e6e8ea80cf82c7b8cc82370"
          ],
          "data": "0x0000000000000000000000000000000000000000000000008ac7230489e80000",
          "blockHash": "0x417d956eaa595b1677f08971bac7af7a95a2f2f4f5bb440e408f259aadf61df2",
          "blockNumber": "0x393ce32",
          "transactionHash": "0x046344e2d13e440e6edcab977c58ae2bfe86543322a9cf118d7668d31e541152",
          "transactionIndex": "0x1",
          "logIndex": "0x0",
          "removed": false
        }
      ],
      "logsBloom": "0x00000000000000000000000000000000000000000000000000000000000000000000000000000000000000000000000000000000000000000100000000000000000000000000000000000008000000000000000008000000000000000000000000000000020000000000000000000800000000000000000000000010000000000000000000000000000000000000000000000000200000000000000000000000000100000000000000000000000000000000000000000000000000000000000000000002000000000080000000000000000000000000000000000000000020000000000000000000000000000000000000000000000000004000000000000000",
      "type": "0x2",
      "transactionHash": "0x046344e2d13e440e6edcab977c58ae2bfe86543322a9cf118d7668d31e541152",
      "transactionIndex": "0x1",
      "blockHash": "0x417d956eaa595b1677f08971bac7af7a95a2f2f4f5bb440e408f259aadf61df2",
      "blockNumber": "0x393ce32",
      "gasUsed": "0x10a0f",
      "effectiveGasPrice": "0x5f5e100",
      "from": "0x5833fd26fb0d30386e6e8ea80cf82c7b8cc82370",
      "to": "0x9e63ddd095a4306d9f509fa8e04a270fd847069b",
      "contractAddress": null,
      "gasUsedForL1": "0x0",
      "l1BlockNumber": "0x5ef755"
    },
    {
      "status": "0x1",
      "cumulativeGasUsed": "0x966d9",
      "logs": [
        {
          "address": "0x9e63ddd095a4306d9f509fa8e04a270fd847069b",
          "topics": [
            "0x8c5be1e5ebec7d5bd14f71427d1e84f3dd0314c0f7b2291e5b200ac8c7c3b925",
            "0x0000000000000000000000005833fd26fb0d30386e6e8ea80cf82c7b8cc82370",
            "0x00000000000000000000000044bd74b62739de2412b617fd9b2ee85c998b1494"
          ],
          "data": "0x00000000000000000000000000000000000000000000d3c21bcecceda1000000",
          "blockHash": "0x554957e838c74ce25326b59d22b95ee2eba37264bfbc2f6b92d5c04d4396d30e",
          "blockNumber": "0x393ce38",
          "transactionHash": "0x31daa9b3e4e108bbb32e7377e75eb9398566cfdeffec7d77fded4cfa110a4880",
          "transactionIndex": "0x3",
          "logIndex": "0x9",
          "removed": false
        }
      ],
      "logsBloom": "0x00000000000000000000000000000000000000000000000000000000000000000000000000000000000000000000000000000000000000000100000000200000000000000000000000000000000000000000000008000000000000000000000000000000000000000000000000008000000000000000000000000000000000000000000000000000000000000000000000000000200000000000000000000000020100000000000000000000000000000000000000000000000000000000000000000000000000000080000000000000000200000000000000000000000000004010000000000000000000000000000000000000000000004000000000000000",
      "type": "0x2",
      "transactionHash": "0x31daa9b3e4e108bbb32e7377e75eb9398566cfdeffec7d77fded4cfa110a4880",
      "transactionIndex": "0x3",
      "blockHash": "0x554957e838c74ce25326b59d22b95ee2eba37264bfbc2f6b92d5c04d4396d30e",
      "blockNumber": "0x393ce38",
      "gasUsed": "0xb396",
      "effectiveGasPrice": "0x5f5e100",
      "from": "0x5833fd26fb0d30386e6e8ea80cf82c7b8cc82370",
      "to": "0x9e63ddd095a4306d9f509fa8e04a270fd847069b",
      "contractAddress": null,
      "gasUsedForL1": "0x0",
      "l1BlockNumber": "0x5ef755"
    }
  ],
  "libraries": [],
  "pending": [],
  "returns": {},
  "timestamp": 1719815818,
  "chain": 421614,
  "commit": "9753a12"
}