{
  "transactions": [
    {
      "hash": "0x6934571510e5693f619c94828aeb8be99a91906b75a81adbc9429b195ca8ce8f",
      "transactionType": "CALL",
      "contractName": null,
      "contractAddress": "0xd456dbcbf79ed12f34bc59b8c38677acac59818c",
      "function": "processIntent(((address,bytes),address,bytes))",
      "arguments": [
        "((0xd456DbCBF79Ed12F34Bc59B8C38677acAC59818c, 0x04717aca000000000000000000000000fa87a9fab7f0222f7d6d190a7c7ce6e48547aef40000000000000000000000000000000000000000f684df56c3e01bc6c73200000000000000000000000000000000000000000000000000000000000000014a34), 0xFa87a9fab7F0222f7d6D190A7C7ce6E48547aef4, 0xd3e3be7a95ae3267b020d811749026a9c78c96833e2e436051c21494e393cf2971d4b96beb622eb43bad1a24a439e1ff394ca28d0d0f600a38ad7c208b60b9041b)"
      ],
      "transaction": {
        "from": "0x00e3cc76da72cf673e4429e2d527388956af61ef",
        "to": "0xd456dbcbf79ed12f34bc59b8c38677acac59818c",
        "gas": "0x2c351",
        "value": "0x0",
        "input": "0x57d79fcd00000000000000000000000000000000000000000000000000000000000000200000000000000000000000000000000000000000000000000000000000000060000000000000000000000000fa87a9fab7f0222f7d6d190a7c7ce6e48547aef40000000000000000000000000000000000000000000000000000000000000140000000000000000000000000d456dbcbf79ed12f34bc59b8c38677acac59818c0000000000000000000000000000000000000000000000000000000000000040000000000000000000000000000000000000000000000000000000000000006404717aca000000000000000000000000fa87a9fab7f0222f7d6d190a7c7ce6e48547aef40000000000000000000000000000000000000000f684df56c3e01bc6c73200000000000000000000000000000000000000000000000000000000000000014a34000000000000000000000000000000000000000000000000000000000000000000000000000000000000000000000000000000000000000000000041d3e3be7a95ae3267b020d811749026a9c78c96833e2e436051c21494e393cf2971d4b96beb622eb43bad1a24a439e1ff394ca28d0d0f600a38ad7c208b60b9041b00000000000000000000000000000000000000000000000000000000000000",
        "nonce": "0x104",
        "chainId": "0x13bb"
      },
      "additionalContracts": [],
      "isFixedGasLimit": false
    }
  ],
  "receipts": [
    {
      "status": "0x1",
      "cumulativeGasUsed": "0x2b73f",
      "logs": [],
      "logsBloom": "0x00000000000000000000000000000000000000000000000000000000000000000000000000000000000000000000000000000000000000000000000000000000000000000000000000000000000000000000000000000000000000000000000000000000000000000000000000000000000000000000000000000000000000000000000000000000000000000000000000000000000000000000000000000000000000000000000000000000000000000000000000000000000000000000000000000000000000000000000000000000000000000000000000000000000000000000000000000000000000000000000000000000000000000000000000000000",
      "type": "0x2",
      "transactionHash": "0x6934571510e5693f619c94828aeb8be99a91906b75a81adbc9429b195ca8ce8f",
      "transactionIndex": "0x1",
      "blockHash": "0x9c75c526ab6bcf3c5e290904f0cbc039c6b4746156a7972b9fa03347d0d853e7",
      "blockNumber": "0x3b1876",
      "gasUsed": "0x20016",
      "effectiveGasPrice": "0xfd",
      "from": "0x00e3cc76da72cf673e4429e2d527388956af61ef",
      "to": "0xd456dbcbf79ed12f34bc59b8c38677acac59818c",
      "contractAddress": null,
      "l1Fee": "0x101d10811b9c0",
      "l1FeeScalar": "1",
      "l1GasPrice": "0x8a13d5312",
      "l1GasUsed": "0x1de0"
    }
  ],
  "libraries": [],
  "pending": [],
  "returns": {},
  "timestamp": 1719571025,
  "chain": 5051,
  "commit": "9753a12"
}