{
  "transactions": [
    {
      "hash": "0x9b1ce13637e994dbfeb1b0cc25f7655e8ce19066a306907c5c9fe3b9441e0080",
      "transactionType": "CALL",
      "contractName": null,
      "contractAddress": "0x9326ce15ec54c57ae2e34e1076e46d592305b759",
      "function": "startAuction()",
      "arguments": [],
      "transaction": {
        "from": "0x00e3cc76da72cf673e4429e2d527388956af61ef",
        "to": "0x9326ce15ec54c57ae2e34e1076e46d592305b759",
        "gas": "0x1292d",
        "value": "0x0",
        "input": "0x6b64c769",
        "nonce": "0x109",
        "chainId": "0x13bb"
      },
      "additionalContracts": [],
      "isFixedGasLimit": false
    },
    {
      "hash": "0x8ad7d2b54320f5690cf44d5561deafd8b76aaf3abb23ae769c25b32de954d9f0",
      "transactionType": "CALL",
      "contractName": null,
      "contractAddress": "0x9326ce15ec54c57ae2e34e1076e46d592305b759",
      "function": "setChainToPeripheryContract(uint256,address)",
      "arguments": [
        "84532",
        "0x6bd1a2c15eCB4901208DCC4133D10836f0CDE927"
      ],
      "transaction": {
        "from": "0x00e3cc76da72cf673e4429e2d527388956af61ef",
        "to": "0x9326ce15ec54c57ae2e34e1076e46d592305b759",
        "gas": "0x20ec2",
        "value": "0x0",
        "input": "0x5e0b30db0000000000000000000000000000000000000000000000000000000000014a340000000000000000000000006bd1a2c15ecb4901208dcc4133d10836f0cde927",
        "nonce": "0x10a",
        "chainId": "0x13bb"
      },
      "additionalContracts": [],
      "isFixedGasLimit": false
    },
    {
      "hash": "0x995dc81d3492945e3377ea2d91268b6f946aa555f7498cd39615815c5ec01df4",
      "transactionType": "CALL",
      "contractName": null,
      "contractAddress": "0x9326ce15ec54c57ae2e34e1076e46d592305b759",
      "function": "processIntent(((address,bytes),address,bytes))",
      "arguments": [
        "((0x9326Ce15EC54C57AE2e34E1076E46d592305B759, 0x04717aca000000000000000000000000fa87a9fab7f0222f7d6d190a7c7ce6e48547aef4000000000000000000000000000000000000000000000000016345785d8a00000000000000000000000000000000000000000000000000000000000000014a34), 0xFa87a9fab7F0222f7d6D190A7C7ce6E48547aef4, 0x78c186884a373e03f4ef6544b6b2a6bd45461abd529365fae61bbcdedf9f3ed37b9d4be1970e003cae084ee978562198dd851813a9474fc00ffb20d851173f691c)"
      ],
      "transaction": {
        "from": "0x00e3cc76da72cf673e4429e2d527388956af61ef",
        "to": "0x9326ce15ec54c57ae2e34e1076e46d592305b759",
        "gas": "0x31f41",
        "value": "0x0",
        "input": "0x57d79fcd00000000000000000000000000000000000000000000000000000000000000200000000000000000000000000000000000000000000000000000000000000060000000000000000000000000fa87a9fab7f0222f7d6d190a7c7ce6e48547aef400000000000000000000000000000000000000000000000000000000000001400000000000000000000000009326ce15ec54c57ae2e34e1076e46d592305b7590000000000000000000000000000000000000000000000000000000000000040000000000000000000000000000000000000000000000000000000000000006404717aca000000000000000000000000fa87a9fab7f0222f7d6d190a7c7ce6e48547aef4000000000000000000000000000000000000000000000000016345785d8a00000000000000000000000000000000000000000000000000000000000000014a3400000000000000000000000000000000000000000000000000000000000000000000000000000000000000000000000000000000000000000000004178c186884a373e03f4ef6544b6b2a6bd45461abd529365fae61bbcdedf9f3ed37b9d4be1970e003cae084ee978562198dd851813a9474fc00ffb20d851173f691c00000000000000000000000000000000000000000000000000000000000000",
        "nonce": "0x10b",
        "chainId": "0x13bb"
      },
      "additionalContracts": [],
      "isFixedGasLimit": false
    }
  ],
  "receipts": [
    {
      "status": "0x1",
      "cumulativeGasUsed": "0x18268",
      "logs": [
        {
          "address": "0x9326ce15ec54c57ae2e34e1076e46d592305b759",
          "topics": [
            "0x1bb96dff6ab5005aff98cdc0cf176bb7d8e0423cb48e02217d35b042cec81e9f"
          ],
          "data": "0x000000000000000000000000000000000000000000000000000000006680d2c8",
          "blockHash": "0x03ec0425d2258c3959dcd541f934c6960b47f55f16902a19d0631008a323808e",
          "blockNumber": "0x3c38b4",
          "transactionHash": "0x9b1ce13637e994dbfeb1b0cc25f7655e8ce19066a306907c5c9fe3b9441e0080",
          "transactionIndex": "0x1",
          "logIndex": "0x0",
          "removed": false
        }
      ],
      "logsBloom": "0x00000000000000000004000000000000000000000000000000000000000000000000000000000000000000000000000000000000000000000010000000000000000000000000000000000000000010000000000000000000000000000000000000000000000000000000000000000000000000000000000000000000000000000000000000000000000000000000000000000000000000000800000000000000000000000800000000000000000000000000000000000000000000000000000000000000000000000000000000000000000000000000000000000000010000000000000000000000000000000000000000000000000000000000000000000000",
      "type": "0x2",
      "transactionHash": "0x9b1ce13637e994dbfeb1b0cc25f7655e8ce19066a306907c5c9fe3b9441e0080",
      "transactionIndex": "0x1",
      "blockHash": "0x03ec0425d2258c3959dcd541f934c6960b47f55f16902a19d0631008a323808e",
      "blockNumber": "0x3c38b4",
      "gasUsed": "0xcb33",
      "effectiveGasPrice": "0xfd",
      "from": "0x00e3cc76da72cf673e4429e2d527388956af61ef",
      "to": "0x9326ce15ec54c57ae2e34e1076e46d592305b759",
      "contractAddress": null,
      "l1Fee": "0x13d97a9b2a84",
      "l1FeeScalar": "1",
      "l1GasPrice": "0x14e3d3625",
      "l1GasUsed": "0xf34"
    },
    {
      "status": "0x1",
      "cumulativeGasUsed": "0x2ffc6",
      "logs": [
        {
          "address": "0x9326ce15ec54c57ae2e34e1076e46d592305b759",
          "topics": [
            "0x767785ec8a0326548b9a53e8e065f90615a014cda2b32d3d39845f234a37f8e4"
          ],
          "data": "0x0000000000000000000000006bd1a2c15ecb4901208dcc4133d10836f0cde9270000000000000000000000000000000000000000000000000000000000014a34",
          "blockHash": "0x03ec0425d2258c3959dcd541f934c6960b47f55f16902a19d0631008a323808e",
          "blockNumber": "0x3c38b4",
          "transactionHash": "0x8ad7d2b54320f5690cf44d5561deafd8b76aaf3abb23ae769c25b32de954d9f0",
          "transactionIndex": "0x2",
          "logIndex": "0x1",
          "removed": false
        }
      ],
      "logsBloom": "0x00000000000000000000000080000000000000000000000000000000000000000000000000000000000000000000000000000000000000000000000000000000000000000000000000000000000010000000000000000000000000000000000000000000000000000000000000000000000000000000000000000000000000000000000000000000000000000000000000000000000000000800000000000000000000000000000000000000000000000000000010000000000000000000000000000000000000000000000000000000000000000000000000000000010000000000000000000200000000000000000000000000000000000000000000000000",
      "type": "0x2",
      "transactionHash": "0x8ad7d2b54320f5690cf44d5561deafd8b76aaf3abb23ae769c25b32de954d9f0",
      "transactionIndex": "0x2",
      "blockHash": "0x03ec0425d2258c3959dcd541f934c6960b47f55f16902a19d0631008a323808e",
      "blockNumber": "0x3c38b4",
      "gasUsed": "0x17d5e",
      "effectiveGasPrice": "0xfd",
      "from": "0x00e3cc76da72cf673e4429e2d527388956af61ef",
      "to": "0x9326ce15ec54c57ae2e34e1076e46d592305b759",
      "contractAddress": null,
      "l1Fee": "0x16954ac487fc",
      "l1FeeScalar": "1",
      "l1GasPrice": "0x14e3d3625",
      "l1GasUsed": "0x114c"
    },
    {
      "status": "0x1",
      "cumulativeGasUsed": "0x5426c",
      "logs": [],
      "logsBloom": "0x00000000000000000000000000000000000000000000000000000000000000000000000000000000000000000000000000000000000000000000000000000000000000000000000000000000000000000000000000000000000000000000000000000000000000000000000000000000000000000000000000000000000000000000000000000000000000000000000000000000000000000000000000000000000000000000000000000000000000000000000000000000000000000000000000000000000000000000000000000000000000000000000000000000000000000000000000000000000000000000000000000000000000000000000000000000",
      "type": "0x2",
      "transactionHash": "0x995dc81d3492945e3377ea2d91268b6f946aa555f7498cd39615815c5ec01df4",
      "transactionIndex": "0x3",
      "blockHash": "0x03ec0425d2258c3959dcd541f934c6960b47f55f16902a19d0631008a323808e",
      "blockNumber": "0x3c38b4",
      "gasUsed": "0x242a6",
      "effectiveGasPrice": "0xfd",
      "from": "0x00e3cc76da72cf673e4429e2d527388956af61ef",
      "to": "0x9326ce15ec54c57ae2e34e1076e46d592305b759",
      "contractAddress": null,
      "l1Fee": "0x26b30e58e0b4",
      "l1FeeScalar": "1",
      "l1GasPrice": "0x14e3d3625",
      "l1GasUsed": "0x1da4"
    }
  ],
  "libraries": [],
  "pending": [],
  "returns": {},
  "timestamp": 1719718603,
  "chain": 5051,
  "commit": "9753a12"
}