{
  "transactions": [
    {
      "hash": "0x6f419a7d3f6bc8875d335b4860428a4b852957da758c849487394a999c1789b5",
      "transactionType": "CALL",
      "contractName": null,
      "contractAddress": "0xeca3f31a6039928287555100212f014d074874b9",
      "function": "startAuction()",
      "arguments": [],
      "transaction": {
        "from": "0x00e3cc76da72cf673e4429e2d527388956af61ef",
        "to": "0xeca3f31a6039928287555100212f014d074874b9",
        "gas": "0x1292d",
        "value": "0x0",
        "input": "0x6b64c769",
        "nonce": "0x133",
        "chainId": "0x13bb"
      },
      "additionalContracts": [],
      "isFixedGasLimit": false
    },
    {
      "hash": "0x86acd424bca1b9ee34776518a771bd102952fe29491935e076197525204f070e",
      "transactionType": "CALL",
      "contractName": null,
      "contractAddress": "0xeca3f31a6039928287555100212f014d074874b9",
      "function": "setChainToPeripheryContract(uint256,address)",
      "arguments": [
        "84532",
        "0x6bd1a2c15eCB4901208DCC4133D10836f0CDE927"
      ],
      "transaction": {
        "from": "0x00e3cc76da72cf673e4429e2d527388956af61ef",
        "to": "0xeca3f31a6039928287555100212f014d074874b9",
        "gas": "0x20ec2",
        "value": "0x0",
        "input": "0x5e0b30db0000000000000000000000000000000000000000000000000000000000014a340000000000000000000000006bd1a2c15ecb4901208dcc4133d10836f0cde927",
        "nonce": "0x134",
        "chainId": "0x13bb"
      },
      "additionalContracts": [],
      "isFixedGasLimit": false
    },
    {
      "hash": "0xade5d13350574673362b7dfee1d63fecc1f8bfc5b81bd609458ae90e51b9b38a",
      "transactionType": "CALL",
      "contractName": null,
      "contractAddress": "0xeca3f31a6039928287555100212f014d074874b9",
      "function": "processIntent(((address,bytes),address,bytes))",
      "arguments": [
        "((0xECa3F31a6039928287555100212f014d074874B9, 0x04717aca000000000000000000000000fa87a9fab7f0222f7d6d190a7c7ce6e48547aef40000000000000000000000000000000000000000000002c68af0bb14000000000000000000000000000000000000000000000000000000000000000000014a34), 0xFa87a9fab7F0222f7d6D190A7C7ce6E48547aef4, 0x62e2491c277fdd29e74c3516b783543814a479eef2ab2736218ae847a4a3e79b298ef8bcc1be412665897b1772c9fa5300d3d2cca6a1890c0effadcb18ea6f741c)"
      ],
      "transaction": {
        "from": "0x00e3cc76da72cf673e4429e2d527388956af61ef",
        "to": "0xeca3f31a6039928287555100212f014d074874b9",
        "gas": "0x34e34",
        "value": "0x0",
        "input": "0x57d79fcd00000000000000000000000000000000000000000000000000000000000000200000000000000000000000000000000000000000000000000000000000000060000000000000000000000000fa87a9fab7f0222f7d6d190a7c7ce6e48547aef40000000000000000000000000000000000000000000000000000000000000140000000000000000000000000eca3f31a6039928287555100212f014d074874b90000000000000000000000000000000000000000000000000000000000000040000000000000000000000000000000000000000000000000000000000000006404717aca000000000000000000000000fa87a9fab7f0222f7d6d190a7c7ce6e48547aef40000000000000000000000000000000000000000000002c68af0bb14000000000000000000000000000000000000000000000000000000000000000000014a3400000000000000000000000000000000000000000000000000000000000000000000000000000000000000000000000000000000000000000000004162e2491c277fdd29e74c3516b783543814a479eef2ab2736218ae847a4a3e79b298ef8bcc1be412665897b1772c9fa5300d3d2cca6a1890c0effadcb18ea6f741c00000000000000000000000000000000000000000000000000000000000000",
        "nonce": "0x135",
        "chainId": "0x13bb"
      },
      "additionalContracts": [],
      "isFixedGasLimit": false
    }
  ],
  "receipts": [
    {
      "status": "0x1",
      "cumulativeGasUsed": "0x1906c",
      "logs": [
        {
          "address": "0xeca3f31a6039928287555100212f014d074874b9",
          "topics": [
            "0x1bb96dff6ab5005aff98cdc0cf176bb7d8e0423cb48e02217d35b042cec81e9f"
          ],
          "data": "0x00000000000000000000000000000000000000000000000000000000668220f2",
          "blockHash": "0x08ca49cfa52d61199ffb0236acdb8ada820759367064af451f26ee02ff07f065",
          "blockNumber": "0x3cdfc9",
          "transactionHash": "0x6f419a7d3f6bc8875d335b4860428a4b852957da758c849487394a999c1789b5",
          "transactionIndex": "0x1",
          "logIndex": "0x0",
          "removed": false
        }
      ],
      "logsBloom": "0x00000000000000000004000000000000800000000000000000000000000000000000000000000000000000000000000000000000000000000010000000000000000000000000000000000000000000000000000000000000000000000000000000000000000000000000000000000000000000000000000000000000000000000000000000000000000000000000000000000000000000000000000000000000000000000800000000000000000000000000000000000000000000000000000000000000000000000000000004000000000000000000000000000000000000000000000000000000000000000000200000000000000000000000000000000000",
      "type": "0x2",
      "transactionHash": "0x6f419a7d3f6bc8875d335b4860428a4b852957da758c849487394a999c1789b5",
      "transactionIndex": "0x1",
      "blockHash": "0x08ca49cfa52d61199ffb0236acdb8ada820759367064af451f26ee02ff07f065",
      "blockNumber": "0x3cdfc9",
      "gasUsed": "0xcb33",
      "effectiveGasPrice": "0xfd",
      "from": "0x00e3cc76da72cf673e4429e2d527388956af61ef",
      "to": "0xeca3f31a6039928287555100212f014d074874b9",
      "contractAddress": null,
      "l1Fee": "0x3a845c5e0590",
      "l1FeeScalar": "1",
      "l1GasPrice": "0x3dc651aca",
      "l1GasUsed": "0xf28"
    },
    {
      "status": "0x1",
      "cumulativeGasUsed": "0x30dca",
      "logs": [
        {
          "address": "0xeca3f31a6039928287555100212f014d074874b9",
          "topics": [
            "0x767785ec8a0326548b9a53e8e065f90615a014cda2b32d3d39845f234a37f8e4"
          ],
          "data": "0x0000000000000000000000006bd1a2c15ecb4901208dcc4133d10836f0cde9270000000000000000000000000000000000000000000000000000000000014a34",
          "blockHash": "0x08ca49cfa52d61199ffb0236acdb8ada820759367064af451f26ee02ff07f065",
          "blockNumber": "0x3cdfc9",
          "transactionHash": "0x86acd424bca1b9ee34776518a771bd102952fe29491935e076197525204f070e",
          "transactionIndex": "0x2",
          "logIndex": "0x1",
          "removed": false
        }
      ],
      "logsBloom": "0x00000000000000000000000080000000800000000000000000000000000000000000000000000000000000000000000000000000000000000000000000000000000000000000000000000000000000000000000000000000000000000000000000000000000000000000000000000000000000000000000000000000000000000000000000000000000000000000000000000000000000000000000000000000000000000000000000000000000000000000000010000000000000000000000000000000000000000000000004000000000000000000000000000000000000000000000000000200000000000000200000000000000000000000000000000000",
      "type": "0x2",
      "transactionHash": "0x86acd424bca1b9ee34776518a771bd102952fe29491935e076197525204f070e",
      "transactionIndex": "0x2",
      "blockHash": "0x08ca49cfa52d61199ffb0236acdb8ada820759367064af451f26ee02ff07f065",
      "blockNumber": "0x3cdfc9",
      "gasUsed": "0x17d5e",
      "effectiveGasPrice": "0xfd",
      "from": "0x00e3cc76da72cf673e4429e2d527388956af61ef",
      "to": "0xeca3f31a6039928287555100212f014d074874b9",
      "contractAddress": null,
      "l1Fee": "0x42c824cb5df8",
      "l1FeeScalar": "1",
      "l1GasPrice": "0x3dc651aca",
      "l1GasUsed": "0x114c"
    },
    {
      "status": "0x1",
      "cumulativeGasUsed": "0x55064",
      "logs": [],
      "logsBloom": "0x00000000000000000000000000000000000000000000000000000000000000000000000000000000000000000000000000000000000000000000000000000000000000000000000000000000000000000000000000000000000000000000000000000000000000000000000000000000000000000000000000000000000000000000000000000000000000000000000000000000000000000000000000000000000000000000000000000000000000000000000000000000000000000000000000000000000000000000000000000000000000000000000000000000000000000000000000000000000000000000000000000000000000000000000000000000",
      "type": "0x2",
      "transactionHash": "0xade5d13350574673362b7dfee1d63fecc1f8bfc5b81bd609458ae90e51b9b38a",
      "transactionIndex": "0x3",
      "blockHash": "0x08ca49cfa52d61199ffb0236acdb8ada820759367064af451f26ee02ff07f065",
      "blockNumber": "0x3cdfc9",
      "gasUsed": "0x2429a",
      "effectiveGasPrice": "0xfd",
      "from": "0x00e3cc76da72cf673e4429e2d527388956af61ef",
      "to": "0xeca3f31a6039928287555100212f014d074874b9",
      "contractAddress": null,
      "l1Fee": "0x7213fb538878",
      "l1FeeScalar": "1",
      "l1GasPrice": "0x3dc651aca",
      "l1GasUsed": "0x1d8c"
    }
  ],
  "libraries": [],
  "pending": [],
  "returns": {},
  "timestamp": 1719804149,
  "chain": 5051,
  "commit": "9753a12"
}