{
  "transactions": [
    {
      "hash": "0x8a99c77313449cf36ae092310163e595f3080c96ba2d696e798ec8555e91aec5",
      "transactionType": "CALL",
      "contractName": null,
      "contractAddress": "0x59ec62ced14a0ebe75e7b48b65da4a0db3f777c5",
      "function": "startAuction()",
      "arguments": [],
      "transaction": {
        "from": "0x00e3cc76da72cf673e4429e2d527388956af61ef",
        "to": "0x59ec62ced14a0ebe75e7b48b65da4a0db3f777c5",
        "gas": "0x1292d",
        "value": "0x0",
        "input": "0x6b64c769",
        "nonce": "0x19d",
        "chainId": "0x13bb"
      },
      "additionalContracts": [],
      "isFixedGasLimit": false
    },
    {
      "hash": "0x1404fce5a6a94d43737d190c2849477f01343f54c5fe66ee13de813793b9b5fc",
      "transactionType": "CALL",
      "contractName": null,
      "contractAddress": "0x59ec62ced14a0ebe75e7b48b65da4a0db3f777c5",
      "function": "setChainToPeripheryContract(uint256,address)",
      "arguments": [
        "84532",
        "0xA5fD8531246c2a3446Da44096f3E86d80E5401Df"
      ],
      "transaction": {
        "from": "0x00e3cc76da72cf673e4429e2d527388956af61ef",
        "to": "0x59ec62ced14a0ebe75e7b48b65da4a0db3f777c5",
        "gas": "0x20ec2",
        "value": "0x0",
        "input": "0x5e0b30db0000000000000000000000000000000000000000000000000000000000014a34000000000000000000000000a5fd8531246c2a3446da44096f3e86d80e5401df",
        "nonce": "0x19e",
        "chainId": "0x13bb"
      },
      "additionalContracts": [],
      "isFixedGasLimit": false
    },
    {
      "hash": "0xd1d12963d8d96e6019cf986e48b65c569667905322a2005297a444ab4cf06478",
      "transactionType": "CALL",
      "contractName": null,
      "contractAddress": "0x59ec62ced14a0ebe75e7b48b65da4a0db3f777c5",
      "function": "processIntent(((address,bytes),address,bytes))",
      "arguments": [
        "((0x59EC62CED14a0ebE75E7b48b65dA4a0db3F777C5, 0x04717aca000000000000000000000000fa87a9fab7f0222f7d6d190a7c7ce6e48547aef40000000000000000000000000000000000000000000000004563918244f400000000000000000000000000000000000000000000000000000000000000014a34), 0xFa87a9fab7F0222f7d6D190A7C7ce6E48547aef4, 0xd1ac33dc6fe81322e59a70bf2c18fae8acbcba8def4ce70e703c16c49fd490db770f29b2806dbfa69c3c42b3e5928df4f37c70d2da1d3145c99615741cae65b81c)"
      ],
      "transaction": {
        "from": "0x00e3cc76da72cf673e4429e2d527388956af61ef",
        "to": "0x59ec62ced14a0ebe75e7b48b65da4a0db3f777c5",
        "gas": "0x32824",
        "value": "0x0",
        "input": "0x57d79fcd00000000000000000000000000000000000000000000000000000000000000200000000000000000000000000000000000000000000000000000000000000060000000000000000000000000fa87a9fab7f0222f7d6d190a7c7ce6e48547aef4000000000000000000000000000000000000000000000000000000000000014000000000000000000000000059ec62ced14a0ebe75e7b48b65da4a0db3f777c50000000000000000000000000000000000000000000000000000000000000040000000000000000000000000000000000000000000000000000000000000006404717aca000000000000000000000000fa87a9fab7f0222f7d6d190a7c7ce6e48547aef40000000000000000000000000000000000000000000000004563918244f400000000000000000000000000000000000000000000000000000000000000014a34000000000000000000000000000000000000000000000000000000000000000000000000000000000000000000000000000000000000000000000041d1ac33dc6fe81322e59a70bf2c18fae8acbcba8def4ce70e703c16c49fd490db770f29b2806dbfa69c3c42b3e5928df4f37c70d2da1d3145c99615741cae65b81c00000000000000000000000000000000000000000000000000000000000000",
        "nonce": "0x19f",
        "chainId": "0x13bb"
      },
      "additionalContracts": [],
      "isFixedGasLimit": false
    }
  ],
  "receipts": [
    {
      "status": "0x1",
      "cumulativeGasUsed": "0x18268",
      "logs": [
        {
          "address": "0x59ec62ced14a0ebe75e7b48b65da4a0db3f777c5",
          "topics": [
            "0x1bb96dff6ab5005aff98cdc0cf176bb7d8e0423cb48e02217d35b042cec81e9f"
          ],
          "data": "0x00000000000000000000000000000000000000000000000000000000668380d4",
          "blockHash": "0x6381629301d7bae6330e830481523b4ed948fbbc2f07fb6e9d3e83ccaf53217d",
          "blockNumber": "0x3d8fba",
          "transactionHash": "0x8a99c77313449cf36ae092310163e595f3080c96ba2d696e798ec8555e91aec5",
          "transactionIndex": "0x1",
          "logIndex": "0x0",
          "removed": false
        }
      ],
      "logsBloom": "0x00000000000000000004000000000000000000000200000000000000000000000000000000000000000000000000000000000000000000000010000000000000000000000100000000000000000000000000000000000000000000000000000000000000000000000000000000000000000000000000000000000000000000000000000000000000000000000000000000000000000000000000000000000000000000000800000000000000000000000400000000000000000000000000000000000000000000000000000000000000000000000000000000000000000000000000000000000000000000000000000000000000000000000000000000000000",
      "type": "0x2",
      "transactionHash": "0x8a99c77313449cf36ae092310163e595f3080c96ba2d696e798ec8555e91aec5",
      "transactionIndex": "0x1",
      "blockHash": "0x6381629301d7bae6330e830481523b4ed948fbbc2f07fb6e9d3e83ccaf53217d",
      "blockNumber": "0x3d8fba",
      "gasUsed": "0xcb33",
      "effectiveGasPrice": "0xfd",
      "from": "0x00e3cc76da72cf673e4429e2d527388956af61ef",
      "to": "0x59ec62ced14a0ebe75e7b48b65da4a0db3f777c5",
      "contractAddress": null,
      "l1Fee": "0xe4255ad6b118",
      "l1FeeScalar": "1",
      "l1GasPrice": "0xf0d8c9767",
      "l1GasUsed": "0xf28"
    },
    {
      "status": "0x1",
      "cumulativeGasUsed": "0x2ffc6",
      "logs": [
        {
          "address": "0x59ec62ced14a0ebe75e7b48b65da4a0db3f777c5",
          "topics": [
            "0x767785ec8a0326548b9a53e8e065f90615a014cda2b32d3d39845f234a37f8e4"
          ],
          "data": "0x000000000000000000000000a5fd8531246c2a3446da44096f3e86d80e5401df0000000000000000000000000000000000000000000000000000000000014a34",
          "blockHash": "0x6381629301d7bae6330e830481523b4ed948fbbc2f07fb6e9d3e83ccaf53217d",
          "blockNumber": "0x3d8fba",
          "transactionHash": "0x1404fce5a6a94d43737d190c2849477f01343f54c5fe66ee13de813793b9b5fc",
          "transactionIndex": "0x2",
          "logIndex": "0x1",
          "removed": false
        }
      ],
      "logsBloom": "0x00000000000000000000000080000000000000000200000000000000000000000000000000000000000000000000000000000000000000000000000000000000000000000100000000000000000000000000000000000000000000000000000000000000000000000000000000000000000000000000000000000000000000000000000000000000000000000000000000000000000000000000000000000000000000000000000000000000000000000400000010000000000000000000000000000000000000000000000000000000000000000000000000000000000000000000000000000200000000000000000000000000000000000000000000000000",
      "type": "0x2",
      "transactionHash": "0x1404fce5a6a94d43737d190c2849477f01343f54c5fe66ee13de813793b9b5fc",
      "transactionIndex": "0x2",
      "blockHash": "0x6381629301d7bae6330e830481523b4ed948fbbc2f07fb6e9d3e83ccaf53217d",
      "blockNumber": "0x3d8fba",
      "gasUsed": "0x17d5e",
      "effectiveGasPrice": "0xfd",
      "from": "0x00e3cc76da72cf673e4429e2d527388956af61ef",
      "to": "0x59ec62ced14a0ebe75e7b48b65da4a0db3f777c5",
      "contractAddress": null,
      "l1Fee": "0x1045e5bcac994",
      "l1FeeScalar": "1",
      "l1GasPrice": "0xf0d8c9767",
      "l1GasUsed": "0x114c"
    },
    {
      "status": "0x1",
      "cumulativeGasUsed": "0x548db",
      "logs": [
        {
          "address": "0x59ec62ced14a0ebe75e7b48b65da4a0db3f777c5",
          "topics": [
            "0xdf8644c0a4c21ed214ce69f395675b3a5fcd1039083daea5058898de40ea3149"
          ],
          "data": "0x000000000000000000000000fa87a9fab7f0222f7d6d190a7c7ce6e48547aef40000000000000000000000000000000000000000000000004563918244f400000000000000000000000000000000000000000000000000000000000000014a34",
          "blockHash": "0x6381629301d7bae6330e830481523b4ed948fbbc2f07fb6e9d3e83ccaf53217d",
          "blockNumber": "0x3d8fba",
          "transactionHash": "0xd1d12963d8d96e6019cf986e48b65c569667905322a2005297a444ab4cf06478",
          "transactionIndex": "0x3",
          "logIndex": "0x2",
          "removed": false
        }
      ],
      "logsBloom": "0x00000000000000000000000000000000000000000200000000000000000000000000000000001000000000000000000000000000000000000000000000000000000000000100000000000000000000000000000000000000000000000000000000000000000000000000000000000000000000000000000100000000000000000000000080000000000000000000000000000000000000000000000000000000000000000000000000000000000000000400000000000000000000000000000000000000000000000000000000000000000000000000000000000000000000000000000000000000000000000000000000000000000000000000000000000000",
      "type": "0x2",
      "transactionHash": "0xd1d12963d8d96e6019cf986e48b65c569667905322a2005297a444ab4cf06478",
      "transactionIndex": "0x3",
      "blockHash": "0x6381629301d7bae6330e830481523b4ed948fbbc2f07fb6e9d3e83ccaf53217d",
      "blockNumber": "0x3d8fba",
      "gasUsed": "0x24915",
      "effectiveGasPrice": "0xfd",
      "from": "0x00e3cc76da72cf673e4429e2d527388956af61ef",
      "to": "0x59ec62ced14a0ebe75e7b48b65da4a0db3f777c5",
      "contractAddress": null,
      "l1Fee": "0x1bee23dcec1d0",
      "l1FeeScalar": "1",
      "l1GasPrice": "0xf0d8c9767",
      "l1GasUsed": "0x1db0"
    }
  ],
  "libraries": [],
  "pending": [],
  "returns": {},
  "timestamp": 1719894231,
  "chain": 5051,
  "commit": "9753a12"
}