{
  "transactions": [
    {
      "hash": "0x97d4cc1d8766f237a14968de80f48527cb99bf757dae7aa20fd008571d0b0459",
      "transactionType": "CALL",
      "contractName": null,
      "contractAddress": "0x4dc64bcf2e5b50ef9c45f17b32acf559602cb07c",
      "function": "startAuction()",
      "arguments": [],
      "transaction": {
        "from": "0x00e3cc76da72cf673e4429e2d527388956af61ef",
        "to": "0x4dc64bcf2e5b50ef9c45f17b32acf559602cb07c",
        "gas": "0x1292d",
        "value": "0x0",
        "input": "0x6b64c769",
        "nonce": "0x173",
        "chainId": "0x13bb"
      },
      "additionalContracts": [],
      "isFixedGasLimit": false
    },
    {
      "hash": "0xd4f4d66f01e29329b7ab409ec43ee8484553e227dd0eefd163586c1e889b6422",
      "transactionType": "CALL",
      "contractName": null,
      "contractAddress": "0x4dc64bcf2e5b50ef9c45f17b32acf559602cb07c",
      "function": "setChainToPeripheryContract(uint256,address)",
      "arguments": [
        "84532",
        "0x0adE8FEa92340cA07f671043e6676fE2f7f4EF37"
      ],
      "transaction": {
        "from": "0x00e3cc76da72cf673e4429e2d527388956af61ef",
        "to": "0x4dc64bcf2e5b50ef9c45f17b32acf559602cb07c",
        "gas": "0x20ec2",
        "value": "0x0",
        "input": "0x5e0b30db0000000000000000000000000000000000000000000000000000000000014a340000000000000000000000000ade8fea92340ca07f671043e6676fe2f7f4ef37",
        "nonce": "0x174",
        "chainId": "0x13bb"
      },
      "additionalContracts": [],
      "isFixedGasLimit": false
    },
    {
      "hash": "0x2b89aaa3e3932ba25732c45a22a3ef2cc3209a86cacc7a163f4fee8fb811804f",
      "transactionType": "CALL",
      "contractName": null,
      "contractAddress": "0x4dc64bcf2e5b50ef9c45f17b32acf559602cb07c",
      "function": "processIntent(((address,bytes),address,bytes))",
      "arguments": [
        "((0x4Dc64BcF2e5b50eF9C45f17b32acf559602CB07c, 0x04717aca000000000000000000000000fa87a9fab7f0222f7d6d190a7c7ce6e48547aef40000000000000000000000000000000000000000000000004563918244f400000000000000000000000000000000000000000000000000000000000000014a34), 0xFa87a9fab7F0222f7d6D190A7C7ce6E48547aef4, 0x6d694f6cc933ed747b83d104f95af97e6ede7e9be9f4e259a5fccab7b921ec15187e80e2742e385f3fd04e2dececd666d2ce5d0ff2c83f7d9562a5c8dbce994e1c)"
      ],
      "transaction": {
        "from": "0x00e3cc76da72cf673e4429e2d527388956af61ef",
        "to": "0x4dc64bcf2e5b50ef9c45f17b32acf559602cb07c",
        "gas": "0x32824",
        "value": "0x0",
        "input": "0x57d79fcd00000000000000000000000000000000000000000000000000000000000000200000000000000000000000000000000000000000000000000000000000000060000000000000000000000000fa87a9fab7f0222f7d6d190a7c7ce6e48547aef400000000000000000000000000000000000000000000000000000000000001400000000000000000000000004dc64bcf2e5b50ef9c45f17b32acf559602cb07c0000000000000000000000000000000000000000000000000000000000000040000000000000000000000000000000000000000000000000000000000000006404717aca000000000000000000000000fa87a9fab7f0222f7d6d190a7c7ce6e48547aef40000000000000000000000000000000000000000000000004563918244f400000000000000000000000000000000000000000000000000000000000000014a340000000000000000000000000000000000000000000000000000000000000000000000000000000000000000000000000000000000000000000000416d694f6cc933ed747b83d104f95af97e6ede7e9be9f4e259a5fccab7b921ec15187e80e2742e385f3fd04e2dececd666d2ce5d0ff2c83f7d9562a5c8dbce994e1c00000000000000000000000000000000000000000000000000000000000000",
        "nonce": "0x175",
        "chainId": "0x13bb"
      },
      "additionalContracts": [],
      "isFixedGasLimit": false
    }
  ],
  "receipts": [
    {
      "status": "0x1",
      "cumulativeGasUsed": "0x18268",
      "logs": [
        {
          "address": "0x4dc64bcf2e5b50ef9c45f17b32acf559602cb07c",
          "topics": [
            "0x1bb96dff6ab5005aff98cdc0cf176bb7d8e0423cb48e02217d35b042cec81e9f"
          ],
          "data": "0x000000000000000000000000000000000000000000000000000000006683799a",
          "blockHash": "0x540dbe8978c364267d94e8eeb2f677122568b458a33202e781d3b54968511e75",
          "blockNumber": "0x3d8c1d",
          "transactionHash": "0x97d4cc1d8766f237a14968de80f48527cb99bf757dae7aa20fd008571d0b0459",
          "transactionIndex": "0x1",
          "logIndex": "0x0",
          "removed": false
        }
      ],
      "logsBloom": "0x00000000000000000004000000000000000000000000000000000000000000000000000000000000000000000000000000000000020000000010000000000000000000000000000000000000000000000000000000000000000000000000000000000000000000000000000040000000000000000000000000000000000000002000000000000000000000000000000000000000000000000000000000000000000000000800000000000000000000000000000000000000000000000000000000000000000000000000000000000000000000000000000000000000000000000000000000000000000000000000000000000000000000000000000000000000",
      "type": "0x2",
      "transactionHash": "0x97d4cc1d8766f237a14968de80f48527cb99bf757dae7aa20fd008571d0b0459",
      "transactionIndex": "0x1",
      "blockHash": "0x540dbe8978c364267d94e8eeb2f677122568b458a33202e781d3b54968511e75",
      "blockNumber": "0x3d8c1d",
      "gasUsed": "0xcb33",
      "effectiveGasPrice": "0xfd",
      "from": "0x00e3cc76da72cf673e4429e2d527388956af61ef",
      "to": "0x4dc64bcf2e5b50ef9c45f17b32acf559602cb07c",
      "contractAddress": null,
      "l1Fee": "0x2fe173d5865c",
      "l1FeeScalar": "1",
      "l1GasPrice": "0x3263edef3",
      "l1GasUsed": "0xf34"
    },
    {
      "status": "0x1",
      "cumulativeGasUsed": "0x2ffc6",
      "logs": [
        {
          "address": "0x4dc64bcf2e5b50ef9c45f17b32acf559602cb07c",
          "topics": [
            "0x767785ec8a0326548b9a53e8e065f90615a014cda2b32d3d39845f234a37f8e4"
          ],
          "data": "0x0000000000000000000000000ade8fea92340ca07f671043e6676fe2f7f4ef370000000000000000000000000000000000000000000000000000000000014a34",
          "blockHash": "0x540dbe8978c364267d94e8eeb2f677122568b458a33202e781d3b54968511e75",
          "blockNumber": "0x3d8c1d",
          "transactionHash": "0xd4f4d66f01e29329b7ab409ec43ee8484553e227dd0eefd163586c1e889b6422",
          "transactionIndex": "0x2",
          "logIndex": "0x1",
          "removed": false
        }
      ],
      "logsBloom": "0x00000000000000000000000080000000000000000000000000000000000000000000000000000000000000000000000000000000020000000000000000000000000000000000000000000000000000000000000000000000000000000000000000000000000000000000000040000000000000000000000000000000000000002000000000000000000000000000000000000000000000000000000000000000000000000000000000000000000000000000000010000000000000000000000000000000000000000000000000000000000000000000000000000000000000000000000000000200000000000000000000000000000000000000000000000000",
      "type": "0x2",
      "transactionHash": "0xd4f4d66f01e29329b7ab409ec43ee8484553e227dd0eefd163586c1e889b6422",
      "transactionIndex": "0x2",
      "blockHash": "0x540dbe8978c364267d94e8eeb2f677122568b458a33202e781d3b54968511e75",
      "blockNumber": "0x3d8c1d",
      "gasUsed": "0x17d5e",
      "effectiveGasPrice": "0xfd",
      "from": "0x00e3cc76da72cf673e4429e2d527388956af61ef",
      "to": "0x4dc64bcf2e5b50ef9c45f17b32acf559602cb07c",
      "contractAddress": null,
      "l1Fee": "0x369f526ac688",
      "l1FeeScalar": "1",
      "l1GasPrice": "0x3263edef3",
      "l1GasUsed": "0x1158"
    },
    {
      "status": "0x1",
      "cumulativeGasUsed": "0x548db",
      "logs": [
        {
          "address": "0x4dc64bcf2e5b50ef9c45f17b32acf559602cb07c",
          "topics": [
            "0xdf8644c0a4c21ed214ce69f395675b3a5fcd1039083daea5058898de40ea3149"
          ],
          "data": "0x000000000000000000000000fa87a9fab7f0222f7d6d190a7c7ce6e48547aef40000000000000000000000000000000000000000000000004563918244f400000000000000000000000000000000000000000000000000000000000000014a34",
          "blockHash": "0x540dbe8978c364267d94e8eeb2f677122568b458a33202e781d3b54968511e75",
          "blockNumber": "0x3d8c1d",
          "transactionHash": "0x2b89aaa3e3932ba25732c45a22a3ef2cc3209a86cacc7a163f4fee8fb811804f",
          "transactionIndex": "0x3",
          "logIndex": "0x2",
          "removed": false
        }
      ],
      "logsBloom": "0x00000000000000000000000000000000000000000000000000000000000000000000000000001000000000000000000000000000020000000000000000000000000000000000000000000000000000000000000000000000000000000000000000000000000000000000000040000000000000000000000100000000000000002000000080000000000000000000000000000000000000000000000000000000000000000000000000000000000000000000000000000000000000000000000000000000000000000000000000000000000000000000000000000000000000000000000000000000000000000000000000000000000000000000000000000000",
      "type": "0x2",
      "transactionHash": "0x2b89aaa3e3932ba25732c45a22a3ef2cc3209a86cacc7a163f4fee8fb811804f",
      "transactionIndex": "0x3",
      "blockHash": "0x540dbe8978c364267d94e8eeb2f677122568b458a33202e781d3b54968511e75",
      "blockNumber": "0x3d8c1d",
      "gasUsed": "0x24915",
      "effectiveGasPrice": "0xfd",
      "from": "0x00e3cc76da72cf673e4429e2d527388956af61ef",
      "to": "0x4dc64bcf2e5b50ef9c45f17b32acf559602cb07c",
      "contractAddress": null,
      "l1Fee": "0x5d7f6a7ace10",
      "l1FeeScalar": "1",
      "l1GasPrice": "0x3263edef3",
      "l1GasUsed": "0x1db0"
    }
  ],
  "libraries": [],
  "pending": [],
  "returns": {},
  "timestamp": 1719892382,
  "chain": 5051,
  "commit": "9753a12"
}