{
  "transactions": [
    {
      "hash": "0xb466a968d39848a685caa8cb3682c909301b81728024fe3a55e4a9f18fe638b9",
      "transactionType": "CALL",
      "contractName": null,
      "contractAddress": "0x9326ce15ec54c57ae2e34e1076e46d592305b759",
      "function": "processIntent(((address,bytes),address,bytes))",
      "arguments": [
        "((0x9326Ce15EC54C57AE2e34E1076E46d592305B759, 0x04717aca000000000000000000000000fa87a9fab7f0222f7d6d190a7c7ce6e48547aef40000000000000000000000000000000000000000000002c68af0bb14000000000000000000000000000000000000000000000000000000000000000000014a34), 0xFa87a9fab7F0222f7d6D190A7C7ce6E48547aef4, 0xc003bb2e42b29180c3cc19a6b1ca716cb8d04163b1610ae7912f90daafeab29000b8638f5963af36cb54c45ba2b43f1b2c12e60230c652f859ef9e1351ee00eb1c)"
      ],
      "transaction": {
        "from": "0x00e3cc76da72cf673e4429e2d527388956af61ef",
        "to": "0x9326ce15ec54c57ae2e34e1076e46d592305b759",
        "gas": "0x2c2ed",
        "value": "0x0",
        "input": "0x57d79fcd00000000000000000000000000000000000000000000000000000000000000200000000000000000000000000000000000000000000000000000000000000060000000000000000000000000fa87a9fab7f0222f7d6d190a7c7ce6e48547aef400000000000000000000000000000000000000000000000000000000000001400000000000000000000000009326ce15ec54c57ae2e34e1076e46d592305b7590000000000000000000000000000000000000000000000000000000000000040000000000000000000000000000000000000000000000000000000000000006404717aca000000000000000000000000fa87a9fab7f0222f7d6d190a7c7ce6e48547aef40000000000000000000000000000000000000000000002c68af0bb14000000000000000000000000000000000000000000000000000000000000000000014a34000000000000000000000000000000000000000000000000000000000000000000000000000000000000000000000000000000000000000000000041c003bb2e42b29180c3cc19a6b1ca716cb8d04163b1610ae7912f90daafeab29000b8638f5963af36cb54c45ba2b43f1b2c12e60230c652f859ef9e1351ee00eb1c00000000000000000000000000000000000000000000000000000000000000",
        "nonce": "0x10c",
        "chainId": "0x13bb"
      },
      "additionalContracts": [],
      "isFixedGasLimit": false
    }
  ],
  "receipts": [
    {
      "status": "0x1",
      "cumulativeGasUsed": "0x2b703",
      "logs": [],
      "logsBloom": "0x00000000000000000000000000000000000000000000000000000000000000000000000000000000000000000000000000000000000000000000000000000000000000000000000000000000000000000000000000000000000000000000000000000000000000000000000000000000000000000000000000000000000000000000000000000000000000000000000000000000000000000000000000000000000000000000000000000000000000000000000000000000000000000000000000000000000000000000000000000000000000000000000000000000000000000000000000000000000000000000000000000000000000000000000000000000",
      "type": "0x2",
      "transactionHash": "0xb466a968d39848a685caa8cb3682c909301b81728024fe3a55e4a9f18fe638b9",
      "transactionIndex": "0x1",
      "blockHash": "0xf42319232f105f7d7a98157369c442f7b9575fa66f3533bd859a8b06d55f2819",
      "blockNumber": "0x3c38d2",
      "gasUsed": "0x1ffce",
      "effectiveGasPrice": "0xfd",
      "from": "0x00e3cc76da72cf673e4429e2d527388956af61ef",
      "to": "0x9326ce15ec54c57ae2e34e1076e46d592305b759",
      "contractAddress": null,
      "l1Fee": "0x2602d2af8e80",
      "l1FeeScalar": "1",
      "l1GasPrice": "0x149dbc087",
      "l1GasUsed": "0x1d80"
    }
  ],
  "libraries": [],
  "pending": [],
  "returns": {},
  "timestamp": 1719718664,
  "chain": 5051,
  "commit": "9753a12"
}