{
  "transactions": [
    {
      "hash": "0x9caefe523ef388aa65b830440ee2928a0d25b7eeaa5cf67284f652f93f11fa05",
      "transactionType": "CALL",
      "contractName": null,
      "contractAddress": "0xa82c5042225b4fa90662e8588a15fd1c3afa584e",
      "function": "startAuction()",
      "arguments": [],
      "transaction": {
        "from": "0x00e3cc76da72cf673e4429e2d527388956af61ef",
        "to": "0xa82c5042225b4fa90662e8588a15fd1c3afa584e",
        "gas": "0x1292d",
        "value": "0x0",
        "input": "0x6b64c769",
        "nonce": "0x12c",
        "chainId": "0x13bb"
      },
      "additionalContracts": [],
      "isFixedGasLimit": false
    },
    {
      "hash": "0x952429ae0c62f09b76f46c123addae4103a641c4e251e231b78125f3fba2bc8e",
      "transactionType": "CALL",
      "contractName": null,
      "contractAddress": "0xa82c5042225b4fa90662e8588a15fd1c3afa584e",
      "function": "setChainToPeripheryContract(uint256,address)",
      "arguments": [
        "84532",
        "0x6bd1a2c15eCB4901208DCC4133D10836f0CDE927"
      ],
      "transaction": {
        "from": "0x00e3cc76da72cf673e4429e2d527388956af61ef",
        "to": "0xa82c5042225b4fa90662e8588a15fd1c3afa584e",
        "gas": "0x20ec2",
        "value": "0x0",
        "input": "0x5e0b30db0000000000000000000000000000000000000000000000000000000000014a340000000000000000000000006bd1a2c15ecb4901208dcc4133d10836f0cde927",
        "nonce": "0x12d",
        "chainId": "0x13bb"
      },
      "additionalContracts": [],
      "isFixedGasLimit": false
    },
    {
      "hash": "0x38e9bb3b8cb7a369612e89b4fc149feb427d69e7f81455fca24ba2abd4972799",
      "transactionType": "CALL",
      "contractName": null,
      "contractAddress": "0xa82c5042225b4fa90662e8588a15fd1c3afa584e",
      "function": "processIntent(((address,bytes),address,bytes))",
      "arguments": [
        "((0xA82c5042225B4fa90662e8588A15FD1C3aFA584E, 0x04717aca000000000000000000000000fa87a9fab7f0222f7d6d190a7c7ce6e48547aef40000000000000000000000000000000000000000000002c68af0bb14000000000000000000000000000000000000000000000000000000000000000000014a34), 0xFa87a9fab7F0222f7d6D190A7C7ce6E48547aef4, 0x69cb78b111d731cbb7da1cafd9fe37cd160c78253f008f15e0bde79fc0c2f66630192dea35b1e69a2141fc3926d22fb1e34ed8cf2957d920654b03107dda58c01c)"
      ],
      "transaction": {
        "from": "0x00e3cc76da72cf673e4429e2d527388956af61ef",
        "to": "0xa82c5042225b4fa90662e8588a15fd1c3afa584e",
        "gas": "0x31f41",
        "value": "0x0",
        "input": "0x57d79fcd00000000000000000000000000000000000000000000000000000000000000200000000000000000000000000000000000000000000000000000000000000060000000000000000000000000fa87a9fab7f0222f7d6d190a7c7ce6e48547aef40000000000000000000000000000000000000000000000000000000000000140000000000000000000000000a82c5042225b4fa90662e8588a15fd1c3afa584e0000000000000000000000000000000000000000000000000000000000000040000000000000000000000000000000000000000000000000000000000000006404717aca000000000000000000000000fa87a9fab7f0222f7d6d190a7c7ce6e48547aef40000000000000000000000000000000000000000000002c68af0bb14000000000000000000000000000000000000000000000000000000000000000000014a3400000000000000000000000000000000000000000000000000000000000000000000000000000000000000000000000000000000000000000000004169cb78b111d731cbb7da1cafd9fe37cd160c78253f008f15e0bde79fc0c2f66630192dea35b1e69a2141fc3926d22fb1e34ed8cf2957d920654b03107dda58c01c00000000000000000000000000000000000000000000000000000000000000",
        "nonce": "0x12e",
        "chainId": "0x13bb"
      },
      "additionalContracts": [],
      "isFixedGasLimit": false
    }
  ],
  "receipts": [
    {
      "status": "0x1",
      "cumulativeGasUsed": "0x18268",
      "logs": [
        {
          "address": "0xa82c5042225b4fa90662e8588a15fd1c3afa584e",
          "topics": [
            "0x1bb96dff6ab5005aff98cdc0cf176bb7d8e0423cb48e02217d35b042cec81e9f"
          ],
          "data": "0x0000000000000000000000000000000000000000000000000000000066821bf2",
          "blockHash": "0x872b8aae4c2badec2d2660e10f6c87c5ace605ef82d1531f7e285b9c6588da1c",
          "blockNumber": "0x3cdd49",
          "transactionHash": "0x9caefe523ef388aa65b830440ee2928a0d25b7eeaa5cf67284f652f93f11fa05",
          "transactionIndex": "0x1",
          "logIndex": "0x0",
          "removed": false
        }
      ],
      "logsBloom": "0x00000000000000000004000000000000000000000000000000000000000000000000000000000000000000000000000000000000000000000010000000000000000000000000000000000000000000000020000000000000000000000000000000000000000000000000000000000000000000000000000000000000000000000000000000000000000000000000000000000000000000000000000000000000100000000800000000000000000000000000000000000000000000000000000000000000000000000000000000000400000000000000000000000000000000000000000000000000000000000000000000000000000000000000000000000000",
      "type": "0x2",
      "transactionHash": "0x9caefe523ef388aa65b830440ee2928a0d25b7eeaa5cf67284f652f93f11fa05",
      "transactionIndex": "0x1",
      "blockHash": "0x872b8aae4c2badec2d2660e10f6c87c5ace605ef82d1531f7e285b9c6588da1c",
      "blockNumber": "0x3cdd49",
      "gasUsed": "0xcb33",
      "effectiveGasPrice": "0xfd",
      "from": "0x00e3cc76da72cf673e4429e2d527388956af61ef",
      "to": "0xa82c5042225b4fa90662e8588a15fd1c3afa584e",
      "contractAddress": null,
      "l1Fee": "0x3210dd7b234c",
      "l1FeeScalar": "1",
      "l1GasPrice": "0x34b0a9f1f",
      "l1GasUsed": "0xf34"
    },
    {
      "status": "0x1",
      "cumulativeGasUsed": "0x2ffc6",
      "logs": [
        {
          "address": "0xa82c5042225b4fa90662e8588a15fd1c3afa584e",
          "topics": [
            "0x767785ec8a0326548b9a53e8e065f90615a014cda2b32d3d39845f234a37f8e4"
          ],
          "data": "0x0000000000000000000000006bd1a2c15ecb4901208dcc4133d10836f0cde9270000000000000000000000000000000000000000000000000000000000014a34",
          "blockHash": "0x872b8aae4c2badec2d2660e10f6c87c5ace605ef82d1531f7e285b9c6588da1c",
          "blockNumber": "0x3cdd49",
          "transactionHash": "0x952429ae0c62f09b76f46c123addae4103a641c4e251e231b78125f3fba2bc8e",
          "transactionIndex": "0x2",
          "logIndex": "0x1",
          "removed": false
        }
      ],
      "logsBloom": "0x00000000000000000000000080000000000000000000000000000000000000000000000000000000000000000000000000000000000000000000000000000000000000000000000000000000000000000020000000000000000000000000000000000000000000000000000000000000000000000000000000000000000000000000000000000000000000000000000000000000000000000000000000000000100000000000000000000000000000000000000010000000000000000000000000000000000000000000000000000400000000000000000000000000000000000000000000000200000000000000000000000000000000000000000000000000",
      "type": "0x2",
      "transactionHash": "0x952429ae0c62f09b76f46c123addae4103a641c4e251e231b78125f3fba2bc8e",
      "transactionIndex": "0x2",
      "blockHash": "0x872b8aae4c2badec2d2660e10f6c87c5ace605ef82d1531f7e285b9c6588da1c",
      "blockNumber": "0x3cdd49",
      "gasUsed": "0x17d5e",
      "effectiveGasPrice": "0xfd",
      "from": "0x00e3cc76da72cf673e4429e2d527388956af61ef",
      "to": "0xa82c5042225b4fa90662e8588a15fd1c3afa584e",
      "contractAddress": null,
      "l1Fee": "0x391d8037c1a8",
      "l1FeeScalar": "1",
      "l1GasPrice": "0x34b0a9f1f",
      "l1GasUsed": "0x1158"
    },
    {
      "status": "0x1",
      "cumulativeGasUsed": "0x5426c",
      "logs": [],
      "logsBloom": "0x00000000000000000000000000000000000000000000000000000000000000000000000000000000000000000000000000000000000000000000000000000000000000000000000000000000000000000000000000000000000000000000000000000000000000000000000000000000000000000000000000000000000000000000000000000000000000000000000000000000000000000000000000000000000000000000000000000000000000000000000000000000000000000000000000000000000000000000000000000000000000000000000000000000000000000000000000000000000000000000000000000000000000000000000000000000",
      "type": "0x2",
      "transactionHash": "0x38e9bb3b8cb7a369612e89b4fc149feb427d69e7f81455fca24ba2abd4972799",
      "transactionIndex": "0x3",
      "blockHash": "0x872b8aae4c2badec2d2660e10f6c87c5ace605ef82d1531f7e285b9c6588da1c",
      "blockNumber": "0x3cdd49",
      "gasUsed": "0x242a6",
      "effectiveGasPrice": "0xfd",
      "from": "0x00e3cc76da72cf673e4429e2d527388956af61ef",
      "to": "0xa82c5042225b4fa90662e8588a15fd1c3afa584e",
      "contractAddress": null,
      "l1Fee": "0x619c46d472dc",
      "l1FeeScalar": "1",
      "l1GasPrice": "0x34b0a9f1f",
      "l1GasUsed": "0x1da4"
    }
  ],
  "libraries": [],
  "pending": [],
  "returns": {},
  "timestamp": 1719802870,
  "chain": 5051,
  "commit": "9753a12"
}