{
  "transactions": [
    {
      "hash": "0x2579c800cfb3ca9fcbcd107f890189fb0cabc82259ce30ea1a2fba5967682274",
      "transactionType": "CALL",
      "contractName": null,
      "contractAddress": "0xce45b10d38fc1173cd8c86ea688cf139cb10ade8",
      "function": "startAuction()",
      "arguments": [],
      "transaction": {
        "from": "0x00e3cc76da72cf673e4429e2d527388956af61ef",
        "to": "0xce45b10d38fc1173cd8c86ea688cf139cb10ade8",
        "gas": "0x1292d",
        "value": "0x0",
        "input": "0x6b64c769",
        "nonce": "0x115",
        "chainId": "0x13bb"
      },
      "additionalContracts": [],
      "isFixedGasLimit": false
    },
    {
      "hash": "0x55b3078f52a0de438788a42faa5c51c79e3bfadcb75bd7ad1c25a062b284fac8",
      "transactionType": "CALL",
      "contractName": null,
      "contractAddress": "0xce45b10d38fc1173cd8c86ea688cf139cb10ade8",
      "function": "setChainToPeripheryContract(uint256,address)",
      "arguments": [
        "84532",
        "0x6bd1a2c15eCB4901208DCC4133D10836f0CDE927"
      ],
      "transaction": {
        "from": "0x00e3cc76da72cf673e4429e2d527388956af61ef",
        "to": "0xce45b10d38fc1173cd8c86ea688cf139cb10ade8",
        "gas": "0x20ec2",
        "value": "0x0",
        "input": "0x5e0b30db0000000000000000000000000000000000000000000000000000000000014a340000000000000000000000006bd1a2c15ecb4901208dcc4133d10836f0cde927",
        "nonce": "0x116",
        "chainId": "0x13bb"
      },
      "additionalContracts": [],
      "isFixedGasLimit": false
    },
    {
      "hash": "0xefdeeca7088db6cc3c37b75fba6576a8cbb640dbba3b4ad0fd965d761f7ec671",
      "transactionType": "CALL",
      "contractName": null,
      "contractAddress": "0xce45b10d38fc1173cd8c86ea688cf139cb10ade8",
      "function": "processIntent(((address,bytes),address,bytes))",
      "arguments": [
        "((0xCE45b10d38Fc1173Cd8C86EA688cF139Cb10Ade8, 0x04717aca000000000000000000000000fa87a9fab7f0222f7d6d190a7c7ce6e48547aef40000000000000000000000000000000000000000000002c68af0bb14000000000000000000000000000000000000000000000000000000000000000000014a34), 0xFa87a9fab7F0222f7d6D190A7C7ce6E48547aef4, 0x131474e48288b5fe4405cae1e696ad79b38e46b0953258d7a3d4f4eb7e3474b247f2e8b2c5fd7700c2bbdcdb53655c607850aefdb603678aa4a764d4049c20661c)"
      ],
      "transaction": {
        "from": "0x00e3cc76da72cf673e4429e2d527388956af61ef",
        "to": "0xce45b10d38fc1173cd8c86ea688cf139cb10ade8",
        "gas": "0x31f41",
        "value": "0x0",
        "input": "0x57d79fcd00000000000000000000000000000000000000000000000000000000000000200000000000000000000000000000000000000000000000000000000000000060000000000000000000000000fa87a9fab7f0222f7d6d190a7c7ce6e48547aef40000000000000000000000000000000000000000000000000000000000000140000000000000000000000000ce45b10d38fc1173cd8c86ea688cf139cb10ade80000000000000000000000000000000000000000000000000000000000000040000000000000000000000000000000000000000000000000000000000000006404717aca000000000000000000000000fa87a9fab7f0222f7d6d190a7c7ce6e48547aef40000000000000000000000000000000000000000000002c68af0bb14000000000000000000000000000000000000000000000000000000000000000000014a34000000000000000000000000000000000000000000000000000000000000000000000000000000000000000000000000000000000000000000000041131474e48288b5fe4405cae1e696ad79b38e46b0953258d7a3d4f4eb7e3474b247f2e8b2c5fd7700c2bbdcdb53655c607850aefdb603678aa4a764d4049c20661c00000000000000000000000000000000000000000000000000000000000000",
        "nonce": "0x117",
        "chainId": "0x13bb"
      },
      "additionalContracts": [],
      "isFixedGasLimit": false
    }
  ],
  "receipts": [
    {
      "status": "0x1",
      "cumulativeGasUsed": "0x1c534",
      "logs": [
        {
          "address": "0xce45b10d38fc1173cd8c86ea688cf139cb10ade8",
          "topics": [
            "0x1bb96dff6ab5005aff98cdc0cf176bb7d8e0423cb48e02217d35b042cec81e9f"
          ],
          "data": "0x000000000000000000000000000000000000000000000000000000006680e77c",
          "blockHash": "0x1846ade68d21cda4ce957922f2cf6ca82ca711fb1dae63ab361fc159fa2ec61b",
          "blockNumber": "0x3c430e",
          "transactionHash": "0x2579c800cfb3ca9fcbcd107f890189fb0cabc82259ce30ea1a2fba5967682274",
          "transactionIndex": "0x1",
          "logIndex": "0x0",
          "removed": false
        }
      ],
      "logsBloom": "0x00000000000000000004004000000000000000000000000000000000000000000000000000000000000000000000000000000000000000000010000000000000000000000000000000000000000000000000000000000000000000000000000000000000000000000000000000000000000000000000000000000000000000000000000000000000000000000000000000000000000000000000000000000000000000000800000000000000000000000000000000000000000004000000000000000000800000000000000000000000000000000000000000000000000000000000000000000000000000000000000000000000000000000000000000000000",
      "type": "0x2",
      "transactionHash": "0x2579c800cfb3ca9fcbcd107f890189fb0cabc82259ce30ea1a2fba5967682274",
      "transactionIndex": "0x1",
      "blockHash": "0x1846ade68d21cda4ce957922f2cf6ca82ca711fb1dae63ab361fc159fa2ec61b",
      "blockNumber": "0x3c430e",
      "gasUsed": "0xcb33",
      "effectiveGasPrice": "0xfd",
      "from": "0x00e3cc76da72cf673e4429e2d527388956af61ef",
      "to": "0xce45b10d38fc1173cd8c86ea688cf139cb10ade8",
      "contractAddress": null,
      "l1Fee": "0x3c0a2c51bb4c",
      "l1FeeScalar": "1",
      "l1GasPrice": "0x3f2fcdd1f",
      "l1GasUsed": "0xf34"
    },
    {
      "status": "0x1",
      "cumulativeGasUsed": "0x34292",
      "logs": [
        {
          "address": "0xce45b10d38fc1173cd8c86ea688cf139cb10ade8",
          "topics": [
            "0x767785ec8a0326548b9a53e8e065f90615a014cda2b32d3d39845f234a37f8e4"
          ],
          "data": "0x0000000000000000000000006bd1a2c15ecb4901208dcc4133d10836f0cde9270000000000000000000000000000000000000000000000000000000000014a34",
          "blockHash": "0x1846ade68d21cda4ce957922f2cf6ca82ca711fb1dae63ab361fc159fa2ec61b",
          "blockNumber": "0x3c430e",
          "transactionHash": "0x55b3078f52a0de438788a42faa5c51c79e3bfadcb75bd7ad1c25a062b284fac8",
          "transactionIndex": "0x2",
          "logIndex": "0x1",
          "removed": false
        }
      ],
      "logsBloom": "0x00000000000000000000004080000000000000000000000000000000000000000000000000000000000000000000000000000000000000000000000000000000000000000000000000000000000000000000000000000000000000000000000000000000000000000000000000000000000000000000000000000000000000000000000000000000000000000000000000000000000000000000000000000000000000000000000000000000000000000000000010000000000004000000000000000000800000000000000000000000000000000000000000000000000000000000000000000200000000000000000000000000000000000000000000000000",
      "type": "0x2",
      "transactionHash": "0x55b3078f52a0de438788a42faa5c51c79e3bfadcb75bd7ad1c25a062b284fac8",
      "transactionIndex": "0x2",
      "blockHash": "0x1846ade68d21cda4ce957922f2cf6ca82ca711fb1dae63ab361fc159fa2ec61b",
      "blockNumber": "0x3c430e",
      "gasUsed": "0x17d5e",
      "effectiveGasPrice": "0xfd",
      "from": "0x00e3cc76da72cf673e4429e2d527388956af61ef",
      "to": "0xce45b10d38fc1173cd8c86ea688cf139cb10ade8",
      "contractAddress": null,
      "l1Fee": "0x447e519b11a8",
      "l1FeeScalar": "1",
      "l1GasPrice": "0x3f2fcdd1f",
      "l1GasUsed": "0x1158"
    },
    {
      "status": "0x1",
      "cumulativeGasUsed": "0x58538",
      "logs": [],
      "logsBloom": "0x00000000000000000000000000000000000000000000000000000000000000000000000000000000000000000000000000000000000000000000000000000000000000000000000000000000000000000000000000000000000000000000000000000000000000000000000000000000000000000000000000000000000000000000000000000000000000000000000000000000000000000000000000000000000000000000000000000000000000000000000000000000000000000000000000000000000000000000000000000000000000000000000000000000000000000000000000000000000000000000000000000000000000000000000000000000",
      "type": "0x2",
      "transactionHash": "0xefdeeca7088db6cc3c37b75fba6576a8cbb640dbba3b4ad0fd965d761f7ec671",
      "transactionIndex": "0x3",
      "blockHash": "0x1846ade68d21cda4ce957922f2cf6ca82ca711fb1dae63ab361fc159fa2ec61b",
      "blockNumber": "0x3c430e",
      "gasUsed": "0x242a6",
      "effectiveGasPrice": "0xfd",
      "from": "0x00e3cc76da72cf673e4429e2d527388956af61ef",
      "to": "0xce45b10d38fc1173cd8c86ea688cf139cb10ade8",
      "contractAddress": null,
      "l1Fee": "0x750e4f0a2adc",
      "l1FeeScalar": "1",
      "l1GasPrice": "0x3f2fcdd1f",
      "l1GasUsed": "0x1da4"
    }
  ],
  "libraries": [],
  "pending": [],
  "returns": {},
  "timestamp": 1719723904,
  "chain": 5051,
  "commit": "9753a12"
}