{
  "transactions": [
    {
      "hash": "0x004397c5f4360bcce13e7bbd4a56a7cee989868133f74f7b018973f31cddb683",
      "transactionType": "CALL",
      "contractName": null,
      "contractAddress": "0xe4c65569df195bdcbc81f519eb2c824796f4eabf",
      "function": "setChainToPeripheryContract(uint256,address)",
      "arguments": [
        "84532",
        "0x06f7650D42Af045ef508dEb1262C8917f9D71223"
      ],
      "transaction": {
        "from": "0x00e3cc76da72cf673e4429e2d527388956af61ef",
        "to": "0xe4c65569df195bdcbc81f519eb2c824796f4eabf",
        "gas": "0xc2ca",
        "value": "0x0",
        "input": "0x5e0b30db0000000000000000000000000000000000000000000000000000000000014a3400000000000000000000000006f7650d42af045ef508deb1262c8917f9d71223",
        "nonce": "0x16f",
        "chainId": "0x13bb"
      },
      "additionalContracts": [],
      "isFixedGasLimit": false
    }
  ],
  "receipts": [
    {
      "status": "0x1",
      "cumulativeGasUsed": "0x1443c",
      "logs": [
        {
          "address": "0xe4c65569df195bdcbc81f519eb2c824796f4eabf",
          "topics": [
            "0x767785ec8a0326548b9a53e8e065f90615a014cda2b32d3d39845f234a37f8e4"
          ],
          "data": "0x00000000000000000000000006f7650d42af045ef508deb1262c8917f9d712230000000000000000000000000000000000000000000000000000000000014a34",
          "blockHash": "0x530305e9fc0451e714bc3d21191a11241335b273c97387c55996ba3713b95f85",
          "blockNumber": "0x3d839e",
          "transactionHash": "0x004397c5f4360bcce13e7bbd4a56a7cee989868133f74f7b018973f31cddb683",
          "transactionIndex": "0x1",
          "logIndex": "0x0",
          "removed": false
        }
      ],
      "logsBloom": "0x00000000000000000000000080000000000000000000000000000000000000000000000000000000000000000000000000000000000000000000000000000000000000000000000000000000000000000000000000000000000000000000000000000000000000000000000000000000000000000000000000000000000000000000000000000000000000000000000000000000000000000000000000000000000810000000000000000000000000000000000010000000000000000000000000000000000000000000000040000000000000000000000000000000000000000000000000000200000000000000000000000000000000000000000000000000",
      "type": "0x2",
      "transactionHash": "0x004397c5f4360bcce13e7bbd4a56a7cee989868133f74f7b018973f31cddb683",
      "transactionIndex": "0x1",
      "blockHash": "0x530305e9fc0451e714bc3d21191a11241335b273c97387c55996ba3713b95f85",
      "blockNumber": "0x3d839e",
      "gasUsed": "0x8d07",
      "effectiveGasPrice": "0xfd",
      "from": "0x00e3cc76da72cf673e4429e2d527388956af61ef",
      "to": "0xe4c65569df195bdcbc81f519eb2c824796f4eabf",
      "contractAddress": null,
      "l1Fee": "0x166f8e39f1e70",
      "l1FeeScalar": "1",
      "l1GasPrice": "0x14c5b8eb1e",
      "l1GasUsed": "0x1148"
    }
  ],
  "libraries": [],
  "pending": [],
  "returns": {},
  "timestamp": 1719888031,
  "chain": 5051,
  "commit": "9753a12"
}