{
  "transactions": [
    {
      "hash": "0x40ae7e04422d37a6ce41e885b81b1180b0b677a5870ce603e707ae8fc23e6df8",
      "transactionType": "CALL",
      "contractName": null,
      "contractAddress": "0x5bf46c3c1280ffd84f373b84e4690bd5219665d9",
      "function": "startAuction()",
      "arguments": [],
      "transaction": {
        "from": "0x00e3cc76da72cf673e4429e2d527388956af61ef",
        "to": "0x5bf46c3c1280ffd84f373b84e4690bd5219665d9",
        "gas": "0x1292d",
        "value": "0x0",
        "input": "0x6b64c769",
        "nonce": "0x141",
        "chainId": "0x13bb"
      },
      "additionalContracts": [],
      "isFixedGasLimit": false
    },
    {
      "hash": "0xa92c4e2b3aada2be18de48747a17a5c73da3820e952d247a9d6651b9ae7ee9f1",
      "transactionType": "CALL",
      "contractName": null,
      "contractAddress": "0x5bf46c3c1280ffd84f373b84e4690bd5219665d9",
      "function": "setChainToPeripheryContract(uint256,address)",
      "arguments": [
        "84532",
        "0x6bd1a2c15eCB4901208DCC4133D10836f0CDE927"
      ],
      "transaction": {
        "from": "0x00e3cc76da72cf673e4429e2d527388956af61ef",
        "to": "0x5bf46c3c1280ffd84f373b84e4690bd5219665d9",
        "gas": "0x20ec2",
        "value": "0x0",
        "input": "0x5e0b30db0000000000000000000000000000000000000000000000000000000000014a340000000000000000000000006bd1a2c15ecb4901208dcc4133d10836f0cde927",
        "nonce": "0x142",
        "chainId": "0x13bb"
      },
      "additionalContracts": [],
      "isFixedGasLimit": false
    },
    {
      "hash": "0x81503b19920164efbaef024138465351d27d26adaec7b023a8c5f5e8dd1a2545",
      "transactionType": "CALL",
      "contractName": null,
      "contractAddress": "0x5bf46c3c1280ffd84f373b84e4690bd5219665d9",
      "function": "processIntent(((address,bytes),address,bytes))",
      "arguments": [
        "((0x5BF46c3C1280ffD84f373b84E4690BD5219665D9, 0x04717aca000000000000000000000000fa87a9fab7f0222f7d6d190a7c7ce6e48547aef400000000000000000000000000000000000000000000000006f05b59d3b200000000000000000000000000000000000000000000000000000000000000014a34), 0xFa87a9fab7F0222f7d6D190A7C7ce6E48547aef4, 0xcfe37389fd54c2d1f65bb1df22383a673c8fa5ca0995e214f4f937ce88aab8790940ddb06b38f186cd3376be3d31e1b0196599bbeb0ba0c7f94dd91b64cd6e2e1c)"
      ],
      "transaction": {
        "from": "0x00e3cc76da72cf673e4429e2d527388956af61ef",
        "to": "0x5bf46c3c1280ffd84f373b84e4690bd5219665d9",
        "gas": "0x32824",
        "value": "0x0",
        "input": "0x57d79fcd00000000000000000000000000000000000000000000000000000000000000200000000000000000000000000000000000000000000000000000000000000060000000000000000000000000fa87a9fab7f0222f7d6d190a7c7ce6e48547aef400000000000000000000000000000000000000000000000000000000000001400000000000000000000000005bf46c3c1280ffd84f373b84e4690bd5219665d90000000000000000000000000000000000000000000000000000000000000040000000000000000000000000000000000000000000000000000000000000006404717aca000000000000000000000000fa87a9fab7f0222f7d6d190a7c7ce6e48547aef400000000000000000000000000000000000000000000000006f05b59d3b200000000000000000000000000000000000000000000000000000000000000014a34000000000000000000000000000000000000000000000000000000000000000000000000000000000000000000000000000000000000000000000041cfe37389fd54c2d1f65bb1df22383a673c8fa5ca0995e214f4f937ce88aab8790940ddb06b38f186cd3376be3d31e1b0196599bbeb0ba0c7f94dd91b64cd6e2e1c00000000000000000000000000000000000000000000000000000000000000",
        "nonce": "0x143",
        "chainId": "0x13bb"
      },
      "additionalContracts": [],
      "isFixedGasLimit": false
    }
  ],
  "receipts": [
    {
      "status": "0x1",
      "cumulativeGasUsed": "0x1825c",
      "logs": [
        {
          "address": "0x5bf46c3c1280ffd84f373b84e4690bd5219665d9",
          "topics": [
            "0x1bb96dff6ab5005aff98cdc0cf176bb7d8e0423cb48e02217d35b042cec81e9f"
          ],
          "data": "0x00000000000000000000000000000000000000000000000000000000668275f8",
          "blockHash": "0x7f6cb442f766c2ab85777c4af2ae8ec68e32f083f0eb225df548987782b0b12a",
          "blockNumber": "0x3d0a4c",
          "transactionHash": "0x40ae7e04422d37a6ce41e885b81b1180b0b677a5870ce603e707ae8fc23e6df8",
          "transactionIndex": "0x1",
          "logIndex": "0x0",
          "removed": false
        }
      ],
      "logsBloom": "0x00000000000000000004000000000000400000000000000000000000000000000000000000000000000000000000000000000000000000000010000000000000000000000000000000000000000000000000000000000000000000000000000000000000000000000000000000000000000080000000000000000000000000000000000010000000000000000000000000000000000000000000000000000000000000000800000000000000000000000000000000000000000000000000000000000000000000000000000000000000000000000000000000000000000000000000000000000000000000000000000000000000000000000000000000000000",
      "type": "0x2",
      "transactionHash": "0x40ae7e04422d37a6ce41e885b81b1180b0b677a5870ce603e707ae8fc23e6df8",
      "transactionIndex": "0x1",
      "blockHash": "0x7f6cb442f766c2ab85777c4af2ae8ec68e32f083f0eb225df548987782b0b12a",
      "blockNumber": "0x3d0a4c",
      "gasUsed": "0xcb33",
      "effectiveGasPrice": "0xfd",
      "from": "0x00e3cc76da72cf673e4429e2d527388956af61ef",
      "to": "0x5bf46c3c1280ffd84f373b84e4690bd5219665d9",
      "contractAddress": null,
      "l1Fee": "0xc9a0320c9b98",
      "l1FeeScalar": "1",
      "l1GasPrice": "0xd4d9aca77",
      "l1GasUsed": "0xf28"
    },
    {
      "status": "0x1",
      "cumulativeGasUsed": "0x2ffba",
      "logs": [
        {
          "address": "0x5bf46c3c1280ffd84f373b84e4690bd5219665d9",
          "topics": [
            "0x767785ec8a0326548b9a53e8e065f90615a014cda2b32d3d39845f234a37f8e4"
          ],
          "data": "0x0000000000000000000000006bd1a2c15ecb4901208dcc4133d10836f0cde9270000000000000000000000000000000000000000000000000000000000014a34",
          "blockHash": "0x7f6cb442f766c2ab85777c4af2ae8ec68e32f083f0eb225df548987782b0b12a",
          "blockNumber": "0x3d0a4c",
          "transactionHash": "0xa92c4e2b3aada2be18de48747a17a5c73da3820e952d247a9d6651b9ae7ee9f1",
          "transactionIndex": "0x2",
          "logIndex": "0x1",
          "removed": false
        }
      ],
      "logsBloom": "0x00000000000000000000000080000000400000000000000000000000000000000000000000000000000000000000000000000000000000000000000000000000000000000000000000000000000000000000000000000000000000000000000000000000000000000000000000000000000080000000000000000000000000000000000010000000000000000000000000000000000000000000000000000000000000000000000000000000000000000000000010000000000000000000000000000000000000000000000000000000000000000000000000000000000000000000000000000200000000000000000000000000000000000000000000000000",
      "type": "0x2",
      "transactionHash": "0xa92c4e2b3aada2be18de48747a17a5c73da3820e952d247a9d6651b9ae7ee9f1",
      "transactionIndex": "0x2",
      "blockHash": "0x7f6cb442f766c2ab85777c4af2ae8ec68e32f083f0eb225df548987782b0b12a",
      "blockNumber": "0x3d0a4c",
      "gasUsed": "0x17d5e",
      "effectiveGasPrice": "0xfd",
      "from": "0x00e3cc76da72cf673e4429e2d527388956af61ef",
      "to": "0x5bf46c3c1280ffd84f373b84e4690bd5219665d9",
      "contractAddress": null,
      "l1Fee": "0xe6b9f4a77fe8",
      "l1FeeScalar": "1",
      "l1GasPrice": "0xd4d9aca77",
      "l1GasUsed": "0x1158"
    },
    {
      "status": "0x1",
      "cumulativeGasUsed": "0x548cf",
      "logs": [
        {
          "address": "0x5bf46c3c1280ffd84f373b84e4690bd5219665d9",
          "topics": [
            "0xdf8644c0a4c21ed214ce69f395675b3a5fcd1039083daea5058898de40ea3149"
          ],
          "data": "0x000000000000000000000000fa87a9fab7f0222f7d6d190a7c7ce6e48547aef400000000000000000000000000000000000000000000000006f05b59d3b200000000000000000000000000000000000000000000000000000000000000014a34",
          "blockHash": "0x7f6cb442f766c2ab85777c4af2ae8ec68e32f083f0eb225df548987782b0b12a",
          "blockNumber": "0x3d0a4c",
          "transactionHash": "0x81503b19920164efbaef024138465351d27d26adaec7b023a8c5f5e8dd1a2545",
          "transactionIndex": "0x3",
          "logIndex": "0x2",
          "removed": false
        }
      ],
      "logsBloom": "0x00000000000000000000000000000000400000000000000000000000000000000000000000001000000000000000000000000000000000000000000000000000000000000000000000000000000000000000000000000000000000000000000000000000000000000000000000000000000080000000000100000000000000000000000090000000000000000000000000000000000000000000000000000000000000000000000000000000000000000000000000000000000000000000000000000000000000000000000000000000000000000000000000000000000000000000000000000000000000000000000000000000000000000000000000000000",
      "type": "0x2",
      "transactionHash": "0x81503b19920164efbaef024138465351d27d26adaec7b023a8c5f5e8dd1a2545",
      "transactionIndex": "0x3",
      "blockHash": "0x7f6cb442f766c2ab85777c4af2ae8ec68e32f083f0eb225df548987782b0b12a",
      "blockNumber": "0x3d0a4c",
      "gasUsed": "0x24915",
      "effectiveGasPrice": "0xfd",
      "from": "0x00e3cc76da72cf673e4429e2d527388956af61ef",
      "to": "0x5bf46c3c1280ffd84f373b84e4690bd5219665d9",
      "contractAddress": null,
      "l1Fee": "0x18aefe35aacd0",
      "l1FeeScalar": "1",
      "l1GasPrice": "0xd4d9aca77",
      "l1GasUsed": "0x1db0"
    }
  ],
  "libraries": [],
  "pending": [],
  "returns": {},
  "timestamp": 1719825916,
  "chain": 5051,
  "commit": "9753a12"
}