{
  "transactions": [
    {
      "hash": "0xad672814aa6b57730552d58292d7a0a1e29fd247cbd0f483fc0bd6248158bc8b",
      "transactionType": "CALL",
      "contractName": null,
      "contractAddress": "0xe4c65569df195bdcbc81f519eb2c824796f4eabf",
      "function": "startAuction()",
      "arguments": [],
      "transaction": {
        "from": "0x00e3cc76da72cf673e4429e2d527388956af61ef",
        "to": "0xe4c65569df195bdcbc81f519eb2c824796f4eabf",
        "gas": "0x1292d",
        "value": "0x0",
        "input": "0x6b64c769",
        "nonce": "0x162",
        "chainId": "0x13bb"
      },
      "additionalContracts": [],
      "isFixedGasLimit": false
    },
    {
      "hash": "0x63ac6fe0546f37604d262d3309781ee3c4c5fa1d295a8e413d56390c4fc96e66",
      "transactionType": "CALL",
      "contractName": null,
      "contractAddress": "0xe4c65569df195bdcbc81f519eb2c824796f4eabf",
      "function": "setChainToPeripheryContract(uint256,address)",
      "arguments": [
        "84532",
        "0x172A014aAA772E7634E051d2f5ecC424d95Df920"
      ],
      "transaction": {
        "from": "0x00e3cc76da72cf673e4429e2d527388956af61ef",
        "to": "0xe4c65569df195bdcbc81f519eb2c824796f4eabf",
        "gas": "0x20ec2",
        "value": "0x0",
        "input": "0x5e0b30db0000000000000000000000000000000000000000000000000000000000014a34000000000000000000000000172a014aaa772e7634e051d2f5ecc424d95df920",
        "nonce": "0x163",
        "chainId": "0x13bb"
      },
      "additionalContracts": [],
      "isFixedGasLimit": false
    },
    {
      "hash": "0x78480cc1d96cb08ca95c0e4bd390d455ae92c6233ac6ef5a1eab25bc6b9699af",
      "transactionType": "CALL",
      "contractName": null,
      "contractAddress": "0xe4c65569df195bdcbc81f519eb2c824796f4eabf",
      "function": "processIntent(((address,bytes),address,bytes))",
      "arguments": [
        "((0xE4c65569df195BDcBC81f519eb2c824796F4EaBf, 0x04717aca000000000000000000000000fa87a9fab7f0222f7d6d190a7c7ce6e48547aef40000000000000000000000000000000000000000000000004563918244f400000000000000000000000000000000000000000000000000000000000000014a34), 0xFa87a9fab7F0222f7d6D190A7C7ce6E48547aef4, 0x8f94ddcebd94cbbb1dc20f5e013ca866be9aab3dbc1e75a21a8a4ccbb9e94d6717f5cb5b93cda9b47e6a7b280bebaad905472ba041f663ced775dc86eb9cf2e31b)"
      ],
      "transaction": {
        "from": "0x00e3cc76da72cf673e4429e2d527388956af61ef",
        "to": "0xe4c65569df195bdcbc81f519eb2c824796f4eabf",
        "gas": "0x32824",
        "value": "0x0",
        "input": "0x57d79fcd00000000000000000000000000000000000000000000000000000000000000200000000000000000000000000000000000000000000000000000000000000060000000000000000000000000fa87a9fab7f0222f7d6d190a7c7ce6e48547aef40000000000000000000000000000000000000000000000000000000000000140000000000000000000000000e4c65569df195bdcbc81f519eb2c824796f4eabf0000000000000000000000000000000000000000000000000000000000000040000000000000000000000000000000000000000000000000000000000000006404717aca000000000000000000000000fa87a9fab7f0222f7d6d190a7c7ce6e48547aef40000000000000000000000000000000000000000000000004563918244f400000000000000000000000000000000000000000000000000000000000000014a340000000000000000000000000000000000000000000000000000000000000000000000000000000000000000000000000000000000000000000000418f94ddcebd94cbbb1dc20f5e013ca866be9aab3dbc1e75a21a8a4ccbb9e94d6717f5cb5b93cda9b47e6a7b280bebaad905472ba041f663ced775dc86eb9cf2e31b00000000000000000000000000000000000000000000000000000000000000",
        "nonce": "0x164",
        "chainId": "0x13bb"
      },
      "additionalContracts": [],
      "isFixedGasLimit": false
    }
  ],
  "receipts": [
    {
      "status": "0x1",
      "cumulativeGasUsed": "0x18268",
      "logs": [
        {
          "address": "0xe4c65569df195bdcbc81f519eb2c824796f4eabf",
          "topics": [
            "0x1bb96dff6ab5005aff98cdc0cf176bb7d8e0423cb48e02217d35b042cec81e9f"
          ],
          "data": "0x000000000000000000000000000000000000000000000000000000006682de80",
          "blockHash": "0xd710f0d7c489f41f4a24d4e27686d5b12ea6a0669268d16c1cddb833d06b72ff",
          "blockNumber": "0x3d3e90",
          "transactionHash": "0xad672814aa6b57730552d58292d7a0a1e29fd247cbd0f483fc0bd6248158bc8b",
          "transactionIndex": "0x1",
          "logIndex": "0x0",
          "removed": false
        }
      ],
      "logsBloom": "0x00000000000000000004000000000000000000000000000000000000000000000000000000000000000000000000000000000000000000000010000000000000000000000000000000000000000000000000000000000000000000000000000000000000000000000000000000000000000000000000000000000000000000000000000000000000000000000000000000000000000000000000000000000000000810000800000000000000000000000000000000000000000000000000000000000000000000000000000040000000000000000000000000000000000000000000000000000000000000000000000000000000000000000000000000000000",
      "type": "0x2",
      "transactionHash": "0xad672814aa6b57730552d58292d7a0a1e29fd247cbd0f483fc0bd6248158bc8b",
      "transactionIndex": "0x1",
      "blockHash": "0xd710f0d7c489f41f4a24d4e27686d5b12ea6a0669268d16c1cddb833d06b72ff",
      "blockNumber": "0x3d3e90",
      "gasUsed": "0xcb33",
      "effectiveGasPrice": "0xfd",
      "from": "0x00e3cc76da72cf673e4429e2d527388956af61ef",
      "to": "0xe4c65569df195bdcbc81f519eb2c824796f4eabf",
      "contractAddress": null,
      "l1Fee": "0x43e7b1d360f8",
      "l1FeeScalar": "1",
      "l1GasPrice": "0x47af725b3",
      "l1GasUsed": "0xf28"
    },
    {
      "status": "0x1",
      "cumulativeGasUsed": "0x2ffc6",
      "logs": [
        {
          "address": "0xe4c65569df195bdcbc81f519eb2c824796f4eabf",
          "topics": [
            "0x767785ec8a0326548b9a53e8e065f90615a014cda2b32d3d39845f234a37f8e4"
          ],
          "data": "0x000000000000000000000000172a014aaa772e7634e051d2f5ecc424d95df9200000000000000000000000000000000000000000000000000000000000014a34",
          "blockHash": "0xd710f0d7c489f41f4a24d4e27686d5b12ea6a0669268d16c1cddb833d06b72ff",
          "blockNumber": "0x3d3e90",
          "transactionHash": "0x63ac6fe0546f37604d262d3309781ee3c4c5fa1d295a8e413d56390c4fc96e66",
          "transactionIndex": "0x2",
          "logIndex": "0x1",
          "removed": false
        }
      ],
      "logsBloom": "0x00000000000000000000000080000000000000000000000000000000000000000000000000000000000000000000000000000000000000000000000000000000000000000000000000000000000000000000000000000000000000000000000000000000000000000000000000000000000000000000000000000000000000000000000000000000000000000000000000000000000000000000000000000000000810000000000000000000000000000000000010000000000000000000000000000000000000000000000040000000000000000000000000000000000000000000000000000200000000000000000000000000000000000000000000000000",
      "type": "0x2",
      "transactionHash": "0x63ac6fe0546f37604d262d3309781ee3c4c5fa1d295a8e413d56390c4fc96e66",
      "transactionIndex": "0x2",
      "blockHash": "0xd710f0d7c489f41f4a24d4e27686d5b12ea6a0669268d16c1cddb833d06b72ff",
      "blockNumber": "0x3d3e90",
      "gasUsed": "0x17d5e",
      "effectiveGasPrice": "0xfd",
      "from": "0x00e3cc76da72cf673e4429e2d527388956af61ef",
      "to": "0xe4c65569df195bdcbc81f519eb2c824796f4eabf",
      "contractAddress": null,
      "l1Fee": "0x4db4ae75d888",
      "l1FeeScalar": "1",
      "l1GasPrice": "0x47af725b3",
      "l1GasUsed": "0x1158"
    },
    {
      "status": "0x1",
      "cumulativeGasUsed": "0x548db",
      "logs": [
        {
          "address": "0xe4c65569df195bdcbc81f519eb2c824796f4eabf",
          "topics": [
            "0xdf8644c0a4c21ed214ce69f395675b3a5fcd1039083daea5058898de40ea3149"
          ],
          "data": "0x000000000000000000000000fa87a9fab7f0222f7d6d190a7c7ce6e48547aef40000000000000000000000000000000000000000000000004563918244f400000000000000000000000000000000000000000000000000000000000000014a34",
          "blockHash": "0xd710f0d7c489f41f4a24d4e27686d5b12ea6a0669268d16c1cddb833d06b72ff",
          "blockNumber": "0x3d3e90",
          "transactionHash": "0x78480cc1d96cb08ca95c0e4bd390d455ae92c6233ac6ef5a1eab25bc6b9699af",
          "transactionIndex": "0x3",
          "logIndex": "0x2",
          "removed": false
        }
      ],
      "logsBloom": "0x00000000000000000000000000000000000000000000000000000000000000000000000000001000000000000000000000000000000000000000000000000000000000000000000000000000000000000000000000000000000000000000000000000000000000000000000000000000000000000000000100000000000000000000000080000000000000000000000000000000000000000000000000000000000810000000000000000000000000000000000000000000000000000000000000000000000000000000000040000000000000000000000000000000000000000000000000000000000000000000000000000000000000000000000000000000",
      "type": "0x2",
      "transactionHash": "0x78480cc1d96cb08ca95c0e4bd390d455ae92c6233ac6ef5a1eab25bc6b9699af",
      "transactionIndex": "0x3",
      "blockHash": "0xd710f0d7c489f41f4a24d4e27686d5b12ea6a0669268d16c1cddb833d06b72ff",
      "blockNumber": "0x3d3e90",
      "gasUsed": "0x24915",
      "effectiveGasPrice": "0xfd",
      "from": "0x00e3cc76da72cf673e4429e2d527388956af61ef",
      "to": "0xe4c65569df195bdcbc81f519eb2c824796f4eabf",
      "contractAddress": null,
      "l1Fee": "0x8502892f3210",
      "l1FeeScalar": "1",
      "l1GasPrice": "0x47af725b3",
      "l1GasUsed": "0x1db0"
    }
  ],
  "libraries": [],
  "pending": [],
  "returns": {},
  "timestamp": 1719852676,
  "chain": 5051,
  "commit": "9753a12"
}