{
  "transactions": [
    {
      "hash": "0x6b153f935171a380cdda0a8b94cf29859d254a75dd6841aefaa20ac5400249f6",
      "transactionType": "CALL",
      "contractName": null,
      "contractAddress": "0x50b6c55a07f5b43cec635dceaa521dd73efd8fac",
      "function": "startAuction()",
      "arguments": [],
      "transaction": {
        "from": "0x00e3cc76da72cf673e4429e2d527388956af61ef",
        "to": "0x50b6c55a07f5b43cec635dceaa521dd73efd8fac",
        "gas": "0x1292d",
        "value": "0x0",
        "input": "0x6b64c769",
        "nonce": "0x14b",
        "chainId": "0x13bb"
      },
      "additionalContracts": [],
      "isFixedGasLimit": false
    },
    {
      "hash": "0x4454d11ab5a8cd4ac8cfeb2c435aa16d36fa8f3cb73859413e531e554275e277",
      "transactionType": "CALL",
      "contractName": null,
      "contractAddress": "0x50b6c55a07f5b43cec635dceaa521dd73efd8fac",
      "function": "setChainToPeripheryContract(uint256,address)",
      "arguments": [
        "84532",
        "0x172A014aAA772E7634E051d2f5ecC424d95Df920"
      ],
      "transaction": {
        "from": "0x00e3cc76da72cf673e4429e2d527388956af61ef",
        "to": "0x50b6c55a07f5b43cec635dceaa521dd73efd8fac",
        "gas": "0x20ec2",
        "value": "0x0",
        "input": "0x5e0b30db0000000000000000000000000000000000000000000000000000000000014a34000000000000000000000000172a014aaa772e7634e051d2f5ecc424d95df920",
        "nonce": "0x14c",
        "chainId": "0x13bb"
      },
      "additionalContracts": [],
      "isFixedGasLimit": false
    },
    {
      "hash": "0xff1d3145e9ed2ee9f52e21500b983f1f7a0ae1e0916b1a206005b304c8e36ab1",
      "transactionType": "CALL",
      "contractName": null,
      "contractAddress": "0x50b6c55a07f5b43cec635dceaa521dd73efd8fac",
      "function": "processIntent(((address,bytes),address,bytes))",
      "arguments": [
        "((0x50b6C55A07F5B43cEC635dceaA521DD73efd8FAC, 0x04717aca000000000000000000000000fa87a9fab7f0222f7d6d190a7c7ce6e48547aef40000000000000000000000000000000000000000000000004563918244f400000000000000000000000000000000000000000000000000000000000000014a34), 0xFa87a9fab7F0222f7d6D190A7C7ce6E48547aef4, 0x0074fdad9b989cf6044328f61b980512d34aafe1ec899333ff855af30773e3721871034019c5d43d67d48ba463ceeeb1525a38e5c19232fd37bd784e211615b41c)"
      ],
      "transaction": {
        "from": "0x00e3cc76da72cf673e4429e2d527388956af61ef",
        "to": "0x50b6c55a07f5b43cec635dceaa521dd73efd8fac",
        "gas": "0x3579d",
        "value": "0x0",
        "input": "0x57d79fcd00000000000000000000000000000000000000000000000000000000000000200000000000000000000000000000000000000000000000000000000000000060000000000000000000000000fa87a9fab7f0222f7d6d190a7c7ce6e48547aef4000000000000000000000000000000000000000000000000000000000000014000000000000000000000000050b6c55a07f5b43cec635dceaa521dd73efd8fac0000000000000000000000000000000000000000000000000000000000000040000000000000000000000000000000000000000000000000000000000000006404717aca000000000000000000000000fa87a9fab7f0222f7d6d190a7c7ce6e48547aef40000000000000000000000000000000000000000000000004563918244f400000000000000000000000000000000000000000000000000000000000000014a340000000000000000000000000000000000000000000000000000000000000000000000000000000000000000000000000000000000000000000000410074fdad9b989cf6044328f61b980512d34aafe1ec899333ff855af30773e3721871034019c5d43d67d48ba463ceeeb1525a38e5c19232fd37bd784e211615b41c00000000000000000000000000000000000000000000000000000000000000",
        "nonce": "0x14d",
        "chainId": "0x13bb"
      },
      "additionalContracts": [],
      "isFixedGasLimit": false
    }
  ],
  "receipts": [
    {
      "status": "0x1",
      "cumulativeGasUsed": "0x1825c",
      "logs": [
        {
          "address": "0x50b6c55a07f5b43cec635dceaa521dd73efd8fac",
          "topics": [
            "0x1bb96dff6ab5005aff98cdc0cf176bb7d8e0423cb48e02217d35b042cec81e9f"
          ],
          "data": "0x0000000000000000000000000000000000000000000000000000000066828092",
          "blockHash": "0x61a51b8039a4ef90a79a936b1d6262b554bc2b4e488b21202f4e240d1f5c1e50",
          "blockNumber": "0x3d0f99",
          "transactionHash": "0x6b153f935171a380cdda0a8b94cf29859d254a75dd6841aefaa20ac5400249f6",
          "transactionIndex": "0x1",
          "logIndex": "0x0",
          "removed": false
        }
      ],
      "logsBloom": "0x00000000000000000004020000000000000000000000000000000000000000000000000000000000000000000000000000000000000000000010000000000000000000000000000000000000000000000000000000000000000000000000000000000000000000000000000000000000000000000000000000000000000000000000000000000000000000100000000000000000000000000000000000000000000000000800000000000000000000000000000000000000000004000000000000000000000000000000000000000000000000000000000000000000000000000000000000000000000000000000000000000000000000000000000000000000",
      "type": "0x2",
      "transactionHash": "0x6b153f935171a380cdda0a8b94cf29859d254a75dd6841aefaa20ac5400249f6",
      "transactionIndex": "0x1",
      "blockHash": "0x61a51b8039a4ef90a79a936b1d6262b554bc2b4e488b21202f4e240d1f5c1e50",
      "blockNumber": "0x3d0f99",
      "gasUsed": "0xcb33",
      "effectiveGasPrice": "0xfd",
      "from": "0x00e3cc76da72cf673e4429e2d527388956af61ef",
      "to": "0x50b6c55a07f5b43cec635dceaa521dd73efd8fac",
      "contractAddress": null,
      "l1Fee": "0x3d1f681631ec",
      "l1FeeScalar": "1",
      "l1GasPrice": "0x405391967",
      "l1GasUsed": "0xf34"
    },
    {
      "status": "0x1",
      "cumulativeGasUsed": "0x2ffba",
      "logs": [
        {
          "address": "0x50b6c55a07f5b43cec635dceaa521dd73efd8fac",
          "topics": [
            "0x767785ec8a0326548b9a53e8e065f90615a014cda2b32d3d39845f234a37f8e4"
          ],
          "data": "0x000000000000000000000000172a014aaa772e7634e051d2f5ecc424d95df9200000000000000000000000000000000000000000000000000000000000014a34",
          "blockHash": "0x61a51b8039a4ef90a79a936b1d6262b554bc2b4e488b21202f4e240d1f5c1e50",
          "blockNumber": "0x3d0f99",
          "transactionHash": "0x4454d11ab5a8cd4ac8cfeb2c435aa16d36fa8f3cb73859413e531e554275e277",
          "transactionIndex": "0x2",
          "logIndex": "0x1",
          "removed": false
        }
      ],
      "logsBloom": "0x00000000000000000000020080000000000000000000000000000000000000000000000000000000000000000000000000000000000000000000000000000000000000000000000000000000000000000000000000000000000000000000000000000000000000000000000000000000000000000000000000000000000000000000000000000000000000100000000000000000000000000000000000000000000000000000000000000000000000000000000010000000000004000000000000000000000000000000000000000000000000000000000000000000000000000000000000000200000000000000000000000000000000000000000000000000",
      "type": "0x2",
      "transactionHash": "0x4454d11ab5a8cd4ac8cfeb2c435aa16d36fa8f3cb73859413e531e554275e277",
      "transactionIndex": "0x2",
      "blockHash": "0x61a51b8039a4ef90a79a936b1d6262b554bc2b4e488b21202f4e240d1f5c1e50",
      "blockNumber": "0x3d0f99",
      "gasUsed": "0x17d5e",
      "effectiveGasPrice": "0xfd",
      "from": "0x00e3cc76da72cf673e4429e2d527388956af61ef",
      "to": "0x50b6c55a07f5b43cec635dceaa521dd73efd8fac",
      "contractAddress": null,
      "l1Fee": "0x45ba96509268",
      "l1FeeScalar": "1",
      "l1GasPrice": "0x405391967",
      "l1GasUsed": "0x1158"
    },
    {
      "status": "0x1",
      "cumulativeGasUsed": "0x548c3",
      "logs": [
        {
          "address": "0x50b6c55a07f5b43cec635dceaa521dd73efd8fac",
          "topics": [
            "0xdf8644c0a4c21ed214ce69f395675b3a5fcd1039083daea5058898de40ea3149"
          ],
          "data": "0x000000000000000000000000fa87a9fab7f0222f7d6d190a7c7ce6e48547aef40000000000000000000000000000000000000000000000004563918244f400000000000000000000000000000000000000000000000000000000000000014a34",
          "blockHash": "0x61a51b8039a4ef90a79a936b1d6262b554bc2b4e488b21202f4e240d1f5c1e50",
          "blockNumber": "0x3d0f99",
          "transactionHash": "0xff1d3145e9ed2ee9f52e21500b983f1f7a0ae1e0916b1a206005b304c8e36ab1",
          "transactionIndex": "0x3",
          "logIndex": "0x2",
          "removed": false
        }
      ],
      "logsBloom": "0x00000000000000000000020000000000000000000000000000000000000000000000000000001000000000000000000000000000000000000000000000000000000000000000000000000000000000000000000000000000000000000000000000000000000000000000000000000000000000000000000100000000000000000000000080000000000000100000000000000000000000000000000000000000000000000000000000000000000000000000000000000000000004000000000000000000000000000000000000000000000000000000000000000000000000000000000000000000000000000000000000000000000000000000000000000000",
      "type": "0x2",
      "transactionHash": "0xff1d3145e9ed2ee9f52e21500b983f1f7a0ae1e0916b1a206005b304c8e36ab1",
      "transactionIndex": "0x3",
      "blockHash": "0x61a51b8039a4ef90a79a936b1d6262b554bc2b4e488b21202f4e240d1f5c1e50",
      "blockNumber": "0x3d0f99",
      "gasUsed": "0x24909",
      "effectiveGasPrice": "0xfd",
      "from": "0x00e3cc76da72cf673e4429e2d527388956af61ef",
      "to": "0x50b6c55a07f5b43cec635dceaa521dd73efd8fac",
      "contractAddress": null,
      "l1Fee": "0x772ad074f0fc",
      "l1FeeScalar": "1",
      "l1GasPrice": "0x405391967",
      "l1GasUsed": "0x1da4"
    }
  ],
  "libraries": [],
  "pending": [],
  "returns": {},
  "timestamp": 1719828630,
  "chain": 5051,
  "commit": "9753a12"
}