{
  "transactions": [
    {
      "hash": "0xb6c2f3332aa4b21d420ebda90350acc66d81454225dcfa05bb55d9e1bdb27c87",
      "transactionType": "CALL",
      "contractName": null,
      "contractAddress": "0xd456dbcbf79ed12f34bc59b8c38677acac59818c",
      "function": "startAuction()",
      "arguments": [],
      "transaction": {
        "from": "0x00e3cc76da72cf673e4429e2d527388956af61ef",
        "to": "0xd456dbcbf79ed12f34bc59b8c38677acac59818c",
        "gas": "0x1292d",
        "value": "0x0",
        "input": "0x6b64c769",
        "nonce": "0x9c",
        "chainId": "0x13bb"
      },
      "additionalContracts": [],
      "isFixedGasLimit": false
    },
    {
      "hash": "0x74771379296c06aac5ac71ef15256f236e83abafee2723199a8bdccdacf5ce53",
      "transactionType": "CALL",
      "contractName": null,
      "contractAddress": "0xd456dbcbf79ed12f34bc59b8c38677acac59818c",
      "function": "processIntent(((address,bytes),address,bytes))",
      "arguments": [
        "((0xd456DbCBF79Ed12F34Bc59B8C38677acAC59818c, 0x04717aca000000000000000000000000fa87a9fab7f0222f7d6d190a7c7ce6e48547aef40000000000000000000000000000000000000000000002c68af0bb14000000000000000000000000000000000000000000000000000000000000000000014a34), 0xFa87a9fab7F0222f7d6D190A7C7ce6E48547aef4, 0x4bff939697db3475e252e213f3d206f5c8e85a8dc2c861b4aefcdf67164cb30918de796d1307ffed7a622a851bcd1f8f07398cff47ffa1da19d7fbffc01ab5911c)"
      ],
      "transaction": {
        "from": "0x00e3cc76da72cf673e4429e2d527388956af61ef",
        "to": "0xd456dbcbf79ed12f34bc59b8c38677acac59818c",
        "gas": "0x37b94",
        "value": "0x0",
        "input": "0x57d79fcd00000000000000000000000000000000000000000000000000000000000000200000000000000000000000000000000000000000000000000000000000000060000000000000000000000000fa87a9fab7f0222f7d6d190a7c7ce6e48547aef40000000000000000000000000000000000000000000000000000000000000140000000000000000000000000d456dbcbf79ed12f34bc59b8c38677acac59818c0000000000000000000000000000000000000000000000000000000000000040000000000000000000000000000000000000000000000000000000000000006404717aca000000000000000000000000fa87a9fab7f0222f7d6d190a7c7ce6e48547aef40000000000000000000000000000000000000000000002c68af0bb14000000000000000000000000000000000000000000000000000000000000000000014a340000000000000000000000000000000000000000000000000000000000000000000000000000000000000000000000000000000000000000000000414bff939697db3475e252e213f3d206f5c8e85a8dc2c861b4aefcdf67164cb30918de796d1307ffed7a622a851bcd1f8f07398cff47ffa1da19d7fbffc01ab5911c00000000000000000000000000000000000000000000000000000000000000",
        "nonce": "0x9d",
        "chainId": "0x13bb"
      },
      "additionalContracts": [],
      "isFixedGasLimit": false
    }
  ],
  "receipts": [
    {
      "status": "0x1",
      "cumulativeGasUsed": "0x18268",
      "logs": [
        {
          "address": "0xd456dbcbf79ed12f34bc59b8c38677acac59818c",
          "topics": [
            "0x1bb96dff6ab5005aff98cdc0cf176bb7d8e0423cb48e02217d35b042cec81e9f"
          ],
          "data": "0x00000000000000000000000000000000000000000000000000000000667e894c",
          "blockHash": "0xd69a6014e5c6084b91eb4c40fc2395ee94744f102a693ebf7b8d402e89619d39",
          "blockNumber": "0x3b13f6",
          "transactionHash": "0xb6c2f3332aa4b21d420ebda90350acc66d81454225dcfa05bb55d9e1bdb27c87",
          "transactionIndex": "0x1",
          "logIndex": "0x0",
          "removed": false
        }
      ],
      "logsBloom": "0x00000000000000000004000000000000000000000000000000000000000000000000000000000000000000000000000000000000000000000010000000000000000000000004000000000000000000000000000000000000080000000000000000000000000000000000000000000000000000000000000000000000000000000000000000000000000000000000000000000000000000000000000000000000000000000800000000000000000000010000000000000000000000000000000000000000000000000000000000000000000000000000000000000000000000000000000000000000000000000000000000000000000000000000000000000000",
      "type": "0x2",
      "transactionHash": "0xb6c2f3332aa4b21d420ebda90350acc66d81454225dcfa05bb55d9e1bdb27c87",
      "transactionIndex": "0x1",
      "blockHash": "0xd69a6014e5c6084b91eb4c40fc2395ee94744f102a693ebf7b8d402e89619d39",
      "blockNumber": "0x3b13f6",
      "gasUsed": "0xcb33",
      "effectiveGasPrice": "0xfd",
      "from": "0x00e3cc76da72cf673e4429e2d527388956af61ef",
      "to": "0xd456dbcbf79ed12f34bc59b8c38677acac59818c",
      "contractAddress": null,
      "l1Fee": "0xfcd55be456fc",
      "l1FeeScalar": "1",
      "l1GasPrice": "0x10b2f24147",
      "l1GasUsed": "0xf24"
    },
    {
      "status": "0x1",
      "cumulativeGasUsed": "0x407e6",
      "logs": [],
      "logsBloom": "0x00000000000000000000000000000000000000000000000000000000000000000000000000000000000000000000000000000000000000000000000000000000000000000000000000000000000000000000000000000000000000000000000000000000000000000000000000000000000000000000000000000000000000000000000000000000000000000000000000000000000000000000000000000000000000000000000000000000000000000000000000000000000000000000000000000000000000000000000000000000000000000000000000000000000000000000000000000000000000000000000000000000000000000000000000000000",
      "type": "0x2",
      "transactionHash": "0x74771379296c06aac5ac71ef15256f236e83abafee2723199a8bdccdacf5ce53",
      "transactionIndex": "0x2",
      "blockHash": "0xd69a6014e5c6084b91eb4c40fc2395ee94744f102a693ebf7b8d402e89619d39",
      "blockNumber": "0x3b13f6",
      "gasUsed": "0x2857e",
      "effectiveGasPrice": "0xfd",
      "from": "0x00e3cc76da72cf673e4429e2d527388956af61ef",
      "to": "0xd456dbcbf79ed12f34bc59b8c38677acac59818c",
      "contractAddress": null,
      "l1Fee": "0x1eeb548cdd760",
      "l1FeeScalar": "1",
      "l1GasPrice": "0x10b2f24147",
      "l1GasUsed": "0x1da0"
    }
  ],
  "libraries": [],
  "pending": [],
  "returns": {},
  "timestamp": 1719568720,
  "chain": 5051,
  "commit": "9753a12"
}