{
  "transactions": [
    {
      "hash": "0xf580a103a32aec2904167be95902875e824fa7d4ac4c130bbe32194c446aae86",
      "transactionType": "CALL",
      "contractName": null,
      "contractAddress": "0xe4c65569df195bdcbc81f519eb2c824796f4eabf",
      "function": "setChainToPeripheryContract(uint256,address)",
      "arguments": [
        "11155420",
        "0xbB4f7B5A49cf0f342A9617aCBD93672c620FDe51"
      ],
      "transaction": {
        "from": "0x00e3cc76da72cf673e4429e2d527388956af61ef",
        "to": "0xe4c65569df195bdcbc81f519eb2c824796f4eabf",
        "gas": "0x1cc0e",
        "value": "0x0",
        "input": "0x5e0b30db0000000000000000000000000000000000000000000000000000000000aa37dc000000000000000000000000bb4f7b5a49cf0f342a9617acbd93672c620fde51",
        "nonce": "0x169",
        "chainId": "0x13bb"
      },
      "additionalContracts": [],
      "isFixedGasLimit": false
    },
    {
      "hash": "0x779ffde921511522972577301083f2e2fbc711fa0b5f1aa43b29bf9ea6095478",
      "transactionType": "CALL",
      "contractName": null,
      "contractAddress": "0xe4c65569df195bdcbc81f519eb2c824796f4eabf",
      "function": "processIntent(((address,bytes),address,bytes))",
      "arguments": [
        "((0xE4c65569df195BDcBC81f519eb2c824796F4EaBf, 0x04717aca0000000000000000000000008f34ba87ddfb178a0b1df423cbb077d5db418fad00000000000000000000000000000000000000000000000002c68af0bb1400000000000000000000000000000000000000000000000000000000000000aa37dc), 0x8F34BA87ddFb178A0b1df423CbB077D5db418fAD, 0xd4b46f585e2df70a97afb98eae47b2ffa38e71283fea3bfdb993260a7c92657d73317caf0eecdc6e48bb200ea840be2bff4cbdde5fa549bd8211879296dbd27d1c)"
      ],
      "transaction": {
        "from": "0x00e3cc76da72cf673e4429e2d527388956af61ef",
        "to": "0xe4c65569df195bdcbc81f519eb2c824796f4eabf",
        "gas": "0x32824",
        "value": "0x0",
        "input": "0x57d79fcd000000000000000000000000000000000000000000000000000000000000002000000000000000000000000000000000000000000000000000000000000000600000000000000000000000008f34ba87ddfb178a0b1df423cbb077d5db418fad0000000000000000000000000000000000000000000000000000000000000140000000000000000000000000e4c65569df195bdcbc81f519eb2c824796f4eabf0000000000000000000000000000000000000000000000000000000000000040000000000000000000000000000000000000000000000000000000000000006404717aca0000000000000000000000008f34ba87ddfb178a0b1df423cbb077d5db418fad00000000000000000000000000000000000000000000000002c68af0bb1400000000000000000000000000000000000000000000000000000000000000aa37dc000000000000000000000000000000000000000000000000000000000000000000000000000000000000000000000000000000000000000000000041d4b46f585e2df70a97afb98eae47b2ffa38e71283fea3bfdb993260a7c92657d73317caf0eecdc6e48bb200ea840be2bff4cbdde5fa549bd8211879296dbd27d1c00000000000000000000000000000000000000000000000000000000000000",
        "nonce": "0x16a",
        "chainId": "0x13bb"
      },
      "additionalContracts": [],
      "isFixedGasLimit": false
    }
  ],
  "receipts": [
    {
      "status": "0x1",
      "cumulativeGasUsed": "0x23493",
      "logs": [
        {
          "address": "0xe4c65569df195bdcbc81f519eb2c824796f4eabf",
          "topics": [
            "0x767785ec8a0326548b9a53e8e065f90615a014cda2b32d3d39845f234a37f8e4"
          ],
          "data": "0x000000000000000000000000bb4f7b5a49cf0f342a9617acbd93672c620fde510000000000000000000000000000000000000000000000000000000000aa37dc",
          "blockHash": "0xaa02e859486fa1fc362ba3d37911ef8fc408eb80132f9d21bf077cb4a96cf8e0",
          "blockNumber": "0x3d3eca",
          "transactionHash": "0xf580a103a32aec2904167be95902875e824fa7d4ac4c130bbe32194c446aae86",
          "transactionIndex": "0x1",
          "logIndex": "0x0",
          "removed": false
        }
      ],
      "logsBloom": "0x00000000000000000000000080000000000000000000000000000000000000000000000000000000000000000000000000000000000000000000000000000000000000000000000000000000000000000000000000000000000000000000000000000000000000000000000000000000000000000000000000000000000000000000000000000000000000000000000000000000000000000000000000000000000810000000000000000000000000000000000010000000000000000000000000000000000000000000000040000000000000000000000000000000000000000000000000000200000000000000000000000000000000000000000000000000",
      "type": "0x2",
      "transactionHash": "0xf580a103a32aec2904167be95902875e824fa7d4ac4c130bbe32194c446aae86",
      "transactionIndex": "0x1",
      "blockHash": "0xaa02e859486fa1fc362ba3d37911ef8fc408eb80132f9d21bf077cb4a96cf8e0",
      "blockNumber": "0x3d3eca",
      "gasUsed": "0x13a92",
      "effectiveGasPrice": "0xfd",
      "from": "0x00e3cc76da72cf673e4429e2d527388956af61ef",
      "to": "0xe4c65569df195bdcbc81f519eb2c824796f4eabf",
      "contractAddress": null,
      "l1Fee": "0x535aff0cf910",
      "l1FeeScalar": "1",
      "l1GasPrice": "0x4ce5b4666",
      "l1GasUsed": "0x1158"
    },
    {
      "status": "0x1",
      "cumulativeGasUsed": "0x47da8",
      "logs": [
        {
          "address": "0xe4c65569df195bdcbc81f519eb2c824796f4eabf",
          "topics": [
            "0xdf8644c0a4c21ed214ce69f395675b3a5fcd1039083daea5058898de40ea3149"
          ],
          "data": "0x0000000000000000000000008f34ba87ddfb178a0b1df423cbb077d5db418fad00000000000000000000000000000000000000000000000002c68af0bb1400000000000000000000000000000000000000000000000000000000000000aa37dc",
          "blockHash": "0xaa02e859486fa1fc362ba3d37911ef8fc408eb80132f9d21bf077cb4a96cf8e0",
          "blockNumber": "0x3d3eca",
          "transactionHash": "0x779ffde921511522972577301083f2e2fbc711fa0b5f1aa43b29bf9ea6095478",
          "transactionIndex": "0x2",
          "logIndex": "0x1",
          "removed": false
        }
      ],
      "logsBloom": "0x00000000000000000000000000000000000000000000000000000000000000000000000000001000000000000000000000000000000000000000000000000000000000000000000000000000000000000000000000000000000000000000000000000000000000000000000000000000000000000000000100000000000000000000000080000000000000000000000000000000000000000000000000000000000810000000000000000000000000000000000000000000000000000000000000000000000000000000000040000000000000000000000000000000000000000000000000000000000000000000000000000000000000000000000000000000",
      "type": "0x2",
      "transactionHash": "0x779ffde921511522972577301083f2e2fbc711fa0b5f1aa43b29bf9ea6095478",
      "transactionIndex": "0x2",
      "blockHash": "0xaa02e859486fa1fc362ba3d37911ef8fc408eb80132f9d21bf077cb4a96cf8e0",
      "blockNumber": "0x3d3eca",
      "gasUsed": "0x24915",
      "effectiveGasPrice": "0xfd",
      "from": "0x00e3cc76da72cf673e4429e2d527388956af61ef",
      "to": "0xe4c65569df195bdcbc81f519eb2c824796f4eabf",
      "contractAddress": null,
      "l1Fee": "0x8eae35b9f420",
      "l1FeeScalar": "1",
      "l1GasPrice": "0x4ce5b4666",
      "l1GasUsed": "0x1db0"
    }
  ],
  "libraries": [],
  "pending": [],
  "returns": {},
  "timestamp": 1719852792,
  "chain": 5051,
  "commit": "9753a12"
}