{
  "transactions": [
    {
      "hash": "0x362d8c738c19a48c6933bb8a57a45cb117f0b1a83e6f843bcddf9b44763369aa",
      "transactionType": "CALL",
      "contractName": null,
      "contractAddress": "0x4dc64bcf2e5b50ef9c45f17b32acf559602cb07c",
      "function": "setChainToPeripheryContract(uint256,address)",
      "arguments": [
        "11155420",
        "0xbB4f7B5A49cf0f342A9617aCBD93672c620FDe51"
      ],
      "transaction": {
        "from": "0x00e3cc76da72cf673e4429e2d527388956af61ef",
        "to": "0x4dc64bcf2e5b50ef9c45f17b32acf559602cb07c",
        "gas": "0x1cc0e",
        "value": "0x0",
        "input": "0x5e0b30db0000000000000000000000000000000000000000000000000000000000aa37dc000000000000000000000000bb4f7b5a49cf0f342a9617acbd93672c620fde51",
        "nonce": "0x17a",
        "chainId": "0x13bb"
      },
      "additionalContracts": [],
      "isFixedGasLimit": false
    },
    {
      "hash": "0x284d2936b47ddd8666b659695f9ecd62ee4432a8ebb2adbfadf4183cece067de",
      "transactionType": "CALL",
      "contractName": null,
      "contractAddress": "0x4dc64bcf2e5b50ef9c45f17b32acf559602cb07c",
      "function": "processIntent(((address,bytes),address,bytes))",
      "arguments": [
        "((0x4Dc64BcF2e5b50eF9C45f17b32acf559602CB07c, 0x04717aca0000000000000000000000008f34ba87ddfb178a0b1df423cbb077d5db418fad0000000000000000000000000000000000000000000000001bc16d674ec800000000000000000000000000000000000000000000000000000000000000aa37dc), 0x8F34BA87ddFb178A0b1df423CbB077D5db418fAD, 0x7f1fc08d24ee571d91c857180a0fb3fb15984b7d37a43c96abc2254fa3a5441f469cdce425842072a22a48b09cebc051f7df1ef9c2e887ee6a744fa0e450bfe31b)"
      ],
      "transaction": {
        "from": "0x00e3cc76da72cf673e4429e2d527388956af61ef",
        "to": "0x4dc64bcf2e5b50ef9c45f17b32acf559602cb07c",
        "gas": "0x2f5fd",
        "value": "0x0",
        "input": "0x57d79fcd000000000000000000000000000000000000000000000000000000000000002000000000000000000000000000000000000000000000000000000000000000600000000000000000000000008f34ba87ddfb178a0b1df423cbb077d5db418fad00000000000000000000000000000000000000000000000000000000000001400000000000000000000000004dc64bcf2e5b50ef9c45f17b32acf559602cb07c0000000000000000000000000000000000000000000000000000000000000040000000000000000000000000000000000000000000000000000000000000006404717aca0000000000000000000000008f34ba87ddfb178a0b1df423cbb077d5db418fad0000000000000000000000000000000000000000000000001bc16d674ec800000000000000000000000000000000000000000000000000000000000000aa37dc0000000000000000000000000000000000000000000000000000000000000000000000000000000000000000000000000000000000000000000000417f1fc08d24ee571d91c857180a0fb3fb15984b7d37a43c96abc2254fa3a5441f469cdce425842072a22a48b09cebc051f7df1ef9c2e887ee6a744fa0e450bfe31b00000000000000000000000000000000000000000000000000000000000000",
        "nonce": "0x17b",
        "chainId": "0x13bb"
      },
      "additionalContracts": [],
      "isFixedGasLimit": false
    }
  ],
  "receipts": [
    {
      "status": "0x1",
      "cumulativeGasUsed": "0x1f1c7",
      "logs": [
        {
          "address": "0x4dc64bcf2e5b50ef9c45f17b32acf559602cb07c",
          "topics": [
            "0x767785ec8a0326548b9a53e8e065f90615a014cda2b32d3d39845f234a37f8e4"
          ],
          "data": "0x000000000000000000000000bb4f7b5a49cf0f342a9617acbd93672c620fde510000000000000000000000000000000000000000000000000000000000aa37dc",
          "blockHash": "0x30c94025e812e1afcabc6fa0342cc13eece833b0cb25f852f02c9ad261fc970c",
          "blockNumber": "0x3d8c89",
          "transactionHash": "0x362d8c738c19a48c6933bb8a57a45cb117f0b1a83e6f843bcddf9b44763369aa",
          "transactionIndex": "0x1",
          "logIndex": "0x0",
          "removed": false
        }
      ],
      "logsBloom": "0x00000000000000000000000080000000000000000000000000000000000000000000000000000000000000000000000000000000020000000000000000000000000000000000000000000000000000000000000000000000000000000000000000000000000000000000000040000000000000000000000000000000000000002000000000000000000000000000000000000000000000000000000000000000000000000000000000000000000000000000000010000000000000000000000000000000000000000000000000000000000000000000000000000000000000000000000000000200000000000000000000000000000000000000000000000000",
      "type": "0x2",
      "transactionHash": "0x362d8c738c19a48c6933bb8a57a45cb117f0b1a83e6f843bcddf9b44763369aa",
      "transactionIndex": "0x1",
      "blockHash": "0x30c94025e812e1afcabc6fa0342cc13eece833b0cb25f852f02c9ad261fc970c",
      "blockNumber": "0x3d8c89",
      "gasUsed": "0x13a92",
      "effectiveGasPrice": "0xfd",
      "from": "0x00e3cc76da72cf673e4429e2d527388956af61ef",
      "to": "0x4dc64bcf2e5b50ef9c45f17b32acf559602cb07c",
      "contractAddress": null,
      "l1Fee": "0x3bc8bba26da8",
      "l1FeeScalar": "1",
      "l1GasPrice": "0x3726f5f9f",
      "l1GasUsed": "0x1158"
    },
    {
      "status": "0x1",
      "cumulativeGasUsed": "0x3f810",
      "logs": [
        {
          "address": "0x4dc64bcf2e5b50ef9c45f17b32acf559602cb07c",
          "topics": [
            "0xdf8644c0a4c21ed214ce69f395675b3a5fcd1039083daea5058898de40ea3149"
          ],
          "data": "0x0000000000000000000000008f34ba87ddfb178a0b1df423cbb077d5db418fad0000000000000000000000000000000000000000000000001bc16d674ec800000000000000000000000000000000000000000000000000000000000000aa37dc",
          "blockHash": "0x30c94025e812e1afcabc6fa0342cc13eece833b0cb25f852f02c9ad261fc970c",
          "blockNumber": "0x3d8c89",
          "transactionHash": "0x284d2936b47ddd8666b659695f9ecd62ee4432a8ebb2adbfadf4183cece067de",
          "transactionIndex": "0x2",
          "logIndex": "0x1",
          "removed": false
        }
      ],
      "logsBloom": "0x00000000000000000000000000000000000000000000000000000000000000000000000000001000000000000000000000000000020000000000000000000000000000000000000000000000000000000000000000000000000000000000000000000000000000000000000040000000000000000000000100000000000000002000000080000000000000000000000000000000000000000000000000000000000000000000000000000000000000000000000000000000000000000000000000000000000000000000000000000000000000000000000000000000000000000000000000000000000000000000000000000000000000000000000000000000",
      "type": "0x2",
      "transactionHash": "0x284d2936b47ddd8666b659695f9ecd62ee4432a8ebb2adbfadf4183cece067de",
      "transactionIndex": "0x2",
      "blockHash": "0x30c94025e812e1afcabc6fa0342cc13eece833b0cb25f852f02c9ad261fc970c",
      "blockNumber": "0x3d8c89",
      "gasUsed": "0x20649",
      "effectiveGasPrice": "0xfd",
      "from": "0x00e3cc76da72cf673e4429e2d527388956af61ef",
      "to": "0x4dc64bcf2e5b50ef9c45f17b32acf559602cb07c",
      "contractAddress": null,
      "l1Fee": "0x662bed2e44dc",
      "l1FeeScalar": "1",
      "l1GasPrice": "0x3726f5f9f",
      "l1GasUsed": "0x1da4"
    }
  ],
  "libraries": [],
  "pending": [],
  "returns": {},
  "timestamp": 1719892597,
  "chain": 5051,
  "commit": "9753a12"
}