{
  "transactions": [
    {
      "hash": "0x98c4a6facb40c6606792c6b3b142652c0025d6476dd1db49a4bd18eebb97674b",
      "transactionType": "CALL",
      "contractName": null,
      "contractAddress": "0x59ec62ced14a0ebe75e7b48b65da4a0db3f777c5",
      "function": "setChainToPeripheryContract(uint256,address)",
      "arguments": [
        "11155420",
        "0xbB4f7B5A49cf0f342A9617aCBD93672c620FDe51"
      ],
      "transaction": {
        "from": "0x00e3cc76da72cf673e4429e2d527388956af61ef",
        "to": "0x59ec62ced14a0ebe75e7b48b65da4a0db3f777c5",
        "gas": "0x1cc0e",
        "value": "0x0",
        "input": "0x5e0b30db0000000000000000000000000000000000000000000000000000000000aa37dc000000000000000000000000bb4f7b5a49cf0f342a9617acbd93672c620fde51",
        "nonce": "0x2b9",
        "chainId": "0x13bb"
      },
      "additionalContracts": [],
      "isFixedGasLimit": false
    },
    {
      "hash": "0x93443124059df674733109ae263c386471446e8c3c85c9313d61bc02c98487f9",
      "transactionType": "CALL",
      "contractName": null,
      "contractAddress": "0x59ec62ced14a0ebe75e7b48b65da4a0db3f777c5",
      "function": "processIntent(((address,bytes),address,bytes))",
      "arguments": [
        "((0x59EC62CED14a0ebE75E7b48b65dA4a0db3F777C5, 0x04717aca0000000000000000000000008f34ba87ddfb178a0b1df423cbb077d5db418fad0000000000000000000000000000000000000000000000001bc16d674ec800000000000000000000000000000000000000000000000000000000000000aa37dc), 0x8F34BA87ddFb178A0b1df423CbB077D5db418fAD, 0x5a8c7765e50b5a7f04acfd796791a73356206886afd70ecf66385f25783cecb6682a7574e6e0ae134bb947b038161139dfd3a416ea56622f8fe027c7118358161c)"
      ],
      "transaction": {
        "from": "0x00e3cc76da72cf673e4429e2d527388956af61ef",
        "to": "0x59ec62ced14a0ebe75e7b48b65da4a0db3f777c5",
        "gas": "0x2f5fd",
        "value": "0x0",
        "input": "0x57d79fcd000000000000000000000000000000000000000000000000000000000000002000000000000000000000000000000000000000000000000000000000000000600000000000000000000000008f34ba87ddfb178a0b1df423cbb077d5db418fad000000000000000000000000000000000000000000000000000000000000014000000000000000000000000059ec62ced14a0ebe75e7b48b65da4a0db3f777c50000000000000000000000000000000000000000000000000000000000000040000000000000000000000000000000000000000000000000000000000000006404717aca0000000000000000000000008f34ba87ddfb178a0b1df423cbb077d5db418fad0000000000000000000000000000000000000000000000001bc16d674ec800000000000000000000000000000000000000000000000000000000000000aa37dc0000000000000000000000000000000000000000000000000000000000000000000000000000000000000000000000000000000000000000000000415a8c7765e50b5a7f04acfd796791a73356206886afd70ecf66385f25783cecb6682a7574e6e0ae134bb947b038161139dfd3a416ea56622f8fe027c7118358161c00000000000000000000000000000000000000000000000000000000000000",
        "nonce": "0x2ba",
        "chainId": "0x13bb"
      },
      "additionalContracts": [],
      "isFixedGasLimit": false
    }
  ],
  "receipts": [
    {
      "status": "0x1",
      "cumulativeGasUsed": "0x1f1c7",
      "logs": [
        {
          "address": "0x59ec62ced14a0ebe75e7b48b65da4a0db3f777c5",
          "topics": [
            "0x767785ec8a0326548b9a53e8e065f90615a014cda2b32d3d39845f234a37f8e4"
          ],
          "data": "0x000000000000000000000000bb4f7b5a49cf0f342a9617acbd93672c620fde510000000000000000000000000000000000000000000000000000000000aa37dc",
          "blockHash": "0x7fe1fdadab52a54a39147a2413215390cf2c3da65bd05e6de8c6eb13f35d2d48",
          "blockNumber": "0x3d909e",
          "transactionHash": "0x98c4a6facb40c6606792c6b3b142652c0025d6476dd1db49a4bd18eebb97674b",
          "transactionIndex": "0x1",
          "logIndex": "0x0",
          "removed": false
        }
      ],
      "logsBloom": "0x00000000000000000000000080000000000000000200000000000000000000000000000000000000000000000000000000000000000000000000000000000000000000000100000000000000000000000000000000000000000000000000000000000000000000000000000000000000000000000000000000000000000000000000000000000000000000000000000000000000000000000000000000000000000000000000000000000000000000000400000010000000000000000000000000000000000000000000000000000000000000000000000000000000000000000000000000000200000000000000000000000000000000000000000000000000",
      "type": "0x2",
      "transactionHash": "0x98c4a6facb40c6606792c6b3b142652c0025d6476dd1db49a4bd18eebb97674b",
      "transactionIndex": "0x1",
      "blockHash": "0x7fe1fdadab52a54a39147a2413215390cf2c3da65bd05e6de8c6eb13f35d2d48",
      "blockNumber": "0x3d909e",
      "gasUsed": "0x13a92",
      "effectiveGasPrice": "0xfd",
      "from": "0x00e3cc76da72cf673e4429e2d527388956af61ef",
      "to": "0x59ec62ced14a0ebe75e7b48b65da4a0db3f777c5",
      "contractAddress": null,
      "l1Fee": "0xb3f1497f1f90",
      "l1FeeScalar": "1",
      "l1GasPrice": "0xa60043cd6",
      "l1GasUsed": "0x1158"
    },
    {
      "status": "0x1",
      "cumulativeGasUsed": "0x3f810",
      "logs": [
        {
          "address": "0x59ec62ced14a0ebe75e7b48b65da4a0db3f777c5",
          "topics": [
            "0xdf8644c0a4c21ed214ce69f395675b3a5fcd1039083daea5058898de40ea3149"
          ],
          "data": "0x0000000000000000000000008f34ba87ddfb178a0b1df423cbb077d5db418fad0000000000000000000000000000000000000000000000001bc16d674ec800000000000000000000000000000000000000000000000000000000000000aa37dc",
          "blockHash": "0x7fe1fdadab52a54a39147a2413215390cf2c3da65bd05e6de8c6eb13f35d2d48",
          "blockNumber": "0x3d909e",
          "transactionHash": "0x93443124059df674733109ae263c386471446e8c3c85c9313d61bc02c98487f9",
          "transactionIndex": "0x2",
          "logIndex": "0x1",
          "removed": false
        }
      ],
      "logsBloom": "0x00000000000000000000000000000000000000000200000000000000000000000000000000001000000000000000000000000000000000000000000000000000000000000100000000000000000000000000000000000000000000000000000000000000000000000000000000000000000000000000000100000000000000000000000080000000000000000000000000000000000000000000000000000000000000000000000000000000000000000400000000000000000000000000000000000000000000000000000000000000000000000000000000000000000000000000000000000000000000000000000000000000000000000000000000000000",
      "type": "0x2",
      "transactionHash": "0x93443124059df674733109ae263c386471446e8c3c85c9313d61bc02c98487f9",
      "transactionIndex": "0x2",
      "blockHash": "0x7fe1fdadab52a54a39147a2413215390cf2c3da65bd05e6de8c6eb13f35d2d48",
      "blockNumber": "0x3d909e",
      "gasUsed": "0x20649",
      "effectiveGasPrice": "0xfd",
      "from": "0x00e3cc76da72cf673e4429e2d527388956af61ef",
      "to": "0x59ec62ced14a0ebe75e7b48b65da4a0db3f777c5",
      "contractAddress": null,
      "l1Fee": "0x134027dce1120",
      "l1FeeScalar": "1",
      "l1GasPrice": "0xa60043cd6",
      "l1GasUsed": "0x1db0"
    }
  ],
  "libraries": [],
  "pending": [],
  "returns": {},
  "timestamp": 1719894688,
  "chain": 5051,
  "commit": "9753a12"
}