{
  "transactions": [
    {
      "hash": "0x0bdf410e2b8561fe391663550a2cc65cf91f3c4c2216ad8d48db5163bb5310df",
      "transactionType": "CALL",
      "contractName": null,
      "contractAddress": "0x59ec62ced14a0ebe75e7b48b65da4a0db3f777c5",
      "function": "setChainToPeripheryContract(uint256,address)",
      "arguments": [
        "421614",
        "0x44bD74B62739de2412b617FD9B2Ee85C998B1494"
      ],
      "transaction": {
        "from": "0x00e3cc76da72cf673e4429e2d527388956af61ef",
        "to": "0x59ec62ced14a0ebe75e7b48b65da4a0db3f777c5",
        "gas": "0x1cc0e",
        "value": "0x0",
        "input": "0x5e0b30db0000000000000000000000000000000000000000000000000000000000066eee00000000000000000000000044bd74b62739de2412b617fd9b2ee85c998b1494",
        "nonce": "0x2bb",
        "chainId": "0x13bb"
      },
      "additionalContracts": [],
      "isFixedGasLimit": false
    },
    {
      "hash": "0x4fb1da69e18f58168ac6327297ce5511748381b9ad90b773c37df517b29560d1",
      "transactionType": "CALL",
      "contractName": null,
      "contractAddress": "0x59ec62ced14a0ebe75e7b48b65da4a0db3f777c5",
      "function": "processIntent(((address,bytes),address,bytes))",
      "arguments": [
        "((0x59EC62CED14a0ebE75E7b48b65dA4a0db3F777C5, 0x04717aca0000000000000000000000005833fd26fb0d30386e6e8ea80cf82c7b8cc823700000000000000000000000000000000000000000000000000de0b6b3a76400000000000000000000000000000000000000000000000000000000000000014a34), 0x5833fd26FB0d30386e6e8eA80cf82C7B8cC82370, 0x89e8567588e5b07ca117aa046312f853796473f031485a3d5b95efc750397909164e2d9aa70cb7a452f0845317c5ddc968953d8af17c3f92fb96c41b438acd101c)"
      ],
      "transaction": {
        "from": "0x00e3cc76da72cf673e4429e2d527388956af61ef",
        "to": "0x59ec62ced14a0ebe75e7b48b65da4a0db3f777c5",
        "gas": "0x2f5fd",
        "value": "0x0",
        "input": "0x57d79fcd000000000000000000000000000000000000000000000000000000000000002000000000000000000000000000000000000000000000000000000000000000600000000000000000000000005833fd26fb0d30386e6e8ea80cf82c7b8cc82370000000000000000000000000000000000000000000000000000000000000014000000000000000000000000059ec62ced14a0ebe75e7b48b65da4a0db3f777c50000000000000000000000000000000000000000000000000000000000000040000000000000000000000000000000000000000000000000000000000000006404717aca0000000000000000000000005833fd26fb0d30386e6e8ea80cf82c7b8cc823700000000000000000000000000000000000000000000000000de0b6b3a76400000000000000000000000000000000000000000000000000000000000000014a3400000000000000000000000000000000000000000000000000000000000000000000000000000000000000000000000000000000000000000000004189e8567588e5b07ca117aa046312f853796473f031485a3d5b95efc750397909164e2d9aa70cb7a452f0845317c5ddc968953d8af17c3f92fb96c41b438acd101c00000000000000000000000000000000000000000000000000000000000000",
        "nonce": "0x2bc",
        "chainId": "0x13bb"
      },
      "additionalContracts": [],
      "isFixedGasLimit": false
    }
  ],
  "receipts": [
    {
      "status": "0x1",
      "cumulativeGasUsed": "0x1f1c7",
      "logs": [
        {
          "address": "0x59ec62ced14a0ebe75e7b48b65da4a0db3f777c5",
          "topics": [
            "0x767785ec8a0326548b9a53e8e065f90615a014cda2b32d3d39845f234a37f8e4"
          ],
          "data": "0x00000000000000000000000044bd74b62739de2412b617fd9b2ee85c998b14940000000000000000000000000000000000000000000000000000000000066eee",
          "blockHash": "0x5e6295c11468cfb10fee0cff8bf6c1db79da3f6fb84b76be02a5db9aa4525c67",
          "blockNumber": "0x3d90b0",
          "transactionHash": "0x0bdf410e2b8561fe391663550a2cc65cf91f3c4c2216ad8d48db5163bb5310df",
          "transactionIndex": "0x1",
          "logIndex": "0x0",
          "removed": false
        }
      ],
      "logsBloom": "0x00000000000000000000000080000000000000000200000000000000000000000000000000000000000000000000000000000000000000000000000000000000000000000100000000000000000000000000000000000000000000000000000000000000000000000000000000000000000000000000000000000000000000000000000000000000000000000000000000000000000000000000000000000000000000000000000000000000000000000400000010000000000000000000000000000000000000000000000000000000000000000000000000000000000000000000000000000200000000000000000000000000000000000000000000000000",
      "type": "0x2",
      "transactionHash": "0x0bdf410e2b8561fe391663550a2cc65cf91f3c4c2216ad8d48db5163bb5310df",
      "transactionIndex": "0x1",
      "blockHash": "0x5e6295c11468cfb10fee0cff8bf6c1db79da3f6fb84b76be02a5db9aa4525c67",
      "blockNumber": "0x3d90b0",
      "gasUsed": "0x13a92",
      "effectiveGasPrice": "0xfd",
      "from": "0x00e3cc76da72cf673e4429e2d527388956af61ef",
      "to": "0x59ec62ced14a0ebe75e7b48b65da4a0db3f777c5",
      "contractAddress": null,
      "l1Fee": "0xbabe69d95bd8",
      "l1FeeScalar": "1",
      "l1GasPrice": "0xac467e3f1",
      "l1GasUsed": "0x1158"
    },
    {
      "status": "0x1",
      "cumulativeGasUsed": "0x3f810",
      "logs": [
        {
          "address": "0x59ec62ced14a0ebe75e7b48b65da4a0db3f777c5",
          "topics": [
            "0xdf8644c0a4c21ed214ce69f395675b3a5fcd1039083daea5058898de40ea3149"
          ],
          "data": "0x0000000000000000000000005833fd26fb0d30386e6e8ea80cf82c7b8cc823700000000000000000000000000000000000000000000000000de0b6b3a76400000000000000000000000000000000000000000000000000000000000000014a34",
          "blockHash": "0x5e6295c11468cfb10fee0cff8bf6c1db79da3f6fb84b76be02a5db9aa4525c67",
          "blockNumber": "0x3d90b0",
          "transactionHash": "0x4fb1da69e18f58168ac6327297ce5511748381b9ad90b773c37df517b29560d1",
          "transactionIndex": "0x2",
          "logIndex": "0x1",
          "removed": false
        }
      ],
      "logsBloom": "0x00000000000000000000000000000000000000000200000000000000000000000000000000001000000000000000000000000000000000000000000000000000000000000100000000000000000000000000000000000000000000000000000000000000000000000000000000000000000000000000000100000000000000000000000080000000000000000000000000000000000000000000000000000000000000000000000000000000000000000400000000000000000000000000000000000000000000000000000000000000000000000000000000000000000000000000000000000000000000000000000000000000000000000000000000000000",
      "type": "0x2",
      "transactionHash": "0x4fb1da69e18f58168ac6327297ce5511748381b9ad90b773c37df517b29560d1",
      "transactionIndex": "0x2",
      "blockHash": "0x5e6295c11468cfb10fee0cff8bf6c1db79da3f6fb84b76be02a5db9aa4525c67",
      "blockNumber": "0x3d90b0",
      "gasUsed": "0x20649",
      "effectiveGasPrice": "0xfd",
      "from": "0x00e3cc76da72cf673e4429e2d527388956af61ef",
      "to": "0x59ec62ced14a0ebe75e7b48b65da4a0db3f777c5",
      "contractAddress": null,
      "l1Fee": "0x13fa6cc3f02b0",
      "l1FeeScalar": "1",
      "l1GasPrice": "0xac467e3f1",
      "l1GasUsed": "0x1db0"
    }
  ],
  "libraries": [],
  "pending": [],
  "returns": {},
  "timestamp": 1719894724,
  "chain": 5051,
  "commit": "9753a12"
}