{
  "transactions": [
    {
      "hash": "0x3b1a73bcdf3721c31cb51d68e1baaea43f1ca15d3e94b4017399c78c41579c98",
      "transactionType": "CALL",
      "contractName": null,
      "contractAddress": "0x4dc64bcf2e5b50ef9c45f17b32acf559602cb07c",
      "function": "setChainToPeripheryContract(uint256,address)",
      "arguments": [
        "421614",
        "0x44bD74B62739de2412b617FD9B2Ee85C998B1494"
      ],
      "transaction": {
        "from": "0x00e3cc76da72cf673e4429e2d527388956af61ef",
        "to": "0x4dc64bcf2e5b50ef9c45f17b32acf559602cb07c",
        "gas": "0x1cc0e",
        "value": "0x0",
        "input": "0x5e0b30db0000000000000000000000000000000000000000000000000000000000066eee00000000000000000000000044bd74b62739de2412b617fd9b2ee85c998b1494",
        "nonce": "0x17c",
        "chainId": "0x13bb"
      },
      "additionalContracts": [],
      "isFixedGasLimit": false
    },
    {
      "hash": "0x1db873f256fde9671bad323e8c3a8600c76bfb7cf11032e11ba92c71aa85693b",
      "transactionType": "CALL",
      "contractName": null,
      "contractAddress": "0x4dc64bcf2e5b50ef9c45f17b32acf559602cb07c",
      "function": "processIntent(((address,bytes),address,bytes))",
      "arguments": [
        "((0x4Dc64BcF2e5b50eF9C45f17b32acf559602CB07c, 0x04717aca0000000000000000000000005833fd26fb0d30386e6e8ea80cf82c7b8cc823700000000000000000000000000000000000000000000000000de0b6b3a76400000000000000000000000000000000000000000000000000000000000000014a34), 0x5833fd26FB0d30386e6e8eA80cf82C7B8cC82370, 0x9b7e064d5755da13a12562682b068390a51f42a5d142c6623bc5ceeaa2d264671acec977a5c84aae50453feea62fe8c11bd21765ea4d25f2345c041dabc356fd1c)"
      ],
      "transaction": {
        "from": "0x00e3cc76da72cf673e4429e2d527388956af61ef",
        "to": "0x4dc64bcf2e5b50ef9c45f17b32acf559602cb07c",
        "gas": "0x2f5fd",
        "value": "0x0",
        "input": "0x57d79fcd000000000000000000000000000000000000000000000000000000000000002000000000000000000000000000000000000000000000000000000000000000600000000000000000000000005833fd26fb0d30386e6e8ea80cf82c7b8cc8237000000000000000000000000000000000000000000000000000000000000001400000000000000000000000004dc64bcf2e5b50ef9c45f17b32acf559602cb07c0000000000000000000000000000000000000000000000000000000000000040000000000000000000000000000000000000000000000000000000000000006404717aca0000000000000000000000005833fd26fb0d30386e6e8ea80cf82c7b8cc823700000000000000000000000000000000000000000000000000de0b6b3a76400000000000000000000000000000000000000000000000000000000000000014a340000000000000000000000000000000000000000000000000000000000000000000000000000000000000000000000000000000000000000000000419b7e064d5755da13a12562682b068390a51f42a5d142c6623bc5ceeaa2d264671acec977a5c84aae50453feea62fe8c11bd21765ea4d25f2345c041dabc356fd1c00000000000000000000000000000000000000000000000000000000000000",
        "nonce": "0x17d",
        "chainId": "0x13bb"
      },
      "additionalContracts": [],
      "isFixedGasLimit": false
    }
  ],
  "receipts": [
    {
      "status": "0x1",
      "cumulativeGasUsed": "0x1f1c7",
      "logs": [
        {
          "address": "0x4dc64bcf2e5b50ef9c45f17b32acf559602cb07c",
          "topics": [
            "0x767785ec8a0326548b9a53e8e065f90615a014cda2b32d3d39845f234a37f8e4"
          ],
          "data": "0x00000000000000000000000044bd74b62739de2412b617fd9b2ee85c998b14940000000000000000000000000000000000000000000000000000000000066eee",
          "blockHash": "0x72fa619f7824241c544e2574e07870bc93c5d97906d4cb496f192f7109cdb72d",
          "blockNumber": "0x3d8c98",
          "transactionHash": "0x3b1a73bcdf3721c31cb51d68e1baaea43f1ca15d3e94b4017399c78c41579c98",
          "transactionIndex": "0x1",
          "logIndex": "0x0",
          "removed": false
        }
      ],
      "logsBloom": "0x00000000000000000000000080000000000000000000000000000000000000000000000000000000000000000000000000000000020000000000000000000000000000000000000000000000000000000000000000000000000000000000000000000000000000000000000040000000000000000000000000000000000000002000000000000000000000000000000000000000000000000000000000000000000000000000000000000000000000000000000010000000000000000000000000000000000000000000000000000000000000000000000000000000000000000000000000000200000000000000000000000000000000000000000000000000",
      "type": "0x2",
      "transactionHash": "0x3b1a73bcdf3721c31cb51d68e1baaea43f1ca15d3e94b4017399c78c41579c98",
      "transactionIndex": "0x1",
      "blockHash": "0x72fa619f7824241c544e2574e07870bc93c5d97906d4cb496f192f7109cdb72d",
      "blockNumber": "0x3d8c98",
      "gasUsed": "0x13a92",
      "effectiveGasPrice": "0xfd",
      "from": "0x00e3cc76da72cf673e4429e2d527388956af61ef",
      "to": "0x4dc64bcf2e5b50ef9c45f17b32acf559602cb07c",
      "contractAddress": null,
      "l1Fee": "0x3b3cad73bd40",
      "l1FeeScalar": "1",
      "l1GasPrice": "0x36a5c1af8",
      "l1GasUsed": "0x1158"
    },
    {
      "status": "0x1",
      "cumulativeGasUsed": "0x3f810",
      "logs": [
        {
          "address": "0x4dc64bcf2e5b50ef9c45f17b32acf559602cb07c",
          "topics": [
            "0xdf8644c0a4c21ed214ce69f395675b3a5fcd1039083daea5058898de40ea3149"
          ],
          "data": "0x0000000000000000000000005833fd26fb0d30386e6e8ea80cf82c7b8cc823700000000000000000000000000000000000000000000000000de0b6b3a76400000000000000000000000000000000000000000000000000000000000000014a34",
          "blockHash": "0x72fa619f7824241c544e2574e07870bc93c5d97906d4cb496f192f7109cdb72d",
          "blockNumber": "0x3d8c98",
          "transactionHash": "0x1db873f256fde9671bad323e8c3a8600c76bfb7cf11032e11ba92c71aa85693b",
          "transactionIndex": "0x2",
          "logIndex": "0x1",
          "removed": false
        }
      ],
      "logsBloom": "0x00000000000000000000000000000000000000000000000000000000000000000000000000001000000000000000000000000000020000000000000000000000000000000000000000000000000000000000000000000000000000000000000000000000000000000000000040000000000000000000000100000000000000002000000080000000000000000000000000000000000000000000000000000000000000000000000000000000000000000000000000000000000000000000000000000000000000000000000000000000000000000000000000000000000000000000000000000000000000000000000000000000000000000000000000000000",
      "type": "0x2",
      "transactionHash": "0x1db873f256fde9671bad323e8c3a8600c76bfb7cf11032e11ba92c71aa85693b",
      "transactionIndex": "0x2",
      "blockHash": "0x72fa619f7824241c544e2574e07870bc93c5d97906d4cb496f192f7109cdb72d",
      "blockNumber": "0x3d8c98",
      "gasUsed": "0x20649",
      "effectiveGasPrice": "0xfd",
      "from": "0x00e3cc76da72cf673e4429e2d527388956af61ef",
      "to": "0x4dc64bcf2e5b50ef9c45f17b32acf559602cb07c",
      "contractAddress": null,
      "l1Fee": "0x6505ec4daf60",
      "l1FeeScalar": "1",
      "l1GasPrice": "0x36a5c1af8",
      "l1GasUsed": "0x1d94"
    }
  ],
  "libraries": [],
  "pending": [],
  "returns": {},
  "timestamp": 1719892627,
  "chain": 5051,
  "commit": "9753a12"
}