{
  "transactions": [
    {
      "hash": "0x2e8a11d6ee8f21a82a267c0fb6c64ca5d3deca1f62a5afa7bc224a416f392f28",
      "transactionType": "CALL",
      "contractName": null,
      "contractAddress": "0xe4c65569df195bdcbc81f519eb2c824796f4eabf",
      "function": "setChainToPeripheryContract(uint256,address)",
      "arguments": [
        "421614",
        "0x44bD74B62739de2412b617FD9B2Ee85C998B1494"
      ],
      "transaction": {
        "from": "0x00e3cc76da72cf673e4429e2d527388956af61ef",
        "to": "0xe4c65569df195bdcbc81f519eb2c824796f4eabf",
        "gas": "0x1cc0e",
        "value": "0x0",
        "input": "0x5e0b30db0000000000000000000000000000000000000000000000000000000000066eee00000000000000000000000044bd74b62739de2412b617fd9b2ee85c998b1494",
        "nonce": "0x16b",
        "chainId": "0x13bb"
      },
      "additionalContracts": [],
      "isFixedGasLimit": false
    },
    {
      "hash": "0x84dbc8ca22d1e48d2d86568ddc1b642ed6e051e93bea7c1f163bcfc99318f875",
      "transactionType": "CALL",
      "contractName": null,
      "contractAddress": "0xe4c65569df195bdcbc81f519eb2c824796f4eabf",
      "function": "processIntent(((address,bytes),address,bytes))",
      "arguments": [
        "((0xE4c65569df195BDcBC81f519eb2c824796F4EaBf, 0x04717aca0000000000000000000000005833fd26fb0d30386e6e8ea80cf82c7b8cc82370000000000000000000000000000000000000000000000000016345785d8a00000000000000000000000000000000000000000000000000000000000000014a34), 0x5833fd26FB0d30386e6e8eA80cf82C7B8cC82370, 0xc447d5af793eb25a8f35fb5191ed594a3e2fc0b359e38e6b0a0ebf833c003a7828215817e05d80dfaca7ce4cc55e25511b5549204f12e8a4f175d45834e139ae1b)"
      ],
      "transaction": {
        "from": "0x00e3cc76da72cf673e4429e2d527388956af61ef",
        "to": "0xe4c65569df195bdcbc81f519eb2c824796f4eabf",
        "gas": "0x3579d",
        "value": "0x0",
        "input": "0x57d79fcd000000000000000000000000000000000000000000000000000000000000002000000000000000000000000000000000000000000000000000000000000000600000000000000000000000005833fd26fb0d30386e6e8ea80cf82c7b8cc823700000000000000000000000000000000000000000000000000000000000000140000000000000000000000000e4c65569df195bdcbc81f519eb2c824796f4eabf0000000000000000000000000000000000000000000000000000000000000040000000000000000000000000000000000000000000000000000000000000006404717aca0000000000000000000000005833fd26fb0d30386e6e8ea80cf82c7b8cc82370000000000000000000000000000000000000000000000000016345785d8a00000000000000000000000000000000000000000000000000000000000000014a34000000000000000000000000000000000000000000000000000000000000000000000000000000000000000000000000000000000000000000000041c447d5af793eb25a8f35fb5191ed594a3e2fc0b359e38e6b0a0ebf833c003a7828215817e05d80dfaca7ce4cc55e25511b5549204f12e8a4f175d45834e139ae1b00000000000000000000000000000000000000000000000000000000000000",
        "nonce": "0x16c",
        "chainId": "0x13bb"
      },
      "additionalContracts": [],
      "isFixedGasLimit": false
    }
  ],
  "receipts": [
    {
      "status": "0x1",
      "cumulativeGasUsed": "0x1f1c7",
      "logs": [
        {
          "address": "0xe4c65569df195bdcbc81f519eb2c824796f4eabf",
          "topics": [
            "0x767785ec8a0326548b9a53e8e065f90615a014cda2b32d3d39845f234a37f8e4"
          ],
          "data": "0x00000000000000000000000044bd74b62739de2412b617fd9b2ee85c998b14940000000000000000000000000000000000000000000000000000000000066eee",
          "blockHash": "0x8d24e4df9e3265db9cef5e5f238a0d5d4b58330cb788515ce179c873cab50571",
          "blockNumber": "0x3d3f67",
          "transactionHash": "0x2e8a11d6ee8f21a82a267c0fb6c64ca5d3deca1f62a5afa7bc224a416f392f28",
          "transactionIndex": "0x1",
          "logIndex": "0x0",
          "removed": false
        }
      ],
      "logsBloom": "0x00000000000000000000000080000000000000000000000000000000000000000000000000000000000000000000000000000000000000000000000000000000000000000000000000000000000000000000000000000000000000000000000000000000000000000000000000000000000000000000000000000000000000000000000000000000000000000000000000000000000000000000000000000000000810000000000000000000000000000000000010000000000000000000000000000000000000000000000040000000000000000000000000000000000000000000000000000200000000000000000000000000000000000000000000000000",
      "type": "0x2",
      "transactionHash": "0x2e8a11d6ee8f21a82a267c0fb6c64ca5d3deca1f62a5afa7bc224a416f392f28",
      "transactionIndex": "0x1",
      "blockHash": "0x8d24e4df9e3265db9cef5e5f238a0d5d4b58330cb788515ce179c873cab50571",
      "blockNumber": "0x3d3f67",
      "gasUsed": "0x13a92",
      "effectiveGasPrice": "0xfd",
      "from": "0x00e3cc76da72cf673e4429e2d527388956af61ef",
      "to": "0xe4c65569df195bdcbc81f519eb2c824796f4eabf",
      "contractAddress": null,
      "l1Fee": "0x4d9d5de6bc50",
      "l1FeeScalar": "1",
      "l1GasPrice": "0x4799f039e",
      "l1GasUsed": "0x1158"
    },
    {
      "status": "0x1",
      "cumulativeGasUsed": "0x43ad0",
      "logs": [
        {
          "address": "0xe4c65569df195bdcbc81f519eb2c824796f4eabf",
          "topics": [
            "0xdf8644c0a4c21ed214ce69f395675b3a5fcd1039083daea5058898de40ea3149"
          ],
          "data": "0x0000000000000000000000005833fd26fb0d30386e6e8ea80cf82c7b8cc82370000000000000000000000000000000000000000000000000016345785d8a00000000000000000000000000000000000000000000000000000000000000014a34",
          "blockHash": "0x8d24e4df9e3265db9cef5e5f238a0d5d4b58330cb788515ce179c873cab50571",
          "blockNumber": "0x3d3f67",
          "transactionHash": "0x84dbc8ca22d1e48d2d86568ddc1b642ed6e051e93bea7c1f163bcfc99318f875",
          "transactionIndex": "0x2",
          "logIndex": "0x1",
          "removed": false
        }
      ],
      "logsBloom": "0x00000000000000000000000000000000000000000000000000000000000000000000000000001000000000000000000000000000000000000000000000000000000000000000000000000000000000000000000000000000000000000000000000000000000000000000000000000000000000000000000100000000000000000000000080000000000000000000000000000000000000000000000000000000000810000000000000000000000000000000000000000000000000000000000000000000000000000000000040000000000000000000000000000000000000000000000000000000000000000000000000000000000000000000000000000000",
      "type": "0x2",
      "transactionHash": "0x84dbc8ca22d1e48d2d86568ddc1b642ed6e051e93bea7c1f163bcfc99318f875",
      "transactionIndex": "0x2",
      "blockHash": "0x8d24e4df9e3265db9cef5e5f238a0d5d4b58330cb788515ce179c873cab50571",
      "blockNumber": "0x3d3f67",
      "gasUsed": "0x24909",
      "effectiveGasPrice": "0xfd",
      "from": "0x00e3cc76da72cf673e4429e2d527388956af61ef",
      "to": "0xe4c65569df195bdcbc81f519eb2c824796f4eabf",
      "contractAddress": null,
      "l1Fee": "0x84a4ed473738",
      "l1FeeScalar": "1",
      "l1GasPrice": "0x4799f039e",
      "l1GasUsed": "0x1da4"
    }
  ],
  "libraries": [],
  "pending": [],
  "returns": {},
  "timestamp": 1719853105,
  "chain": 5051,
  "commit": "9753a12"
}