{
  "transactions": [
    {
      "hash": "0xf7f3a91b9285f63b3565a0fc7662f688fa8cd53591e3ac43290f51bd98bb7db3",
      "transactionType": "CALL",
      "contractName": null,
      "contractAddress": "0x6bd1a2c15ecb4901208dcc4133d10836f0cde927",
      "function": "mint(address,uint256)",
      "arguments": [
        "0xf4e5780b44147365743D8C6D978adcd15838BBd0",
        "10000000000000000000"
      ],
      "transaction": {
        "from": "0xf4e5780b44147365743d8c6d978adcd15838bbd0",
        "to": "0x6bd1a2c15ecb4901208dcc4133d10836f0cde927",
        "gas": "0x16f7d",
        "value": "0x0",
        "input": "0x40c10f19000000000000000000000000f4e5780b44147365743d8c6d978adcd15838bbd00000000000000000000000000000000000000000000000008ac7230489e80000",
        "nonce": "0x0",
        "chainId": "0x61"
      },
      "additionalContracts": [],
      "isFixedGasLimit": false
    },
    {
      "hash": "0x400f59e5abb4a8a72adf01ef63cac604a9987b46f3fe49039240f36b6eec9dcd",
      "transactionType": "CALL",
      "contractName": null,
      "contractAddress": "0x6bd1a2c15ecb4901208dcc4133d10836f0cde927",
      "function": "approve(address,uint256)",
      "arguments": [
        "0x474db0ce37c079b05f8D38F0046581206E38a604",
        "1000000000000000000000000"
      ],
      "transaction": {
        "from": "0xf4e5780b44147365743d8c6d978adcd15838bbd0",
        "to": "0x6bd1a2c15ecb4901208dcc4133d10836f0cde927",
        "gas": "0xf80d",
        "value": "0x0",
        "input": "0x095ea7b3000000000000000000000000474db0ce37c079b05f8d38f0046581206e38a60400000000000000000000000000000000000000000000d3c21bcecceda1000000",
        "nonce": "0x1",
        "chainId": "0x61"
      },
      "additionalContracts": [],
      "isFixedGasLimit": false
    }
  ],
  "receipts": [
    {
      "status": "0x1",
      "cumulativeGasUsed": "0x3e63d",
      "logs": [
        {
          "address": "0x6bd1a2c15ecb4901208dcc4133d10836f0cde927",
          "topics": [
            "0xddf252ad1be2c89b69c2b068fc378daa952ba7f163c4a11628f55a4df523b3ef",
            "0x0000000000000000000000000000000000000000000000000000000000000000",
            "0x000000000000000000000000f4e5780b44147365743d8c6d978adcd15838bbd0"
          ],
          "data": "0x0000000000000000000000000000000000000000000000008ac7230489e80000",
          "blockHash": "0x0d08ce97df8168d82167e9ce647dc17917306cfbc5ed43711fb099a60b5d1717",
          "blockNumber": "0x27c4682",
          "transactionHash": "0xf7f3a91b9285f63b3565a0fc7662f688fa8cd53591e3ac43290f51bd98bb7db3",
          "transactionIndex": "0x4",
          "logIndex": "0x3",
          "removed": false
        }
      ],
      "logsBloom": "0x00000000000000000000000000000100000000000000000000000000000000000000000000800000000000000000000000002000000000000000000000000000000000000000000000000008000000000000000000000000000000000000000000000000020000000000000000000800000000000000200000000010000000000000000000000000000000000000000000000000000000000000000000000000000000000000000000000000000000000000020000200000000000000000000000000002000000000000000000000000000000000000000000000000000020000000000000000000000000000000000000000000000000000000000000000000",
      "type": "0x0",
      "transactionHash": "0xf7f3a91b9285f63b3565a0fc7662f688fa8cd53591e3ac43290f51bd98bb7db3",
      "transactionIndex": "0x4",
      "blockHash": "0x0d08ce97df8168d82167e9ce647dc17917306cfbc5ed43711fb099a60b5d1717",
      "blockNumber": "0x27c4682",
      "gasUsed": "0x10a0f",
      "effectiveGasPrice": "0x3b9aca00",
      "from": "0xf4e5780b44147365743d8c6d978adcd15838bbd0",
      "to": "0x6bd1a2c15ecb4901208dcc4133d10836f0cde927",
      "contractAddress": null
    },
    {
      "status": "0x1",
      "cumulativeGasUsed": "0xb4039",
      "logs": [
        {
          "address": "0x6bd1a2c15ecb4901208dcc4133d10836f0cde927",
          "topics": [
            "0x8c5be1e5ebec7d5bd14f71427d1e84f3dd0314c0f7b2291e5b200ac8c7c3b925",
            "0x000000000000000000000000f4e5780b44147365743d8c6d978adcd15838bbd0",
            "0x000000000000000000000000474db0ce37c079b05f8d38f0046581206e38a604"
          ],
          "data": "0x00000000000000000000000000000000000000000000d3c21bcecceda1000000",
          "blockHash": "0xc824c5486e4dbbd7d6360e7f527270804a173b6ba9e1f30ed608309cf6ec4f54",
          "blockNumber": "0x27c468a",
          "transactionHash": "0x400f59e5abb4a8a72adf01ef63cac604a9987b46f3fe49039240f36b6eec9dcd",
          "transactionIndex": "0x6",
          "logIndex": "0x9",
          "removed": false
        }
      ],
      "logsBloom": "0x00000000000000000000000000000100000000000000000000000000000000000000000000800000000000000000000000002000000000000000000000200000000000000000000000000000000000000000000000000000000000000000000000000000000000000000000000000000000000000000200000000000000000000000000000000000000000000000000000000000000002000000000000000000020000000000000004000000000000000000020000200000000000000000000000000000000000000000000000400000000000000000000000000000000000000010000000000000000000000000000000000000000000000000000000000000",
      "type": "0x0",
      "transactionHash": "0x400f59e5abb4a8a72adf01ef63cac604a9987b46f3fe49039240f36b6eec9dcd",
      "transactionIndex": "0x6",
      "blockHash": "0xc824c5486e4dbbd7d6360e7f527270804a173b6ba9e1f30ed608309cf6ec4f54",
      "blockNumber": "0x27c468a",
      "gasUsed": "0xb396",
      "effectiveGasPrice": "0x3b9aca00",
      "from": "0xf4e5780b44147365743d8c6d978adcd15838bbd0",
      "to": "0x6bd1a2c15ecb4901208dcc4133d10836f0cde927",
      "contractAddress": null
    }
  ],
  "libraries": [],
  "pending": [],
  "returns": {},
  "timestamp": 1719815291,
  "chain": 97,
  "commit": "9753a12"
}