{
  "transactions": [
    {
      "hash": "0x989b798648bbc81ffce8a901bab8a5392edcf91224185b902c0425295bacb114",
      "transactionType": "CALL",
      "contractName": null,
      "contractAddress": "0x059cd45b8149c79ec40c6fc2d0e0ac240a1733dc",
      "function": "mint(address,uint256)",
      "arguments": [
        "0x8F34BA87ddFb178A0b1df423CbB077D5db418fAD",
        "10000000000000000000"
      ],
      "transaction": {
        "from": "0x8f34ba87ddfb178a0b1df423cbb077d5db418fad",
        "to": "0x059cd45b8149c79ec40c6fc2d0e0ac240a1733dc",
        "gas": "0x16f7d",
        "value": "0x0",
        "input": "0x40c10f190000000000000000000000008f34ba87ddfb178a0b1df423cbb077d5db418fad0000000000000000000000000000000000000000000000008ac7230489e80000",
        "nonce": "0x0",
        "chainId": "0xaa37dc"
      },
      "additionalContracts": [],
      "isFixedGasLimit": false
    },
    {
      "hash": "0x2924e1ba63585d9c6abd05cd88110285355103ddd7509805250790fcb216325d",
      "transactionType": "CALL",
      "contractName": null,
      "contractAddress": "0x059cd45b8149c79ec40c6fc2d0e0ac240a1733dc",
      "function": "approve(address,uint256)",
      "arguments": [
        "0xbB4f7B5A49cf0f342A9617aCBD93672c620FDe51",
        "1000000000000000000000000"
      ],
      "transaction": {
        "from": "0x8f34ba87ddfb178a0b1df423cbb077d5db418fad",
        "to": "0x059cd45b8149c79ec40c6fc2d0e0ac240a1733dc",
        "gas": "0xf80d",
        "value": "0x0",
        "input": "0x095ea7b3000000000000000000000000bb4f7b5a49cf0f342a9617acbd93672c620fde5100000000000000000000000000000000000000000000d3c21bcecceda1000000",
        "nonce": "0x1",
        "chainId": "0xaa37dc"
      },
      "additionalContracts": [],
      "isFixedGasLimit": false
    }
  ],
  "receipts": [
    {
      "status": "0x1",
      "cumulativeGasUsed": "0xdfbef",
      "logs": [
        {
          "address": "0x059cd45b8149c79ec40c6fc2d0e0ac240a1733dc",
          "topics": [
            "0xddf252ad1be2c89b69c2b068fc378daa952ba7f163c4a11628f55a4df523b3ef",
            "0x0000000000000000000000000000000000000000000000000000000000000000",
            "0x0000000000000000000000008f34ba87ddfb178a0b1df423cbb077d5db418fad"
          ],
          "data": "0x0000000000000000000000000000000000000000000000008ac7230489e80000",
          "blockHash": "0xb46bf280e2e7c0f50ab939a36b22e954d52d7fe404aa5835af11cf1f70e4bc35",
          "blockNumber": "0xd5b8f5",
          "transactionHash": "0x989b798648bbc81ffce8a901bab8a5392edcf91224185b902c0425295bacb114",
          "transactionIndex": "0x2",
          "logIndex": "0x13",
          "removed": false
        }
      ],
      "logsBloom": "0x00000000000000000000000000000000000000000000000000000000000000000000000000000000000000000000000000000000000000000000000000000000000000000000000000000008000000000000000000000000000000000000000000000000020000000000000000000800000000000000000000000010000000000000000000000000000000000000000000000000000000000000000000000008000000000000000000000000000000000000000008000000000000000000000000000022000000000000000000000000000000080000000000000000000020020000000000000000000000000000000000000000000000000000008000000000",
      "type": "0x2",
      "transactionHash": "0x989b798648bbc81ffce8a901bab8a5392edcf91224185b902c0425295bacb114",
      "transactionIndex": "0x2",
      "blockHash": "0xb46bf280e2e7c0f50ab939a36b22e954d52d7fe404aa5835af11cf1f70e4bc35",
      "blockNumber": "0xd5b8f5",
      "gasUsed": "0x10a0f",
      "effectiveGasPrice": "0x869ef55",
      "from": "0x8f34ba87ddfb178a0b1df423cbb077d5db418fad",
      "to": "0x059cd45b8149c79ec40c6fc2d0e0ac240a1733dc",
      "contractAddress": null,
      "l1BaseFeeScalar": "0x1db0",
      "l1BlobBaseFee": "0x601a44b2",
      "l1BlobBaseFeeScalar": "0xd2730",
      "l1Fee": "0x603c5e95a4",
      "l1GasPrice": "0x540c3762e",
      "l1GasUsed": "0x640"
    },
    {
      "status": "0x1",
      "cumulativeGasUsed": "0x15ef9",
      "logs": [
        {
          "address": "0x059cd45b8149c79ec40c6fc2d0e0ac240a1733dc",
          "topics": [
            "0x8c5be1e5ebec7d5bd14f71427d1e84f3dd0314c0f7b2291e5b200ac8c7c3b925",
            "0x0000000000000000000000008f34ba87ddfb178a0b1df423cbb077d5db418fad",
            "0x000000000000000000000000bb4f7b5a49cf0f342a9617acbd93672c620fde51"
          ],
          "data": "0x00000000000000000000000000000000000000000000d3c21bcecceda1000000",
          "blockHash": "0xa0a320015a0fa56d21175f6f001f55f2c56bf205aa8ab86ba031de06b26fcd6e",
          "blockNumber": "0xd5b8fa",
          "transactionHash": "0x2924e1ba63585d9c6abd05cd88110285355103ddd7509805250790fcb216325d",
          "transactionIndex": "0x1",
          "logIndex": "0x0",
          "removed": false
        }
      ],
      "logsBloom": "0x00000000000000000000000000000020000000000000000000000000000000000000000000000000000000000000000000000000000000000000000000200000000000000000000000000000000000000000000000000000000000000000000000000000000000000000000000000000000000000000000000000000000000000000000000000000000000000000000000000000000000000000000000000008020000000000000000000000000000000002000008000000000000000000000000000020000000000000000000000000000000080000000000000000000000020010000000000000000000000000000000000000000000000000008001000000",
      "type": "0x2",
      "transactionHash": "0x2924e1ba63585d9c6abd05cd88110285355103ddd7509805250790fcb216325d",
      "transactionIndex": "0x1",
      "blockHash": "0xa0a320015a0fa56d21175f6f001f55f2c56bf205aa8ab86ba031de06b26fcd6e",
      "blockNumber": "0xd5b8fa",
      "gasUsed": "0xb396",
      "effectiveGasPrice": "0x86abcfa",
      "from": "0x8f34ba87ddfb178a0b1df423cbb077d5db418fad",
      "to": "0x059cd45b8149c79ec40c6fc2d0e0ac240a1733dc",
      "contractAddress": null,
      "l1BaseFeeScalar": "0x1db0",
      "l1BlobBaseFee": "0x58d858bc",
      "l1BlobBaseFeeScalar": "0xd2730",
      "l1Fee": "0x5aef0dbf84",
      "l1GasPrice": "0x50496db92",
      "l1GasUsed": "0x640"
    }
  ],
  "libraries": [],
  "pending": [],
  "returns": {},
  "timestamp": 1719815590,
  "chain": 11155420,
  "commit": "9753a12"
}