{
  "transactions": [
    {
      "hash": "0xceca67abdb433dc2e3d509aa0e9764ca4fbe13189c519e0b5db879dcd0db3db4",
      "transactionType": "CALL",
      "contractName": null,
      "contractAddress": "0x0ade8fea92340ca07f671043e6676fe2f7f4ef37",
      "function": "addExecutor(address)",
      "arguments": [
        "0x00E3CC76DA72cF673E4429E2d527388956af61ef"
      ],
      "transaction": {
        "from": "0x00e3cc76da72cf673e4429e2d527388956af61ef",
        "to": "0x0ade8fea92340ca07f671043e6676fe2f7f4ef37",
        "gas": "0x20c17",
        "value": "0x0",
        "input": "0x1f5a0bbe00000000000000000000000000e3cc76da72cf673e4429e2d527388956af61ef",
        "nonce": "0x30",
        "chainId": "0x13bb"
      },
      "additionalContracts": [],
      "isFixedGasLimit": false
    }
  ],
  "receipts": [
    {
      "status": "0x1",
      "cumulativeGasUsed": "0x21d78",
      "logs": [
        {
          "address": "0x0ade8fea92340ca07f671043e6676fe2f7f4ef37",
          "topics": [
            "0xae5b7c3b000f575c241001dc9bcb3d8778376889353b07121115574eceff78c5"
          ],
          "data": "0x00000000000000000000000000e3cc76da72cf673e4429e2d527388956af61ef",
          "blockHash": "0x3c659d6cd755f50610ae459bc08450b4c422dbe7046b8ff9c35c064bcb840ff0",
          "blockNumber": "0x3a4fa4",
          "transactionHash": "0xceca67abdb433dc2e3d509aa0e9764ca4fbe13189c519e0b5db879dcd0db3db4",
          "transactionIndex": "0x1",
          "logIndex": "0x0",
          "removed": false
        }
      ],
      "logsBloom": "0x00000000000000000000000000000000000000000000000000000000000000000000000000000000000000000000000000000000000000000000000000002000000000000000000004000000000000000002000000000000000000000000000000000000000000000000000000000000000000000000000000000100000000000000000000000000000000000000000000000000000000000000000000000000000000000000000000000000000000000000000000000000000000000000000000000000000000000000000000000000000800000000000000000000000000000000000200000000000000000000000000000000000000000000000000000000",
      "type": "0x2",
      "transactionHash": "0xceca67abdb433dc2e3d509aa0e9764ca4fbe13189c519e0b5db879dcd0db3db4",
      "transactionIndex": "0x1",
      "blockHash": "0x3c659d6cd755f50610ae459bc08450b4c422dbe7046b8ff9c35c064bcb840ff0",
      "blockNumber": "0x3a4fa4",
      "gasUsed": "0x1665b",
      "effectiveGasPrice": "0xfd",
      "from": "0x00e3cc76da72cf673e4429e2d527388956af61ef",
      "to": "0x0ade8fea92340ca07f671043e6676fe2f7f4ef37",
      "contractAddress": null,
      "l1Fee": "0x5ee9525d9770",
      "l1FeeScalar": "1",
      "l1GasPrice": "0x5c35bf432",
      "l1GasUsed": "0x1078"
    }
  ],
  "libraries": [],
  "pending": [],
  "returns": {},
  "timestamp": 1719468205,
  "chain": 5051,
  "commit": "9753a12"
}