{
  "transactions": [
    {
      "hash": "0x87986c7f0f89153dcb5ed355d3c59d9e08310576e5a3f7841be90125951bb59e",
      "transactionType": "CALL",
      "contractName": null,
      "contractAddress": "0xce45b10d38fc1173cd8c86ea688cf139cb10ade8",
      "function": "setChainToPeripheryContract(uint256,address)",
      "arguments": [
        "84532",
        "0x6bd1a2c15eCB4901208DCC4133D10836f0CDE927"
      ],
      "transaction": {
        "from": "0x00e3cc76da72cf673e4429e2d527388956af61ef",
        "to": "0xce45b10d38fc1173cd8c86ea688cf139cb10ade8",
        "gas": "0xb3af",
        "value": "0x0",
        "input": "0x5e0b30db0000000000000000000000000000000000000000000000000000000000014a340000000000000000000000006bd1a2c15ecb4901208dcc4133d10836f0cde927",
        "nonce": "0x11b",
        "chainId": "0x13bb"
      },
      "additionalContracts": [],
      "isFixedGasLimit": false
    }
  ],
  "receipts": [
    {
      "status": "0x1",
      "cumulativeGasUsed": "0x1394c",
      "logs": [
        {
          "address": "0xce45b10d38fc1173cd8c86ea688cf139cb10ade8",
          "topics": [
            "0x767785ec8a0326548b9a53e8e065f90615a014cda2b32d3d39845f234a37f8e4"
          ],
          "data": "0x0000000000000000000000006bd1a2c15ecb4901208dcc4133d10836f0cde9270000000000000000000000000000000000000000000000000000000000014a34",
          "blockHash": "0xf21df977027bd48f5419a006c11405f8a87a5f2dd69d381ac28dc8ebf5d1e6a1",
          "blockNumber": "0x3c52c0",
          "transactionHash": "0x87986c7f0f89153dcb5ed355d3c59d9e08310576e5a3f7841be90125951bb59e",
          "transactionIndex": "0x1",
          "logIndex": "0x0",
          "removed": false
        }
      ],
      "logsBloom": "0x00000000000000000000004080000000000000000000000000000000000000000000000000000000000000000000000000000000000000000000000000000000000000000000000000000000000000000000000000000000000000000000000000000000000000000000000000000000000000000000000000000000000000000000000000000000000000000000000000000000000000000000000000000000000000000000000000000000000000000000000010000000000004000000000000000000800000000000000000000000000000000000000000000000000000000000000000000200000000000000000000000000000000000000000000000000",
      "type": "0x2",
      "transactionHash": "0x87986c7f0f89153dcb5ed355d3c59d9e08310576e5a3f7841be90125951bb59e",
      "transactionIndex": "0x1",
      "blockHash": "0xf21df977027bd48f5419a006c11405f8a87a5f2dd69d381ac28dc8ebf5d1e6a1",
      "blockNumber": "0x3c52c0",
      "gasUsed": "0x8217",
      "effectiveGasPrice": "0xfd",
      "from": "0x00e3cc76da72cf673e4429e2d527388956af61ef",
      "to": "0xce45b10d38fc1173cd8c86ea688cf139cb10ade8",
      "contractAddress": null,
      "l1Fee": "0xf76a6d448db8",
      "l1FeeScalar": "1",
      "l1GasPrice": "0xe512730df",
      "l1GasUsed": "0x1148"
    }
  ],
  "libraries": [],
  "pending": [],
  "returns": {},
  "timestamp": 1719731939,
  "chain": 5051,
  "commit": "9753a12"
}