{
  "transactions": [
    {
      "hash": "0x6e00dbb64b3452d2cbefa776349d05733365db9e5e67519415195df349102bdf",
      "transactionType": "CALL",
      "contractName": null,
      "contractAddress": "0xce45b10d38fc1173cd8c86ea688cf139cb10ade8",
      "function": "processIntent(((address,bytes),address,bytes))",
      "arguments": [
        "((0xCE45b10d38Fc1173Cd8C86EA688cF139Cb10Ade8, 0x189bd1ae00000000000000000000000000e3cc76da72cf673e4429e2d527388956af61ef), 0x00E3CC76DA72cF673E4429E2d527388956af61ef, 0x0261db7da9488c9157d374a8d52d4b4320f93bef79996b13b2eb29a4424c8e7b169a566b40fb2b35b3c62e4204d5ac051dffa4c07d5c46ad301c0f75ca1091151b)"
      ],
      "transaction": {
        "from": "0x00e3cc76da72cf673e4429e2d527388956af61ef",
        "to": "0xce45b10d38fc1173cd8c86ea688cf139cb10ade8",
        "gas": "0x8a53a",
        "value": "0x0",
        "input": "0x57d79fcd0000000000000000000000000000000000000000000000000000000000000020000000000000000000000000000000000000000000000000000000000000006000000000000000000000000000e3cc76da72cf673e4429e2d527388956af61ef0000000000000000000000000000000000000000000000000000000000000100000000000000000000000000ce45b10d38fc1173cd8c86ea688cf139cb10ade800000000000000000000000000000000000000000000000000000000000000400000000000000000000000000000000000000000000000000000000000000024189bd1ae00000000000000000000000000e3cc76da72cf673e4429e2d527388956af61ef0000000000000000000000000000000000000000000000000000000000000000000000000000000000000000000000000000000000000000000000410261db7da9488c9157d374a8d52d4b4320f93bef79996b13b2eb29a4424c8e7b169a566b40fb2b35b3c62e4204d5ac051dffa4c07d5c46ad301c0f75ca1091151b00000000000000000000000000000000000000000000000000000000000000",
        "nonce": "0x129",
        "chainId": "0x13bb"
      },
      "additionalContracts": [],
      "isFixedGasLimit": false
    }
  ],
  "receipts": [
    {
      "status": "0x1",
      "cumulativeGasUsed": "0x6ae8b",
      "logs": [
        {
          "address": "0xce45b10d38fc1173cd8c86ea688cf139cb10ade8",
          "topics": [
            "0xc3d58168c5ae7397731d063d5bbf3d657854427343f4c083240f7aacaa2d0f62",
            "0x000000000000000000000000ce45b10d38fc1173cd8c86ea688cf139cb10ade8",
            "0x0000000000000000000000000000000000000000000000000000000000000000",
            "0x000000000000000000000000fa87a9fab7f0222f7d6d190a7c7ce6e48547aef4"
          ],
          "data": "0x00000000000000000000000000000000000000000000000000000000000000010000000000000000000000000000000000000000000000000000000000000001",
          "blockHash": "0x0b642a94fc404f8f37800b70d2fd656535952874ab4203a7516d58e84c4bd5b4",
          "blockNumber": "0x3cdce7",
          "transactionHash": "0x6e00dbb64b3452d2cbefa776349d05733365db9e5e67519415195df349102bdf",
          "transactionIndex": "0x1",
          "logIndex": "0x0",
          "removed": false
        },
        {
          "address": "0xce45b10d38fc1173cd8c86ea688cf139cb10ade8",
          "topics": [
            "0x30385c845b448a36257a6a1716e6ad2e1bc2cbe333cde1e69fe849ad6511adfe"
          ],
          "data": "0x000000000000000000000000fa87a9fab7f0222f7d6d190a7c7ce6e48547aef40000000000000000000000000000000000000000000000000000000000000001",
          "blockHash": "0x0b642a94fc404f8f37800b70d2fd656535952874ab4203a7516d58e84c4bd5b4",
          "blockNumber": "0x3cdce7",
          "transactionHash": "0x6e00dbb64b3452d2cbefa776349d05733365db9e5e67519415195df349102bdf",
          "transactionIndex": "0x1",
          "logIndex": "0x1",
          "removed": false
        },
        {
          "address": "0xce45b10d38fc1173cd8c86ea688cf139cb10ade8",
          "topics": [
            "0x45806e512b1f4f10e33e8b3cb64d1d11d998d8c554a95e0841fc1c701278bd5d"
          ],
          "data": "0x0000000000000000000000000000000000000000000000000000000066821b2e",
          "blockHash": "0x0b642a94fc404f8f37800b70d2fd656535952874ab4203a7516d58e84c4bd5b4",
          "blockNumber": "0x3cdce7",
          "transactionHash": "0x6e00dbb64b3452d2cbefa776349d05733365db9e5e67519415195df349102bdf",
          "transactionIndex": "0x1",
          "logIndex": "0x2",
          "removed": false
        },
        {
          "address": "0x59090778bd757328c8bbb353341f1209cae66847",
          "topics": [
            "0x883464a8bc0a569a4f2222259aa1f10323535f0cab3da98254a300dbc55d9d37"
          ],
          "data": "0x000000000000000000000000000000000000000000000000000000000000000900000000000000000000000000000000000000000000000000000000000000400000000000000000000000006bd1a2c15ecb4901208dcc4133d10836f0cde927000000000000000000000000000000000000000000000000000000000000008000000000000000000000000000e3cc76da72cf673e4429e2d527388956af61ef0000000000000000000000000000000000000000000000000000000000014a3400000000000000000000000000000000000000000000000000000000000000643f4d5fd3000000000000000000000000fa87a9fab7f0222f7d6d190a7c7ce6e48547aef400000000000000000000000000000000000000000000000000000000000000010000000000000000000000000000000000000000000002c68af0bb140000000000000000000000000000000000000000000000000000000000000000",
          "blockHash": "0x0b642a94fc404f8f37800b70d2fd656535952874ab4203a7516d58e84c4bd5b4",
          "blockNumber": "0x3cdce7",
          "transactionHash": "0x6e00dbb64b3452d2cbefa776349d05733365db9e5e67519415195df349102bdf",
          "transactionIndex": "0x1",
          "logIndex": "0x3",
          "removed": false
        }
      ],
      "logsBloom": "0x00000000000000000000004000000000000010000000000000000000001000020000000000000000000000000100000000000000000000000000000000002000000000000000000000100000000000000000000000000000000000040000000000008000020000000000000000000800000000000000000080000000000000000000000000000000000000000000000800000000000000400000000000000000002000000000000000000000000010000000000000000000000004000000000000010000a00000000000000000000001000000000048000000000000000020000000000000000000000000000000000000000000000000000000080000000000",
      "type": "0x2",
      "transactionHash": "0x6e00dbb64b3452d2cbefa776349d05733365db9e5e67519415195df349102bdf",
      "transactionIndex": "0x1",
      "blockHash": "0x0b642a94fc404f8f37800b70d2fd656535952874ab4203a7516d58e84c4bd5b4",
      "blockNumber": "0x3cdce7",
      "gasUsed": "0x5e952",
      "effectiveGasPrice": "0xfd",
      "from": "0x00e3cc76da72cf673e4429e2d527388956af61ef",
      "to": "0xce45b10d38fc1173cd8c86ea688cf139cb10ade8",
      "contractAddress": null,
      "l1Fee": "0x62afae8eee4c",
      "l1FeeScalar": "1",
      "l1GasPrice": "0x383c38bb7",
      "l1GasUsed": "0x1c14"
    }
  ],
  "libraries": [],
  "pending": [],
  "returns": {},
  "timestamp": 1719802673,
  "chain": 5051,
  "commit": "9753a12"
}