{
  "transactions": [
    {
      "hash": "0x1e834c2fa29595542cfa198b27a63249ee4c61ff00279481dcf3265f8ad19340",
      "transactionType": "CALL",
      "contractName": null,
      "contractAddress": "0xd456dbcbf79ed12f34bc59b8c38677acac59818c",
      "function": "setChainToPeripheryContract(uint256,address)",
      "arguments": [
        "84532",
        "0x6bd1a2c15eCB4901208DCC4133D10836f0CDE927"
      ],
      "transaction": {
        "from": "0x00e3cc76da72cf673e4429e2d527388956af61ef",
        "to": "0xd456dbcbf79ed12f34bc59b8c38677acac59818c",
        "gas": "0xb3af",
        "value": "0x0",
        "input": "0x5e0b30db0000000000000000000000000000000000000000000000000000000000014a340000000000000000000000006bd1a2c15ecb4901208dcc4133d10836f0cde927",
        "nonce": "0x10d",
        "chainId": "0x13bb"
      },
      "additionalContracts": [],
      "isFixedGasLimit": false
    },
    {
      "hash": "0xca957c1323c4f3255f35008235827fffaed41896e2b9c4cfe25cdb2d5211213c",
      "transactionType": "CALL",
      "contractName": null,
      "contractAddress": "0xd456dbcbf79ed12f34bc59b8c38677acac59818c",
      "function": "processIntent(((address,bytes),address,bytes))",
      "arguments": [
        "((0xd456DbCBF79Ed12F34Bc59B8C38677acAC59818c, 0x189bd1ae00000000000000000000000000e3cc76da72cf673e4429e2d527388956af61ef), 0x00E3CC76DA72cF673E4429E2d527388956af61ef, 0x2dbf5cbb29c91aafa3d2eeed1623ae11c9a4a11b9e1218636bc163ae403ae6b3157f420617282222d95deb250dd09c5baaf452394133b3b062309b544dce8b171c)"
      ],
      "transaction": {
        "from": "0x00e3cc76da72cf673e4429e2d527388956af61ef",
        "to": "0xd456dbcbf79ed12f34bc59b8c38677acac59818c",
        "gas": "0xc80b8",
        "value": "0x0",
        "input": "0x57d79fcd0000000000000000000000000000000000000000000000000000000000000020000000000000000000000000000000000000000000000000000000000000006000000000000000000000000000e3cc76da72cf673e4429e2d527388956af61ef0000000000000000000000000000000000000000000000000000000000000100000000000000000000000000d456dbcbf79ed12f34bc59b8c38677acac59818c00000000000000000000000000000000000000000000000000000000000000400000000000000000000000000000000000000000000000000000000000000024189bd1ae00000000000000000000000000e3cc76da72cf673e4429e2d527388956af61ef0000000000000000000000000000000000000000000000000000000000000000000000000000000000000000000000000000000000000000000000412dbf5cbb29c91aafa3d2eeed1623ae11c9a4a11b9e1218636bc163ae403ae6b3157f420617282222d95deb250dd09c5baaf452394133b3b062309b544dce8b171c00000000000000000000000000000000000000000000000000000000000000",
        "nonce": "0x10e",
        "chainId": "0x13bb"
      },
      "additionalContracts": [],
      "isFixedGasLimit": false
    }
  ],
  "receipts": [
    {
      "status": "0x1",
      "cumulativeGasUsed": "0x1394c",
      "logs": [
        {
          "address": "0xd456dbcbf79ed12f34bc59b8c38677acac59818c",
          "topics": [
            "0x767785ec8a0326548b9a53e8e065f90615a014cda2b32d3d39845f234a37f8e4"
          ],
          "data": "0x0000000000000000000000006bd1a2c15ecb4901208dcc4133d10836f0cde9270000000000000000000000000000000000000000000000000000000000014a34",
          "blockHash": "0xa59c0882feaf3af8295a080cb5a68753666f86a1f639ebce079105621f8791f6",
          "blockNumber": "0x3c3915",
          "transactionHash": "0x1e834c2fa29595542cfa198b27a63249ee4c61ff00279481dcf3265f8ad19340",
          "transactionIndex": "0x1",
          "logIndex": "0x0",
          "removed": false
        }
      ],
      "logsBloom": "0x00000000000000000000000080000000000000000000000000000000000000000000000000000000000000000000000000000000000000000000000000000000000000000004000000000000000000000000000000000000080000000000000000000000000000000000000000000000000000000000000000000000000000000000000000000000000000000000000000000000000000000000000000000000000000000000000000000000000000010000000010000000000000000000000000000000000000000000000000000000000000000000000000000000000000000000000000000200000000000000000000000000000000000000000000000000",
      "type": "0x2",
      "transactionHash": "0x1e834c2fa29595542cfa198b27a63249ee4c61ff00279481dcf3265f8ad19340",
      "transactionIndex": "0x1",
      "blockHash": "0xa59c0882feaf3af8295a080cb5a68753666f86a1f639ebce079105621f8791f6",
      "blockNumber": "0x3c3915",
      "gasUsed": "0x8217",
      "effectiveGasPrice": "0xfd",
      "from": "0x00e3cc76da72cf673e4429e2d527388956af61ef",
      "to": "0xd456dbcbf79ed12f34bc59b8c38677acac59818c",
      "contractAddress": null,
      "l1Fee": "0x12f3c26126d8",
      "l1FeeScalar": "1",
      "l1GasPrice": "0x118c0b763",
      "l1GasUsed": "0x1148"
    },
    {
      "status": "0x1",
      "cumulativeGasUsed": "0xa4690",
      "logs": [
        {
          "address": "0xd456dbcbf79ed12f34bc59b8c38677acac59818c",
          "topics": [
            "0xc3d58168c5ae7397731d063d5bbf3d657854427343f4c083240f7aacaa2d0f62",
            "0x000000000000000000000000d456dbcbf79ed12f34bc59b8c38677acac59818c",
            "0x0000000000000000000000000000000000000000000000000000000000000000",
            "0x000000000000000000000000fa87a9fab7f0222f7d6d190a7c7ce6e48547aef4"
          ],
          "data": "0x00000000000000000000000000000000000000000000000000000000000000000000000000000000000000000000000000000000000000000000000000000001",
          "blockHash": "0xa59c0882feaf3af8295a080cb5a68753666f86a1f639ebce079105621f8791f6",
          "blockNumber": "0x3c3915",
          "transactionHash": "0xca957c1323c4f3255f35008235827fffaed41896e2b9c4cfe25cdb2d5211213c",
          "transactionIndex": "0x2",
          "logIndex": "0x1",
          "removed": false
        },
        {
          "address": "0xd456dbcbf79ed12f34bc59b8c38677acac59818c",
          "topics": [
            "0x30385c845b448a36257a6a1716e6ad2e1bc2cbe333cde1e69fe849ad6511adfe"
          ],
          "data": "0x000000000000000000000000fa87a9fab7f0222f7d6d190a7c7ce6e48547aef40000000000000000000000000000000000000000000000000000000000000000",
          "blockHash": "0xa59c0882feaf3af8295a080cb5a68753666f86a1f639ebce079105621f8791f6",
          "blockNumber": "0x3c3915",
          "transactionHash": "0xca957c1323c4f3255f35008235827fffaed41896e2b9c4cfe25cdb2d5211213c",
          "transactionIndex": "0x2",
          "logIndex": "0x2",
          "removed": false
        },
        {
          "address": "0xd456dbcbf79ed12f34bc59b8c38677acac59818c",
          "topics": [
            "0xc3d58168c5ae7397731d063d5bbf3d657854427343f4c083240f7aacaa2d0f62",
            "0x000000000000000000000000d456dbcbf79ed12f34bc59b8c38677acac59818c",
            "0x0000000000000000000000000000000000000000000000000000000000000000",
            "0x000000000000000000000000f4e5780b44147365743d8c6d978adcd15838bbd0"
          ],
          "data": "0x00000000000000000000000000000000000000000000000000000000000000000000000000000000000000000000000000000000000000000000000000000001",
          "blockHash": "0xa59c0882feaf3af8295a080cb5a68753666f86a1f639ebce079105621f8791f6",
          "blockNumber": "0x3c3915",
          "transactionHash": "0xca957c1323c4f3255f35008235827fffaed41896e2b9c4cfe25cdb2d5211213c",
          "transactionIndex": "0x2",
          "logIndex": "0x3",
          "removed": false
        },
        {
          "address": "0xd456dbcbf79ed12f34bc59b8c38677acac59818c",
          "topics": [
            "0x30385c845b448a36257a6a1716e6ad2e1bc2cbe333cde1e69fe849ad6511adfe"
          ],
          "data": "0x000000000000000000000000f4e5780b44147365743d8c6d978adcd15838bbd00000000000000000000000000000000000000000000000000000000000000000",
          "blockHash": "0xa59c0882feaf3af8295a080cb5a68753666f86a1f639ebce079105621f8791f6",
          "blockNumber": "0x3c3915",
          "transactionHash": "0xca957c1323c4f3255f35008235827fffaed41896e2b9c4cfe25cdb2d5211213c",
          "transactionIndex": "0x2",
          "logIndex": "0x4",
          "removed": false
        },
        {
          "address": "0xd456dbcbf79ed12f34bc59b8c38677acac59818c",
          "topics": [
            "0xc3d58168c5ae7397731d063d5bbf3d657854427343f4c083240f7aacaa2d0f62",
            "0x000000000000000000000000d456dbcbf79ed12f34bc59b8c38677acac59818c",
            "0x0000000000000000000000000000000000000000000000000000000000000000",
            "0x000000000000000000000000fa87a9fab7f0222f7d6d190a7c7ce6e48547aef4"
          ],
          "data": "0x00000000000000000000000000000000000000000000000000000000000000000000000000000000000000000000000000000000000000000000000000000001",
          "blockHash": "0xa59c0882feaf3af8295a080cb5a68753666f86a1f639ebce079105621f8791f6",
          "blockNumber": "0x3c3915",
          "transactionHash": "0xca957c1323c4f3255f35008235827fffaed41896e2b9c4cfe25cdb2d5211213c",
          "transactionIndex": "0x2",
          "logIndex": "0x5",
          "removed": false
        },
        {
          "address": "0xd456dbcbf79ed12f34bc59b8c38677acac59818c",
          "topics": [
            "0x30385c845b448a36257a6a1716e6ad2e1bc2cbe333cde1e69fe849ad6511adfe"
          ],
          "data": "0x000000000000000000000000fa87a9fab7f0222f7d6d190a7c7ce6e48547aef40000000000000000000000000000000000000000000000000000000000000000",
          "blockHash": "0xa59c0882feaf3af8295a080cb5a68753666f86a1f639ebce079105621f8791f6",
          "blockNumber": "0x3c3915",
          "transactionHash": "0xca957c1323c4f3255f35008235827fffaed41896e2b9c4cfe25cdb2d5211213c",
          "transactionIndex": "0x2",
          "logIndex": "0x6",
          "removed": false
        },
        {
          "address": "0xd456dbcbf79ed12f34bc59b8c38677acac59818c",
          "topics": [
            "0x45806e512b1f4f10e33e8b3cb64d1d11d998d8c554a95e0841fc1c701278bd5d"
          ],
          "data": "0x000000000000000000000000000000000000000000000000000000006680d38a",
          "blockHash": "0xa59c0882feaf3af8295a080cb5a68753666f86a1f639ebce079105621f8791f6",
          "blockNumber": "0x3c3915",
          "transactionHash": "0xca957c1323c4f3255f35008235827fffaed41896e2b9c4cfe25cdb2d5211213c",
          "transactionIndex": "0x2",
          "logIndex": "0x7",
          "removed": false
        },
        {
          "address": "0x59090778bd757328c8bbb353341f1209cae66847",
          "topics": [
            "0x883464a8bc0a569a4f2222259aa1f10323535f0cab3da98254a300dbc55d9d37"
          ],
          "data": "0x000000000000000000000000000000000000000000000000000000000000000400000000000000000000000000000000000000000000000000000000000000400000000000000000000000006bd1a2c15ecb4901208dcc4133d10836f0cde927000000000000000000000000000000000000000000000000000000000000008000000000000000000000000000e3cc76da72cf673e4429e2d527388956af61ef0000000000000000000000000000000000000000000000000000000000014a34000000000000000000000000000000000000000000000000000000000000004440c10f19000000000000000000000000fa87a9fab7f0222f7d6d190a7c7ce6e48547aef4000000000000000000000000000000000000000000000000000000000000000000000000000000000000000000000000000000000000000000000000",
          "blockHash": "0xa59c0882feaf3af8295a080cb5a68753666f86a1f639ebce079105621f8791f6",
          "blockNumber": "0x3c3915",
          "transactionHash": "0xca957c1323c4f3255f35008235827fffaed41896e2b9c4cfe25cdb2d5211213c",
          "transactionIndex": "0x2",
          "logIndex": "0x8",
          "removed": false
        },
        {
          "address": "0x59090778bd757328c8bbb353341f1209cae66847",
          "topics": [
            "0x883464a8bc0a569a4f2222259aa1f10323535f0cab3da98254a300dbc55d9d37"
          ],
          "data": "0x000000000000000000000000000000000000000000000000000000000000000500000000000000000000000000000000000000000000000000000000000000400000000000000000000000006bd1a2c15ecb4901208dcc4133d10836f0cde927000000000000000000000000000000000000000000000000000000000000008000000000000000000000000000e3cc76da72cf673e4429e2d527388956af61ef0000000000000000000000000000000000000000000000000000000000014a34000000000000000000000000000000000000000000000000000000000000004440c10f19000000000000000000000000f4e5780b44147365743d8c6d978adcd15838bbd0000000000000000000000000000000000000000000000000000000000000000000000000000000000000000000000000000000000000000000000000",
          "blockHash": "0xa59c0882feaf3af8295a080cb5a68753666f86a1f639ebce079105621f8791f6",
          "blockNumber": "0x3c3915",
          "transactionHash": "0xca957c1323c4f3255f35008235827fffaed41896e2b9c4cfe25cdb2d5211213c",
          "transactionIndex": "0x2",
          "logIndex": "0x9",
          "removed": false
        },
        {
          "address": "0x59090778bd757328c8bbb353341f1209cae66847",
          "topics": [
            "0x883464a8bc0a569a4f2222259aa1f10323535f0cab3da98254a300dbc55d9d37"
          ],
          "data": "0x000000000000000000000000000000000000000000000000000000000000000600000000000000000000000000000000000000000000000000000000000000400000000000000000000000006bd1a2c15ecb4901208dcc4133d10836f0cde927000000000000000000000000000000000000000000000000000000000000008000000000000000000000000000e3cc76da72cf673e4429e2d527388956af61ef0000000000000000000000000000000000000000000000000000000000014a34000000000000000000000000000000000000000000000000000000000000004440c10f19000000000000000000000000fa87a9fab7f0222f7d6d190a7c7ce6e48547aef4000000000000000000000000000000000000000000000000000000000000000000000000000000000000000000000000000000000000000000000000",
          "blockHash": "0xa59c0882feaf3af8295a080cb5a68753666f86a1f639ebce079105621f8791f6",
          "blockNumber": "0x3c3915",
          "transactionHash": "0xca957c1323c4f3255f35008235827fffaed41896e2b9c4cfe25cdb2d5211213c",
          "transactionIndex": "0x2",
          "logIndex": "0xa",
          "removed": false
        }
      ],
      "logsBloom": "0x00000000000000000000000000000000000000000000000000000000001000020000000000800000000000000100000000002000000000000000000000002000000000000004000000100000000000000000004000000000080000000000000000008000020000000000000000000800000000000000000080000000000000000000000000000000040000000000000800000000000000400000000000000000002000000000000000000000000010010000020000000000000000000000000000000000200200000000000000000001000000000048000000000000000020000000000000000000000000000000000000000000000000000000080000000000",
      "type": "0x2",
      "transactionHash": "0xca957c1323c4f3255f35008235827fffaed41896e2b9c4cfe25cdb2d5211213c",
      "transactionIndex": "0x2",
      "blockHash": "0xa59c0882feaf3af8295a080cb5a68753666f86a1f639ebce079105621f8791f6",
      "blockNumber": "0x3c3915",
      "gasUsed": "0x90d44",
      "effectiveGasPrice": "0xfd",
      "from": "0x00e3cc76da72cf673e4429e2d527388956af61ef",
      "to": "0xd456dbcbf79ed12f34bc59b8c38677acac59818c",
      "contractAddress": null,
      "l1Fee": "0x1ed82c25c060",
      "l1FeeScalar": "1",
      "l1GasPrice": "0x118c0b763",
      "l1GasUsed": "0x1c20"
    }
  ],
  "libraries": [],
  "pending": [],
  "returns": {},
  "timestamp": 1719718798,
  "chain": 5051,
  "commit": "9753a12"
}