{
  "transactions": [
    {
      "hash": "0x7f84103d179eacd1d47b7ec2db004adefef8cb592cce6ca06d0de56609495aaf",
      "transactionType": "CALL",
      "contractName": null,
      "contractAddress": "0x9326ce15ec54c57ae2e34e1076e46d592305b759",
      "function": "setChainToPeripheryContract(uint256,address)",
      "arguments": [
        "84532",
        "0x6bd1a2c15eCB4901208DCC4133D10836f0CDE927"
      ],
      "transaction": {
        "from": "0x00e3cc76da72cf673e4429e2d527388956af61ef",
        "to": "0x9326ce15ec54c57ae2e34e1076e46d592305b759",
        "gas": "0xb3af",
        "value": "0x0",
        "input": "0x5e0b30db0000000000000000000000000000000000000000000000000000000000014a340000000000000000000000006bd1a2c15ecb4901208dcc4133d10836f0cde927",
        "nonce": "0x10f",
        "chainId": "0x13bb"
      },
      "additionalContracts": [],
      "isFixedGasLimit": false
    },
    {
      "hash": "0x6710b9719fa81b1d446d2d18429e032ae41fe467d05fdee8df450bf9fe4f25bc",
      "transactionType": "CALL",
      "contractName": null,
      "contractAddress": "0x9326ce15ec54c57ae2e34e1076e46d592305b759",
      "function": "processIntent(((address,bytes),address,bytes))",
      "arguments": [
        "((0x9326Ce15EC54C57AE2e34E1076E46d592305B759, 0x189bd1ae00000000000000000000000000e3cc76da72cf673e4429e2d527388956af61ef), 0x00E3CC76DA72cF673E4429E2d527388956af61ef, 0xcad55991fe52eba0731b84c4e960b5c66016e2a85025a90f5153e7de2154d15b55ded50d162b129bf856a61c39c2bbc20e7393f6654bdc4c7cedf24533ee8a051b)"
      ],
      "transaction": {
        "from": "0x00e3cc76da72cf673e4429e2d527388956af61ef",
        "to": "0x9326ce15ec54c57ae2e34e1076e46d592305b759",
        "gas": "0xe70dd",
        "value": "0x0",
        "input": "0x57d79fcd0000000000000000000000000000000000000000000000000000000000000020000000000000000000000000000000000000000000000000000000000000006000000000000000000000000000e3cc76da72cf673e4429e2d527388956af61ef00000000000000000000000000000000000000000000000000000000000001000000000000000000000000009326ce15ec54c57ae2e34e1076e46d592305b75900000000000000000000000000000000000000000000000000000000000000400000000000000000000000000000000000000000000000000000000000000024189bd1ae00000000000000000000000000e3cc76da72cf673e4429e2d527388956af61ef000000000000000000000000000000000000000000000000000000000000000000000000000000000000000000000000000000000000000000000041cad55991fe52eba0731b84c4e960b5c66016e2a85025a90f5153e7de2154d15b55ded50d162b129bf856a61c39c2bbc20e7393f6654bdc4c7cedf24533ee8a051b00000000000000000000000000000000000000000000000000000000000000",
        "nonce": "0x110",
        "chainId": "0x13bb"
      },
      "additionalContracts": [],
      "isFixedGasLimit": false
    }
  ],
  "receipts": [
    {
      "status": "0x1",
      "cumulativeGasUsed": "0x14744",
      "logs": [
        {
          "address": "0x9326ce15ec54c57ae2e34e1076e46d592305b759",
          "topics": [
            "0x767785ec8a0326548b9a53e8e065f90615a014cda2b32d3d39845f234a37f8e4"
          ],
          "data": "0x0000000000000000000000006bd1a2c15ecb4901208dcc4133d10836f0cde9270000000000000000000000000000000000000000000000000000000000014a34",
          "blockHash": "0x5c22baf30830252783890fc93aff7ebe3d1d589cd81af8e9641a6931e41ca8fc",
          "blockNumber": "0x3c3b75",
          "transactionHash": "0x7f84103d179eacd1d47b7ec2db004adefef8cb592cce6ca06d0de56609495aaf",
          "transactionIndex": "0x1",
          "logIndex": "0x0",
          "removed": false
        }
      ],
      "logsBloom": "0x00000000000000000000000080000000000000000000000000000000000000000000000000000000000000000000000000000000000000000000000000000000000000000000000000000000000010000000000000000000000000000000000000000000000000000000000000000000000000000000000000000000000000000000000000000000000000000000000000000000000000000800000000000000000000000000000000000000000000000000000010000000000000000000000000000000000000000000000000000000000000000000000000000000010000000000000000000200000000000000000000000000000000000000000000000000",
      "type": "0x2",
      "transactionHash": "0x7f84103d179eacd1d47b7ec2db004adefef8cb592cce6ca06d0de56609495aaf",
      "transactionIndex": "0x1",
      "blockHash": "0x5c22baf30830252783890fc93aff7ebe3d1d589cd81af8e9641a6931e41ca8fc",
      "blockNumber": "0x3c3b75",
      "gasUsed": "0x8217",
      "effectiveGasPrice": "0xfd",
      "from": "0x00e3cc76da72cf673e4429e2d527388956af61ef",
      "to": "0x9326ce15ec54c57ae2e34e1076e46d592305b759",
      "contractAddress": null,
      "l1Fee": "0xc6c7d036eb8",
      "l1FeeScalar": "1",
      "l1GasPrice": "0xb80aefff",
      "l1GasUsed": "0x1148"
    },
    {
      "status": "0x1",
      "cumulativeGasUsed": "0xbbbbb",
      "logs": [
        {
          "address": "0x9326ce15ec54c57ae2e34e1076e46d592305b759",
          "topics": [
            "0xc3d58168c5ae7397731d063d5bbf3d657854427343f4c083240f7aacaa2d0f62",
            "0x0000000000000000000000009326ce15ec54c57ae2e34e1076e46d592305b759",
            "0x0000000000000000000000000000000000000000000000000000000000000000",
            "0x000000000000000000000000fa87a9fab7f0222f7d6d190a7c7ce6e48547aef4"
          ],
          "data": "0x00000000000000000000000000000000000000000000000000000000000000010000000000000000000000000000000000000000000000000000000000000001",
          "blockHash": "0x5c22baf30830252783890fc93aff7ebe3d1d589cd81af8e9641a6931e41ca8fc",
          "blockNumber": "0x3c3b75",
          "transactionHash": "0x6710b9719fa81b1d446d2d18429e032ae41fe467d05fdee8df450bf9fe4f25bc",
          "transactionIndex": "0x2",
          "logIndex": "0x1",
          "removed": false
        },
        {
          "address": "0x9326ce15ec54c57ae2e34e1076e46d592305b759",
          "topics": [
            "0x30385c845b448a36257a6a1716e6ad2e1bc2cbe333cde1e69fe849ad6511adfe"
          ],
          "data": "0x000000000000000000000000fa87a9fab7f0222f7d6d190a7c7ce6e48547aef40000000000000000000000000000000000000000000000000000000000000001",
          "blockHash": "0x5c22baf30830252783890fc93aff7ebe3d1d589cd81af8e9641a6931e41ca8fc",
          "blockNumber": "0x3c3b75",
          "transactionHash": "0x6710b9719fa81b1d446d2d18429e032ae41fe467d05fdee8df450bf9fe4f25bc",
          "transactionIndex": "0x2",
          "logIndex": "0x2",
          "removed": false
        },
        {
          "address": "0x9326ce15ec54c57ae2e34e1076e46d592305b759",
          "topics": [
            "0xc3d58168c5ae7397731d063d5bbf3d657854427343f4c083240f7aacaa2d0f62",
            "0x0000000000000000000000009326ce15ec54c57ae2e34e1076e46d592305b759",
            "0x0000000000000000000000000000000000000000000000000000000000000000",
            "0x000000000000000000000000fa87a9fab7f0222f7d6d190a7c7ce6e48547aef4"
          ],
          "data": "0x00000000000000000000000000000000000000000000000000000000000000020000000000000000000000000000000000000000000000000000000000000001",
          "blockHash": "0x5c22baf30830252783890fc93aff7ebe3d1d589cd81af8e9641a6931e41ca8fc",
          "blockNumber": "0x3c3b75",
          "transactionHash": "0x6710b9719fa81b1d446d2d18429e032ae41fe467d05fdee8df450bf9fe4f25bc",
          "transactionIndex": "0x2",
          "logIndex": "0x3",
          "removed": false
        },
        {
          "address": "0x9326ce15ec54c57ae2e34e1076e46d592305b759",
          "topics": [
            "0x30385c845b448a36257a6a1716e6ad2e1bc2cbe333cde1e69fe849ad6511adfe"
          ],
          "data": "0x000000000000000000000000fa87a9fab7f0222f7d6d190a7c7ce6e48547aef40000000000000000000000000000000000000000000000000000000000000002",
          "blockHash": "0x5c22baf30830252783890fc93aff7ebe3d1d589cd81af8e9641a6931e41ca8fc",
          "blockNumber": "0x3c3b75",
          "transactionHash": "0x6710b9719fa81b1d446d2d18429e032ae41fe467d05fdee8df450bf9fe4f25bc",
          "transactionIndex": "0x2",
          "logIndex": "0x4",
          "removed": false
        },
        {
          "address": "0x9326ce15ec54c57ae2e34e1076e46d592305b759",
          "topics": [
            "0x45806e512b1f4f10e33e8b3cb64d1d11d998d8c554a95e0841fc1c701278bd5d"
          ],
          "data": "0x000000000000000000000000000000000000000000000000000000006680d84a",
          "blockHash": "0x5c22baf30830252783890fc93aff7ebe3d1d589cd81af8e9641a6931e41ca8fc",
          "blockNumber": "0x3c3b75",
          "transactionHash": "0x6710b9719fa81b1d446d2d18429e032ae41fe467d05fdee8df450bf9fe4f25bc",
          "transactionIndex": "0x2",
          "logIndex": "0x5",
          "removed": false
        },
        {
          "address": "0x59090778bd757328c8bbb353341f1209cae66847",
          "topics": [
            "0x883464a8bc0a569a4f2222259aa1f10323535f0cab3da98254a300dbc55d9d37"
          ],
          "data": "0x000000000000000000000000000000000000000000000000000000000000000700000000000000000000000000000000000000000000000000000000000000400000000000000000000000006bd1a2c15ecb4901208dcc4133d10836f0cde927000000000000000000000000000000000000000000000000000000000000008000000000000000000000000000e3cc76da72cf673e4429e2d527388956af61ef0000000000000000000000000000000000000000000000000000000000014a3400000000000000000000000000000000000000000000000000000000000000643f4d5fd3000000000000000000000000fa87a9fab7f0222f7d6d190a7c7ce6e48547aef400000000000000000000000000000000000000000000000000000000000000010000000000000000000000000000000000000000000002c68af0bb140000000000000000000000000000000000000000000000000000000000000000",
          "blockHash": "0x5c22baf30830252783890fc93aff7ebe3d1d589cd81af8e9641a6931e41ca8fc",
          "blockNumber": "0x3c3b75",
          "transactionHash": "0x6710b9719fa81b1d446d2d18429e032ae41fe467d05fdee8df450bf9fe4f25bc",
          "transactionIndex": "0x2",
          "logIndex": "0x6",
          "removed": false
        },
        {
          "address": "0x59090778bd757328c8bbb353341f1209cae66847",
          "topics": [
            "0x883464a8bc0a569a4f2222259aa1f10323535f0cab3da98254a300dbc55d9d37"
          ],
          "data": "0x000000000000000000000000000000000000000000000000000000000000000800000000000000000000000000000000000000000000000000000000000000400000000000000000000000006bd1a2c15ecb4901208dcc4133d10836f0cde927000000000000000000000000000000000000000000000000000000000000008000000000000000000000000000e3cc76da72cf673e4429e2d527388956af61ef0000000000000000000000000000000000000000000000000000000000014a3400000000000000000000000000000000000000000000000000000000000000643f4d5fd3000000000000000000000000fa87a9fab7f0222f7d6d190a7c7ce6e48547aef40000000000000000000000000000000000000000000000000000000000000002000000000000000000000000000000000000000000000000016345785d8a000000000000000000000000000000000000000000000000000000000000",
          "blockHash": "0x5c22baf30830252783890fc93aff7ebe3d1d589cd81af8e9641a6931e41ca8fc",
          "blockNumber": "0x3c3b75",
          "transactionHash": "0x6710b9719fa81b1d446d2d18429e032ae41fe467d05fdee8df450bf9fe4f25bc",
          "transactionIndex": "0x2",
          "logIndex": "0x7",
          "removed": false
        }
      ],
      "logsBloom": "0x00000000000000000000000000000000000000000000000000000000001000220000000000000000000000000100000000000000000000000000000000002000000000000000000000100000000010000000000000000000000000000000000000008000020000000000000000000800000000000000000080000000000000000000000000000000000000000000000800000000000000400800000000000000002000000000000000000000000010000000000001000000000000000000000000000000200000000000000000000001000000000048000000000000010020000000000000000000000000000000000000000000000080000000080000000000",
      "type": "0x2",
      "transactionHash": "0x6710b9719fa81b1d446d2d18429e032ae41fe467d05fdee8df450bf9fe4f25bc",
      "transactionIndex": "0x2",
      "blockHash": "0x5c22baf30830252783890fc93aff7ebe3d1d589cd81af8e9641a6931e41ca8fc",
      "blockNumber": "0x3c3b75",
      "gasUsed": "0xa7477",
      "effectiveGasPrice": "0xfd",
      "from": "0x00e3cc76da72cf673e4429e2d527388956af61ef",
      "to": "0x9326ce15ec54c57ae2e34e1076e46d592305b759",
      "contractAddress": null,
      "l1Fee": "0x1438339de3e0",
      "l1FeeScalar": "1",
      "l1GasPrice": "0xb80aefff",
      "l1GasUsed": "0x1c20"
    }
  ],
  "libraries": [],
  "pending": [],
  "returns": {},
  "timestamp": 1719720014,
  "chain": 5051,
  "commit": "9753a12"
}