{
  "transactions": [
    {
      "hash": "0x40b14a326c443c3084d85aff91bc4a0b90d5b3c13ca5300df0e97a314fe71589",
      "transactionType": "CALL",
      "contractName": null,
      "contractAddress": "0x7e093d035552f39d78dd3691c1837191984064c5",
      "function": "setSigner(address)",
      "arguments": [
        "0x1ec3E56cbE71Db52A44ff2A635c468CAF1Bc77B7"
      ],
      "transaction": {
        "from": "0x00e3cc76da72cf673e4429e2d527388956af61ef",
        "to": "0x7e093d035552f39d78dd3691c1837191984064c5",
        "gas": "0xfddd",
        "value": "0x0",
        "input": "0x6c19e7830000000000000000000000001ec3e56cbe71db52a44ff2a635c468caf1bc77b7",
        "nonce": "0x10",
        "chainId": "0x61"
      },
      "additionalContracts": [],
      "isFixedGasLimit": false
    }
  ],
  "receipts": [
    {
      "status": "0x1",
      "cumulativeGasUsed": "0x88767a",
      "logs": [
        {
          "address": "0x7e093d035552f39d78dd3691c1837191984064c5",
          "topics": [
            "0x9eaa897564d022fb8c5efaf0acdb5d9d27b440b2aad44400b6e1c702e65b9ed3"
          ],
          "data": "0x0000000000000000000000001ec3e56cbe71db52a44ff2a635c468caf1bc77b7",
          "blockHash": "0x2aecfdaa657bd7282cabcbdafbbf9f4c6da85f1e3daa22bdcaef4162c061f8d7",
          "blockNumber": "0x27b078d",
          "transactionHash": "0x40b14a326c443c3084d85aff91bc4a0b90d5b3c13ca5300df0e97a314fe71589",
          "transactionIndex": "0x7",
          "logIndex": "0xd6",
          "removed": false
        }
      ],
      "logsBloom": "0x00000000000000400000000000000000000000000000000000000000000000000000000000000000000000000000000000000000000000000000000000000000000000000000000000000000000000000000000000000000000000000000000000000000000000000000000000000000000000000001000000000000000000000000000000000000000000000000000000000000000000000000000000000000000000000000000000000000010000000000000000000000000000000000000000000000000000000000000000000000000000000400000000000000000000000000000000000000000000000000040008000000000000000000000000000000",
      "type": "0x0",
      "transactionHash": "0x40b14a326c443c3084d85aff91bc4a0b90d5b3c13ca5300df0e97a314fe71589",
      "transactionIndex": "0x7",
      "blockHash": "0x2aecfdaa657bd7282cabcbdafbbf9f4c6da85f1e3daa22bdcaef4162c061f8d7",
      "blockNumber": "0x27b078d",
      "gasUsed": "0xb7cc",
      "effectiveGasPrice": "0x12a05f200",
      "from": "0x00e3cc76da72cf673e4429e2d527388956af61ef",
      "to": "0x7e093d035552f39d78dd3691c1837191984064c5",
      "contractAddress": null
    }
  ],
  "libraries": [],
  "pending": [],
  "returns": {},
  "timestamp": 1719570311,
  "chain": 97,
  "commit": "9753a12"
}