{
  "transactions": [
    {
      "hash": "0x1640b5f5a59a35ea23d7eeacee3ae4f53e937768822965dda86aed069a941f7d",
      "transactionType": "CALL",
      "contractName": null,
      "contractAddress": "0x7e093d035552f39d78dd3691c1837191984064c5",
      "function": "setSigner(address)",
      "arguments": [
        "0x1ec3E56cbE71Db52A44ff2A635c468CAF1Bc77B7"
      ],
      "transaction": {
        "from": "0x00e3cc76da72cf673e4429e2d527388956af61ef",
        "to": "0x7e093d035552f39d78dd3691c1837191984064c5",
        "gas": "0x927f",
        "value": "0x0",
        "input": "0x6c19e7830000000000000000000000001ec3e56cbe71db52a44ff2a635c468caf1bc77b7",
        "nonce": "0x11",
        "chainId": "0x61"
      },
      "additionalContracts": [],
      "isFixedGasLimit": false
    }
  ],
  "receipts": [
    {
      "status": "0x1",
      "cumulativeGasUsed": "0x133b2",
      "logs": [
        {
          "address": "0x7e093d035552f39d78dd3691c1837191984064c5",
          "topics": [
            "0x9eaa897564d022fb8c5efaf0acdb5d9d27b440b2aad44400b6e1c702e65b9ed3"
          ],
          "data": "0x0000000000000000000000001ec3e56cbe71db52a44ff2a635c468caf1bc77b7",
          "blockHash": "0xa77bc066f5ba03483a3ab5587035133c593bfcd76a3dec9a08c30e11a6915231",
          "blockNumber": "0x27c4926",
          "transactionHash": "0x1640b5f5a59a35ea23d7eeacee3ae4f53e937768822965dda86aed069a941f7d",
          "transactionIndex": "0x1",
          "logIndex": "0x1",
          "removed": false
        }
      ],
      "logsBloom": "0x00000000000000400000000000000000000000000000000000000000000000000000000000000000000000000000000000000000000000000000000000000000000000000000000000000000000000000000000000000000000000000000000000000000000000000000000000000000000000000001000000000000000000000000000000000000000000000000000000000000000000000000000000000000000000000000000000000000010000000000000000000000000000000000000000000000000000000000000000000000000000000400000000000000000000000000000000000000000000000000040008000000000000000000000000000000",
      "type": "0x0",
      "transactionHash": "0x1640b5f5a59a35ea23d7eeacee3ae4f53e937768822965dda86aed069a941f7d",
      "transactionIndex": "0x1",
      "blockHash": "0xa77bc066f5ba03483a3ab5587035133c593bfcd76a3dec9a08c30e11a6915231",
      "blockNumber": "0x27c4926",
      "gasUsed": "0x6a10",
      "effectiveGasPrice": "0xee6b2800",
      "from": "0x00e3cc76da72cf673e4429e2d527388956af61ef",
      "to": "0x7e093d035552f39d78dd3691c1837191984064c5",
      "contractAddress": null
    }
  ],
  "libraries": [],
  "pending": [],
  "returns": {},
  "timestamp": 1719817299,
  "chain": 97,
  "commit": "9753a12"
}